:020000040800F2
:1000000000500020B9240008BD220008C5220008C5
:10001000CD220008D5220008DD22000800000000E3
:10002000000000000000000000000000E5220008C1
:10003000F122000800000000FD220008092300084A
:1000400001250008012500080125000801250008F8
:1000500001250008012500080125000801250008E8
:1000600001250008012500080125000801250008D8
:1000700001250008012500080125000801250008C8
:1000800001250008012500080125000801250008B8
:1000900001250008012500080125000801250008A8
:1000A0000125000801250008012500080125000898
:1000B0001523000801250008012500080125000876
:1000C0000125000801250008012500080125000878
:1000D0000125000801250008012500080125000868
:1000E0000125000801250008012500080000000086
:1000F0000000000000000000000000000000000000
:0C01000000000000000000005FF808F1A3
:1001100010B5054C237833B9044B13B10448AFF341
:1001200000800123237010BDD801002000000000D2
:100130008C98000808B5034B1BB103490348AFF383
:10014000008008BD00000000DC0100208C98000841
:10015000034613F8012B002AFBD1181A0138704707
:100160004FF0FF0C1CEAD0521EBF1CEAD15392EA9A
:100170000C0F93EA0C0F6FD01A4480EA010C400276
:1001800018BF5FEA41211ED04FF0006343EA5010D0
:1001900043EA5111A0FB01310CF00040B1F5000F12
:1001A0003EBF490041EAD3715B0040EA010062F1C1
:1001B0007F02FD2A1DD8B3F1004F40EBC25008BFAB
:1001C00020F00100704790F0000F0CF0004C08BFC9
:1001D00049024CEA502040EA51207F3AC2BFD2F196
:1001E000FF0340EAC250704740F400004FF00003A4
:1001F000013A5DDC12F1190FDCBF00F000407047DE
:10020000C2F10002410021FA02F1C2F1200200FA1B
:1002100002FC5FEA310040F1000053EA4C0308BFE2
:1002200020EADC70704792F0000F00F0004C02BF33
:10023000400010F4000F013AF9D040EA0C0093F0AE
:10024000000F01F0004C02BF490011F4000F013B08
:10025000F9D041EA0C018FE70CEAD15392EA0C0F76
:1002600018BF93EA0C0F0AD030F0004C18BF31F0E1
:10027000004CD8D180EA010000F00040704790F0B7
:10028000000F17BF90F0004F084691F0000F91F05B
:10029000004F14D092EA0C0F01D142020FD193EA21
:1002A0000C0F03D14B0218BF084608D180EA0100A9
:1002B00000F0004040F0FE4040F40000704740F085
:1002C000FE4040F44000704781F0004102E000BF72
:1002D00083F0004330B54FEA41044FEA430594EA06
:1002E000050F08BF90EA020F1FBF54EA000C55EA41
:1002F000020C7FEA645C7FEA655C00F0E2804FEA12
:100300005454D4EB5555B8BF6D420CDD2C4480EAF3
:10031000020281EA030382EA000083EA010180EA23
:10032000020281EA0303362D88BF30BD11F0004F71
:100330004FEA01314FF4801C4CEA113102D04042A7
:1003400061EB410113F0004F4FEA03334CEA1333E2
:1003500002D0524263EB430394EA050F00F0A780FA
:10036000A4F10104D5F1200E0DDB02FA0EFC22FAF5
:1003700005F2801841F1000103FA0EF2801843FAE9
:1003800005F359410EE0A5F120050EF1200E012ADA
:1003900003FA0EFC28BF4CF0020C43FA05F3C01818
:1003A00051EBE37101F0004507D54FF0000EDCF191
:1003B000000C7EEB00006EEB0101B1F5801F1BD33A
:1003C000B1F5001F0CD349085FEA30004FEA3C0C3E
:1003D00004F101044FEA445212F5800F80F09A8034
:1003E000BCF1004F08BF5FEA500C50F1000041EB38
:1003F000045141EA050130BD5FEA4C0C404141EB3C
:100400000101013C28BFB1F5801FE9D291F0000F36
:1004100004BF01460020B1FA81F308BF2033A3F1E5
:100420000B03B3F120020CDA0C3208DD02F1140CDC
:10043000C2F10C0201FA0CF021FA02F10CE002F117
:100440001402D8BFC2F1200C01FA02F120FA0CFC10
:10045000DCBF41EA0C019040E41AA2BF01EB045159
:10046000294330BD6FEA04041F3C1CDA0C340EDC57
:1004700004F11404C4F1200220FA04F001FA02F39A
:1004800040EA030021FA04F345EA030130BDC4F158
:100490000C04C4F1200220FA02F001FA04F340EA4D
:1004A0000300294630BD21FA04F0294630BD94F0FE
:1004B000000F83F4801306BF81F480110134013DE5
:1004C0004EE77FEA645C18BF7FEA655C29D094EA56
:1004D000050F08BF90EA020F05D054EA000C04BFD4
:1004E0001946104630BD91EA030F1EBF00210020BF
:1004F00030BD5FEA545C05D14000494128BF41F05E
:10050000004130BD14F580043CBF01F5801130BDC1
:1005100001F0004545F0FE4141F470014FF000004C
:1005200030BD7FEA645C1ABF194610467FEA655CFD
:100530001CBF0B46024650EA013406BF52EA03359F
:1005400091EA030F41F4002130BD00BF90F0000F8D
:1005500004BF0021704730B54FF4806404F13204C9
:100560004FF000054FF0000150E700BF90F0000F82
:1005700004BF0021704730B54FF4806404F13204A9
:1005800010F0004548BF40424FF000013EE700BF79
:1005900042004FEAE2014FEA31014FEA02701FBF09
:1005A00012F07F4393F07F4F81F06051704732F03B
:1005B0007F4208BF704793F07F4F04BF41F4002192
:1005C000704730B54FF4607401F0004521F00041F0
:1005D0001CE700BF50EA010208BF704730B54FF07A
:1005E00000050AE050EA010208BF704730B511F07B
:1005F000004502D5404261EB41014FF4806404F1B3
:1006000032045FEA915C3FF4D8AE4FF003025FEA38
:10061000DC0C18BF03325FEADC0C18BF033202EBBC
:10062000DC02C2F1200300FA03FC20FA02F001FA16
:1006300003FE40EA0E0021FA02F11444BDE600BFB9
:1006400070B54FF0FF0C4CF4E06C1CEA11541DBF68
:100650001CEA135594EA0C0F95EA0C0F00F0DEF833
:100660002C4481EA030621EA4C5123EA4C5350EA18
:10067000013518BF52EA033541F4801143F4801369
:1006800038D0A0FB02CE4FF00005E1FB02E506F0FA
:100690000042E0FB03E54FF00006E1FB03569CF04F
:1006A000000F18BF4EF0010EA4F1FF04B6F5007F55
:1006B00064F5407404D25FEA4E0E6D4146EB0606C7
:1006C00042EAC62141EA55514FEAC52040EA5E5050
:1006D0004FEACE2EB4F1FD0C88BFBCF5E06F1ED8FA
:1006E000BEF1004F08BF5FEA500E50F1000041EB31
:1006F000045170BD06F0004646EA010140EA0200DE
:1007000081EA0301B4EB5C04C2BFD4EB0C0541EAFF
:10071000045170BD41F480114FF0000E013C00F314
:10072000AB8014F1360FDEBF002001F0004170BD38
:10073000C4F10004203C35DA0C341BDC04F1140451
:10074000C4F1200500FA05F320FA04F001FA05F2DD
:1007500040EA020001F0004221F0004110EBD370AA
:1007600021FA04F642EB06015EEA430E08BF20EAD6
:10077000D37070BDC4F10C04C4F1200500FA04F379
:1007800020FA05F001FA04F240EA020001F000410B
:1007900010EBD37041F100015EEA430E08BF20EA7E
:1007A000D37070BDC4F1200500FA05F24EEA020EC6
:1007B00020FA04F301FA05F243EA020321FA04F0F5
:1007C00001F0004121FA04F220EA020000EBD370AC
:1007D0005EEA430E08BF20EAD37070BD94F0000FAC
:1007E0000FD101F00046400041EB010111F4801FE0
:1007F00008BF013CF7D041EA060195F0000F18BF91
:10080000704703F00046520043EB030313F4801FCC
:1008100008BF013DF7D043EA0603704794EA0C0F86
:100820000CEA135518BF95EA0C0F0CD050EA41069C
:1008300018BF52EA4306D1D181EA030101F0004119
:100840004FF0000070BD50EA410606BF1046194641
:1008500052EA430619D094EA0C0F02D150EA01364D
:1008600013D195EA0C0F05D152EA03361CBF10468E
:1008700019460AD181EA030101F0004141F0FE412D
:1008800041F470014FF0000070BD41F0FE4141F4B1
:10089000780170BD70B54FF0FF0C4CF4E06C1CEAB1
:1008A00011541DBF1CEA135594EA0C0F95EA0C0F66
:1008B00000F0A7F8A4EB050481EA030E52EA033521
:1008C0004FEA013100F088804FEA03334FF0805542
:1008D00045EA131343EA12634FEA022245EA11156F
:1008E00045EA10654FEA00260EF000419D4208BF20
:1008F000964244F1FD0404F5407402D25B084FEACD
:100900003202B61A65EB03055B084FEA32024FF478
:1009100080104FF4002CB6EB020E75EB030E22BFD5
:10092000B61A754640EA0C005B084FEA3202B6EB95
:10093000020E75EB030E22BFB61A754640EA5C0044
:100940005B084FEA3202B6EB020E75EB030E22BFD4
:10095000B61A754640EA9C005B084FEA3202B6EBD5
:10096000020E75EB030E22BFB61A754640EADC0094
:1009700055EA060E18D04FEA051545EA16754FEAF6
:1009800006164FEAC30343EA52734FEAC2025FEA14
:100990001C1CC0D111F4801F0BD141EA00014FF0A3
:1009A00000004FF0004CB6E711F4801F04BF014374
:1009B0000020B4F1FD0C88BFBCF5E06F3FF6AFAE90
:1009C000B5EB030C04BFB6EB020C5FEA500C50F120
:1009D000000041EB045170BD0EF0004E4EEA1131A3
:1009E00014EB5C04C2BFD4EB0C0541EA045170BDAA
:1009F00041F480114FF0000E013C90E645EA060EEE
:100A00008DE60CEA135594EA0C0F08BF95EA0C0F1B
:100A10003FF43BAF94EA0C0F0AD150EA01347FF463
:100A200034AF95EA0C0F7FF425AF104619462CE73A
:100A300095EA0C0F06D152EA03353FF4FDAE10469D
:100A4000194622E750EA410618BF52EA43067FF4EE
:100A5000C5AE50EA41047FF40DAF52EA43057FF47E
:100A6000EBAE12E74FF0FF3C06E000BF4FF0010C89
:100A700002E000BF4FF0010C4DF804CD4FEA410CED
:100A80007FEA6C5C4FEA430C18BF7FEA6C5C1BD0BA
:100A900001B050EA410C0CBF52EA430C91EA030F3B
:100AA00002BF90EA020F0020704710F1000F91EA98
:100AB000030F58BF994208BF90422CBFD8176FEA66
:100AC000E37040F0010070474FEA410C7FEA6C5C34
:100AD00002D150EA013C07D14FEA430C7FEA6C5C3B
:100AE000D6D152EA033CD3D05DF8040B704700BF67
:100AF0008446104662468C461946634600E000BFB5
:100B000001B5FFF7B7FF002848BF10F1000F01BD86
:100B10004DF808EDFFF7F4FF0CBF012000205DF851
:100B200008FB00BF4DF808EDFFF7EAFF34BF0120D6
:100B300000205DF808FB00BF4DF808EDFFF7E0FF6F
:100B400094BF012000205DF808FB00BF4DF808EDC0
:100B5000FFF7CEFF94BF012000205DF808FB00BF27
:100B60004DF808EDFFF7C4FF34BF012000205DF809
:100B700008FB00BF4FEA410C7FEA6C5C02D150EAEF
:100B8000013C0AD14FEA430C7FEA6C5C02D152EA85
:100B9000033C02D14FF0000070474FF00100704756
:100BA0004FEA410212F5001215D211D56FF4787395
:100BB000B3EB625212D94FEAC12343F0004343EA38
:100BC000505311F0004F23FA02F018BF4042704713
:100BD0004FF00000704750EA013005D111F000409D
:100BE00008BF6FF0004070474FF00000704700BF33
:100BF0004A0011D212F5001211D20DD56FF478739C
:100C0000B3EB62520ED44FEAC12343F0004343EAF0
:100C1000505323FA02F070474FF00000704750EA3B
:100C2000013002D14FF0FF3070474FF000007047A5
:100C30004FEA4102B2F1E04324BFB3F5001CDCF1FE
:100C4000FE5C0DD901F0004C4FEAC0024CEA507036
:100C5000B2F1004F40EB830008BF20F00100704765
:100C600011F0804F21D113F13872BCBF01F0004068
:100C7000704741F480114FEA5252C2F11802C2F19A
:100C8000200C10FA0CF320FA02F018BF40F001001B
:100C90004FEAC1234FEAD32303FA0CFC40EA0C00CD
:100CA00023FA02F34FEA4303CCE77FEA625307D10A
:100CB00050EA01331EBF4FF0FE4040F44000704741
:100CC00001F0004040F0FE4040F40000704700BFDB
:100CD00080F0004002E000BF81F0004142001FBFF1
:100CE0005FEA410392EA030F7FEA226C7FEA236CFA
:100CF0006AD04FEA1262D2EB1363C1BFD2184140EF
:100D000048404140B8BF5B42192B88BF704710F084
:100D1000004F40F4000020F07F4018BF404211F027
:100D2000004F41F4000121F07F4118BF494292EA8F
:100D3000030F3FD0A2F1010241FA03FC10EB0C00BB
:100D4000C3F1200301FA03F100F0004302D5494248
:100D500060EB4000B0F5000F13D3B0F1807F06D3F5
:100D600040084FEA310102F10102FE2A51D2B1F1ED
:100D7000004F40EBC25008BF20F0010040EA0300E2
:100D80007047490040EB0000013A28BFB0F5000F62
:100D9000EDD2B0FA80FCACF1080CB2EB0C0200FA18
:100DA0000CF0AABF00EBC25052421843BCBFD04067
:100DB0001843704792F0000F81F4000106BF80F4E1
:100DC00000000132013BB5E74FEA41037FEA226CA4
:100DD00018BF7FEA236C21D092EA030F04D092F06F
:100DE000000F08BF0846704790EA010F1CBF0020A3
:100DF000704712F07F4F04D1400028BF40F0004000
:100E0000704712F100723CBF00F50000704700F01F
:100E1000004343F0FE4040F4000070477FEA226246
:100E200016BF08467FEA23630146420206BF5FEA17
:100E3000412390EA010F40F4800070474FF0000317
:100E400004E000BF10F0004348BF40425FEA000CDE
:100E500008BF704743F0964301464FF000001CE086
:100E600050EA010208BF70474FF000030AE000BFDC
:100E700050EA010208BF704711F0004302D540421A
:100E800061EB41015FEA010C02BF8446014600208C
:100E900043F0B64308BFA3F18053A3F50003BCFAA7
:100EA0008CF2083AA3EBC25310DB01FA02FC634454
:100EB00000FA02FCC2F12002BCF1004F20FA02F25B
:100EC00043EB020008BF20F00100704702F120024E
:100ED00001FA02FCC2F1200250EA4C0021FA02F2AF
:100EE00043EB020008BF20EADC7070474FF0FF3C84
:100EF00006E000BF4FF0010C02E000BF4FF0010C14
:100F00004DF804CD4FEA40024FEA41037FEA226CDC
:100F100018BF7FEA236C11D001B052EA530C18BFFE
:100F200090EA010F58BFB2EB030088BFC81738BF63
:100F30006FEAE17018BF40F0010070477FEA226C51
:100F400002D15FEA402C05D17FEA236CE4D15FEA4D
:100F5000412CE1D05DF8040B704700BF8446084681
:100F60006146FFE70FB5FFF7C9FF002848BF10F142
:100F7000000F0FBD4DF808EDFFF7F4FF0CBF012087
:100F800000205DF808FB00BF4DF808EDFFF7EAFF11
:100F900034BF012000205DF808FB00BF4DF808EDCC
:100FA000FFF7E0FF94BF012000205DF808FB00BFC1
:100FB0004DF808EDFFF7D2FF94BF012000205DF847
:100FC00008FB00BF4DF808EDFFF7C8FF34BF012054
:100FD00000205DF808FB00BF38B50022002304465E
:100FE0000D46FFF79FFD28B920462946BDE8384049
:100FF00000F00AB8204605F1004100F005F8404233
:1010000061EB410138BD00BFD0B500220B4B064655
:101010000F46FFF715FBFFF7EBFD0446FFF796FAC7
:101020000022074BFFF70CFB02460B4630463946C1
:10103000FFF74EF9FFF7DCFD2146D0BD0000F03D83
:101040000000F04180B59AB004AF002387F8573014
:10105000642302930123019307F1570300930123B3
:101060007522D0214E4802F0BFF80346002B03D171
:101070004C4BD0221A701AE064230293012301938F
:1010800007F15703009301237522D221444802F04F
:10109000ABF80346002B03D1424BD2221A7006E074
:1010A000642336224049414803F06AFF74E03D4B17
:1010B0001B781A4697F85730381D009313463C4A60
:1010C000502105F0EDFC3B1D1846FFF741F80346A3
:1010D0009AB2391D6423354803F052FF97F8573010
:1010E000682B13D097F85730692B0FD097F85730EB
:1010F000982B0BD097F85730702B07D097F85730B4
:10110000712B03D097F85730752B3FD1294B012213
:101110001A70002387F85630224B1B781946642337
:1011200002930123019307F15603009301236B22DD
:101130001B4801F05FFF072387F85630194B1B78D7
:101140001946642302930123019307F15603009388
:1011500001231922124801F04DFF002387F8563071
:10116000104B1B781946642302930123019307F166
:101170005603009301231C22094801F03BFF64231E
:101180001C220D49094803F0FBFE05E064233C22C4
:101190000A49064803F0F4FE5837BD4680BD00BF3B
:1011A000F401002050030020A89800089C020020B1
:1011B000E09800084E0300201C9900083C990008A4
:1011C00090B587B004AF604B1B78DBB2002B01D128
:1011D0000023B5E05D4B1B78194664230293062378
:1011E00001933B46009301233B22594801F0FCFF49
:1011F0000346002B40F095803B781BB21B021AB2CD
:101200007B781BB213431AB2524B1A80BB781BB2C5
:101210001B021AB2FB781BB213431AB24E4B1A8050
:101220003B791BB21B021AB27B791BB213431AB271
:101230004A4B1A80474B1B881BB21846FFF796F99A
:101240004FF00002464BFFF725FB02460B461046C7
:101250001946FFF7EDFC0346424A13603E4B1B88DC
:101260001BB21846FFF782F94FF000023C4BFFF724
:1012700011FB02460B4610461946FFF7D9FC034600
:10128000394A1360354B1B881BB21846FFF76EF9BD
:101290004FF00002324BFFF7FDFA02460B461046B4
:1012A0001946FFF7C5FC0346304A13602D4B1B68F7
:1012B0002C4A126811461846FEF752FF03461C4698
:1012C000294B1B68284A126811461846FEF748FF4A
:1012D000034619462046FFF701FD03461C46234BF3
:1012E0001B68224A126811461846FEF739FF03466A
:1012F00019462046FFF7F2FC03461846FFF748F967
:1013000002460B461046194608F0CAF902460B463B
:1013100010461946FFF78CFC0346154A136001235B
:101320000EE064232D221349134803F029FE0848D8
:1013300001F030FE0A2001F047F900F081FC0023A3
:1013400018460C37BD4690BD4E03002050030020C8
:10135000F40100203403002036030020380300206D
:101360000000D0403C030020400300204403002044
:1013700048030020789900089C02002080B59EB0A8
:1013800000AF786039601A23FB7364231E222F4953
:101390002F4803F0F5FD4FF47A730B222D492E48A8
:1013A00003F0EEFD4FF4FA7001F00EF92B4802F055
:1013B00086FD07F110037A682949184605F0A6FB57
:1013C00007F110031846FEF7C3FE03469AB207F171
:1013D00010014FF47A73204803F0D2FD4FF4FA70F5
:1013E00001F0F2F81D4802F06AFD3868FEF7B0FE21
:1013F00003469AB24FF47A733968174803F0C0FD78
:10140000C82001F0E1F807F10F014FF47A730122CF
:10141000114803F0B5FD00237B6709E04FF47A70B3
:1014200001F0D2F80D4802F04AFD7B6F01337B6773
:101430007B6F042BF2DD642318220A49044803F071
:101440009FFD00BF7837BD4680BD00BFA89900084A
:101450009C020020C8990008E402002048020020F5
:10146000D4990008E499000880B59CB000AF78607A
:1014700001F0A0F8F866214B1B78DBB2002B07D1F6
:101480001F4B1B68FA6ED31A47F22F52934231D981
:101490001A4B00221A701A4AFB6E136007F10800FB
:1014A0007B68184A642105F0FBFA07F10803184627
:1014B000FEF74EFE03469AB207F108016423124874
:1014C00003F05EFD01221021104801F006FC01220C
:1014D00020210E4801F001FC786800F0A1F90022FB
:1014E00010210A4801F0F9FB00222021074801F0F1
:1014F000F4FB00E000BF7037BD4680BD0000002057
:1015000054030020009A00089C02002000080140BB
:1015100080B500AF64232A222F49304803F030FD04
:101520004FF47A7305222E492E4803F029FD4FF41B
:10153000FA7001F049F82C4802F0C1FC4FF47A73BC
:1015400006222A49274803F01BFD4FF4FA7001F0E8
:101550003BF8254802F0B3FC4FF47A730622244985
:10156000204803F00DFD4FF4967001F02DF81E4851
:1015700002F0A5FC4FF47A7310221E49194803F0BB
:10158000FFFC4FF4FA7001F01FF8174802F097FCC7
:101590004FF47A730F221849124803F0F1FC4FF40C
:1015A0007A7001F011F8104802F089FC4FF47A7358
:1015B000132212490B4803F0E3FC4FF4FA7001F0D8
:1015C00003F8094802F07BFC64232C220C490348F1
:1015D00003F0D6FC00BF80BD249A00089C020020C6
:1015E000509A0008E402002048020020589A00089F
:1015F000609A0008689A00087C9A00088C9A000893
:10160000A09A000880B594B000AF78606949786806
:1016100005F0FBFAF864FB6C002B00F0C780FB6C54
:101620000B33FB640023BB6407F1200300221A6024
:101630005A609A60DA601A6107F10C0300221A609E
:101640005A609A60DA601A614E2387F84730452362
:1016500087F8463000233B640023FB633AE0FB6CD1
:101660001B782C2B03D1BB6C0133BB642FE0FB6CCC
:101670001B78202B2BD0BB6C052B0BD13B6C122B7A
:1016800008DC3B6C5A1C3A64FA6C127850333B44C9
:1016900003F8302CBB6C062B03D1FB6C1B7887F84E
:1016A0004730BB6C072B0BD1FB6B122B08DCFB6BA1
:1016B0005A1CFA63FA6C127850333B4403F8442CFA
:1016C000BB6C082B03D1FB6C1B7887F84630FB6C96
:1016D0000133FB64FB6C1B78002B07D0FB6C1B7881
:1016E0000D2B03D0FB6C1B780A2BB8D107F120031C
:1016F0001B78002B56D007F10C031B78002B51D020
:1017000007F12003184603F0A7FE02460B461046D9
:101710001946FFF78DFA0346BB6307F10C03184621
:1017200003F09AFE02460B4610461946FFF780FA70
:1017300003467B634FF00001B86BFFF71BFC0346C9
:10174000002B2BD14FF00001786BFFF713FC034601
:10175000002B23D1184B01221A70184ABB6B13605F
:10176000174A7B6B136097F84730532B05D1134B07
:101770001B6883F00043114A136097F84630572BDB
:1017800005D10F4B1B6883F000430D4A136064239F
:1017900028220C490C4803F0F3FB08E0064B00221A
:1017A0001A7004E0044B00221A7000E000BF5037AA
:1017B000BD4680BDD09A00084D0300202C030020B8
:1017C00030030020DC9A00089C02002080B5B2B0F3
:1017D00000AF3B46C8220021184605F0FCF90D4B2E
:1017E0001B685B6864230E220B490A4803F0C8FBA0
:1017F00039464FF4FA73C722064803F04CFC0748F9
:1018000002F05DFB3B461846FFF7FCFE00BFC83701
:10181000BD4680BDE4020020089B0008480200206D
:10182000B0B5C6B004AF07F58473A3F58273186032
:101830001D4B1B78DBB2002B1ED01C4B1B681846BF
:10184000FEF7A6FE04460D46194B1B681846FEF728
:101850009FFE02460B4607F58471A1F5827107F1E0
:101860000800CDE90223CDE900450B68114A4FF489
:10187000807105F015F90BE007F58473A3F5827309
:1018800007F108001B680C4A4FF4807105F008F955
:1018900007F1080319460948FFF770FD00BF07F577
:1018A0008477BD46B0BD00BF4D0300202C0300204F
:1018B00030030020189B00085C9B0008A49B0008D4
:1018C0002DE9B04FD4B00AAF00F01CFE00F07AF959
:1018D00000F09EFA00F0B4F900F046FA00F06EFA5B
:1018E00000F0DCF900F0F4F94FF47A7000F06CFECF
:1018F0009E4B07F580741D460FCD0FC40FCD0FC44E
:101900002B681A46228002341B0C237007F5807363
:101910001846FEF71DFC03469AB207F58071642352
:10192000934803F02DFB01220121924801F0D5F9E3
:1019300040F2DC5000F048FE002201218D4801F009
:10194000CCF9FFF77FFBFFF7E3FD8B4B07F1DC04DE
:101950001D460FCD0FC40FCD0FC42B68237007F1A8
:10196000DC031846FEF7F4FB03469AB207F1DC01EC
:1019700064237F4803F004FB0023C7F824310BE005
:101980004FF47A7000F020FE7C4802F098FAD7F805
:1019900024310133C7F82431D7F824310E2BEFDD81
:1019A00001221021764801F098F9C82000F00CFEC1
:1019B00000221021724801F090F9724B07F1B00437
:1019C0001D460FCD0FC40FCD0FC495E8070003C40B
:1019D000227007F1B0031846FEF7BAFB03469AB22D
:1019E00007F1B0016423624803F0CAFA664802F0C6
:1019F000D5FEFFF7E5FB00F0DDFD0246634B1B68FB
:101A0000D31AB3F5967F64D9614B1B78DBB2002BF8
:101A100008D107F19C035F4A1C4613460FCB07C44D
:101A200023801AE05A4B1B78DBB2012B08D107F157
:101A30009C03594A1C4613460FCB07C423800CE075
:101A4000534B1B78DBB2022B07D107F19C03534A9F
:101A50001C4613460FCB07C42380514B1B68184606
:101A6000FEF796FD04460D464E4B1B681846FEF7E2
:101A70008FFD804689464C4B1B681846FEF788FD53
:101A800082468B46494B1B681846FEF781FD02468D
:101A90000B46381D07F19C010891CDE90623CDE9DD
:101AA00004ABCDE90289CDE90045414A962104F015
:101AB000F7FF3B1D1846FEF74BFB03469AB2391D54
:101AC00032232B4803F05CFA00F074FD03462F4AE2
:101AD000136000F06FFD0246364B1B68D31A42F2CA
:101AE0001072934206D9FFF771FE00F063FD0346C2
:101AF000304A136002211F4801F0D8F80346002B3A
:101B000017D1322000F060FD02211A4801F0CEF812
:101B10000346002B0DD12848FFF7A6FC02E017482A
:101B200002F0CDF90221134801F0C0F80346002B62
:101B3000F5D0002387F8233172B600BF1F4B1B7806
:101B4000DBB2012B05D1012387F823311B4B002287
:101B50001A7062B600BF97F82331012B02D11848E2
:101B6000FFF782FC054802F0AAF942E7709C0008E2
:101B70009C020020000C0140949C000848020020B8
:101B800000080140B89C00085402002058030020BF
:101B90004F030020B49B0008C49B0008D49B00089E
:101BA0003C030020400300204403002048030020A1
:101BB000E49B00085C030020209C00084C030020EC
:101BC000409C000880B590B000AF07F118032822B0
:101BD0000021184604F0FFFF3B1D00221A605A60E6
:101BE0009A60DA601A610A23BB610123BB62102389
:101BF000FB6201233B6300237B6307F11803184654
:101C000002F06CF90346002B01D000F013FA0F2309
:101C10007B600023BB600023FB6000233B6100234B
:101C20007B613B1D0021184602F0DAFB0346002BC6
:101C300001D000F0FFF900BF4037BD4680BD000075
:101C400080B500AF124B134A1A60114B124A5A600A
:101C50000F4B00229A600E4B0022DA600C4B4FF4BF
:101C600080421A610A4B00225A61094B00229A6194
:101C7000074B0022DA61064B00221A62044801F089
:101C800045F80346002B01D000F0D4F900BF80BD19
:101C9000F401002000540040A086010080B500AF90
:101CA000094B0A4A1A60084B06225A60064B40F656
:101CB000FF729A60044802F0BEF80346002B01D080
:101CC00000F0B8F900BF80BD48020020003000409D
:101CD00080B586B000AF07F1080300221A605A6091
:101CE0009A60DA603B4600221A605A601D4B4FF042
:101CF00080421A601B4B41F63F725A60194B00221A
:101D00009A60184B0922DA60164B00221A61154BB3
:101D100000229A61134802F0F1FC0346002B01D027
:101D200000F088F94FF48053BB6007F108031946AF
:101D30000C4802F075FE0346002B01D000F07AF942
:101D400000233B6000237B603B461946054803F0B7
:101D500057F80346002B01D000F06CF900BF18378C
:101D6000BD4680BD5402002080B500AF114B124A21
:101D70001A60104B4FF4E1325A600E4B00229A6009
:101D80000C4B0022DA600B4B00221A61094B0C222B
:101D90005A61084B00229A61064B0022DA6105481D
:101DA00003F09EF80346002B01D000F043F900BF7A
:101DB00080BD00BF9C0200200038014080B500AF0C
:101DC000114B124A1A60104B4FF4E1325A600E4B1D
:101DD00000229A600C4B0022DA600B4B00221A6141
:101DE000094B0C225A61084B00229A61064B0022D3
:101DF000DA61054803F074F80346002B01D000F0C7
:101E000019F900BF80BD00BFE40200200048004077
:101E100080B586B000AF07F1080300221A605A604F
:101E20009A60DA60264B9B69254A43F0040393616C
:101E3000234B9B6903F004037B607B68204B9B6909
:101E40001F4A43F0080393611D4B9B6903F008038D
:101E50003B603B68002230211A4800F03EFF002220
:101E60000121194800F039FF3023BB600123FB60DA
:101E700000233B6102237B6107F1080319461148E7
:101E800000F0D4FC0123BB600123FB6000233B6115
:101E900002237B6107F1080319460B4800F0C6FCDA
:101EA0000223BB600023FB6001233B6107F10803B1
:101EB0001946054800F0BAFC00BF1837BD4680BD82
:101EC0000010024000080140000C0140000000002A
:101ED00080B584B000AF78607B681B68B3F1804F39
:101EE00040F08C804C4B1B68FB604C4B1B78DBB28A
:101EF000022B42D0022B00F38180002B02D0012B59
:101F00001CD07BE04FF00001F868FFF75BF8034658
:101F1000002B00D172E0F868FEF73AFB3AA3D3E950
:101F20000023FEF7FFFD0346002B00D166E03B4B8C
:101F300001221A703A4B00221A805FE0384B1B884E
:101F400001339AB2364B1A803649F868FFF73AF8EF
:101F50000346002B09D0314B02221A70304B00226D
:101F60001A80314B00221A8045E02D4B1B88642BD0
:101F700041D92A4B00221A703DE0294B1B880133BE
:101F80009AB2274B1A80264B1B88632B22D9244BED
:101F90001B88B3F5967F1DD2F868FEF7F9FA1CA3EB
:101FA000D3E90023FEF7DCFD0346002B22D0F868BE
:101FB000FEF7EEFA4FF033321C4BFEF7B3FD03464B
:101FC000002B00D116E0184B1B8801339AB2164B38
:101FD0001A800FE0124B1B88B3F5967F0DD3124B7E
:101FE0001B88A02B02D9124B01221A700B4B002226
:101FF0001A7002E001E000BF00E000BF00BF103730
:10200000BD4680BDAFF30080333333333333E33F1A
:102010009A9999999999E93F480300204F03002024
:102020006003002000002040620300203333F33FB0
:102030004C03002080B400AF72B600BF00BFFDE7C4
:1020400080B485B000AF154B9B69144A43F001037F
:102050009361124B9B6903F00103BB60BB680F4B9C
:10206000DB690E4A43F08053D3610C4BDB6903F00C
:1020700080537B607B680A4B5B68FB60FB6823F0E6
:10208000E063FB60FB6843F00073FB60044AFB689D
:10209000536000BF1437BD4680BC7047001002403B
:1020A0000000014080B588B000AF786007F11003F0
:1020B00000221A605A609A60DA607B681B68154AD1
:1020C000934223D1144B9B69134A43F00803936155
:1020D000114B9B6903F00803FB60FB68C0233B6165
:1020E00012237B610323FB6107F1100319460B48A0
:1020F00000F09CFB084BDB69074A43F40013D361F3
:10210000054BDB6903F40013BB60BB6800BF2037DD
:10211000BD4680BD0054004000100240000C01404C
:1021200080B582B000AF78607B681B680A4A934232
:102130000DD10A4BDB69094A23F40013D361402116
:10214000074800F0F7FC8021054800F0F3FC00BFD1
:102150000837BD4680BD00BF00540040001002405B
:10216000000C014080B584B000AF78607B681B68CC
:10217000B3F1804F13D10C4BDB690B4A43F00103E1
:10218000D361094BDB6903F00103FB60FB680022AC
:1021900001211C2000F013FB1C2000F02CFB00BFD1
:1021A0001037BD4680BD00BF0010024080B58AB028
:1021B00000AF786007F1180300221A605A609A6035
:1021C000DA607B681B68384A934232D1374B9B698F
:1021D000364A43F480439361344B9B6903F4804354
:1021E0007B617B69314B9B69304A43F00403936107
:1021F0002E4B9B6903F004033B613B694FF4007372
:10220000BB610223FB6103237B6207F118031946BC
:10221000274800F00BFB4FF48063BB610023FB6198
:1022200000233B6207F118031946214800F0FEFA2B
:1022300036E07B681B681F4A934231D11B4BDB6938
:102240001A4A43F48023D361184BDB6903F48023DB
:10225000FB60FB68154B9B69144A43F008039361CC
:10226000124B9B6903F00803BB60BB684FF48063AB
:10227000BB610223FB6103237B6207F1180319464C
:102280000D4800F0D3FA4FF40063BB610023FB61FB
:1022900000233B6207F118031946074800F0C6FA0D
:1022A00000BF2837BD4680BD003801400010024005
:1022B0000008014000480040000C014080B400AF1D
:1022C00000BFFDE780B400AF00BFFDE780B400AF02
:1022D00000BFFDE780B400AF00BFFDE780B400AFF2
:1022E00000BFFDE780B400AF00BFBD4680BC7047B3
:1022F00080B400AF00BFBD4680BC704780B400AF63
:1023000000BFBD4680BC704780B500AF00F040F90B
:1023100000BF80BD80B500AF024802F091FA00BF57
:1023200080BD00BF5402002080B400AF01231846D6
:10233000BD4680BC704780B582B000AF7860396020
:1023400004F0C4FC034616221A604FF0FF3318460F
:102350000837BD4680BD80B582B000AF78604FF0D1
:10236000FF317868FFF7E7FF00BFFDE780B586B073
:1023700000AFF860B9607A6000237B610AE0AFF3D8
:1023800000800146BB685A1CBA60CAB21A707B69E9
:1023900001337B617A697B689A42F0DB7B6818467F
:1023A0001837BD4680BD80B586B000AFF860B96013
:1023B0007A6000237B6109E0BB685A1CBA601B7815
:1023C0001846AFF300807B6901337B617A697B68D3
:1023D0009A42F1DB7B6818461837BD4680BD80B451
:1023E00083B000AF78604FF0FF3318460C37BD461E
:1023F00080BC704780B483B000AF786039603B68C0
:102400004FF400525A60002318460C37BD4680BC7A
:10241000704780B483B000AF7860012318460C3752
:10242000BD4680BC704780B485B000AFF860B9602D
:102430007A60002318461437BD4680BC7047000000
:1024400080B586B000AF7860144A154BD31A7B6113
:102450007B693B61134B1B68002B02D1114B124A65
:102460001A60104B1A687B6813443A699A4207D283
:1024700004F02CFC03460C221A604FF0FF3309E0F5
:10248000084B1B68FB60074B1A687B681344054ABE
:102490001360FB6818461837BD4680BD0050002009
:1024A0000004000064030020B804002080B400AFE2
:1024B00000BFBD4680BC7047FFF7F8FF0B480C49D2
:1024C0000C4A002302E0D458C4500433C4188C4290
:1024D000F9D3094A094C002301E013600432A242F7
:1024E000FBD304F0F9FBFFF7EBF970470000002085
:1024F000D801002058A10008D8010020B80400200D
:10250000FEE7000080B500AF084B1B68074A43F0A8
:1025100010031360032000F047F9002000F008F8D2
:10252000FFF78EFD0023184680BD00BF002002404B
:1025300080B582B000AF7860124B1A68124B1B78DE
:1025400019464FF47A73B3FBF1F3B2FBF3F3184679
:1025500000F05FF90346002B01D001230EE07B68F9
:102560000F2B0AD8002279684FF0FF3000F027F9CE
:10257000064A7B681360002300E0012318460837F1
:10258000BD4680BD040000200C0000200800002093
:1025900080B400AF054B1B781A46054B1B681344EB
:1025A000034A136000BFBD4680BC70470C0000208A
:1025B0006803002080B400AF024B1B681846BD467C
:1025C00080BC70476803002080B584B000AF78609D
:1025D000FFF7F0FFB8607B68FB60FB68B3F1FF3F7B
:1025E00005D00A4B1B781A46FB681344FB6000BFFA
:1025F000FFF7E0FF0246BB68D31AFA689A42F7D8A1
:1026000000BF00BF1037BD4680BD00BF0C000020DA
:1026100080B485B000AF78607B6803F00703FB608F
:102620000C4BDB68BB60BA684FF6FF031340BB601E
:10263000FB681A02BB68134343F0BF6343F40033E3
:10264000BB60044ABB68D36000BF1437BD4680BC82
:10265000704700BF00ED00E080B400AF044BDB68C2
:102660001B0A03F007031846BD4680BC704700BF35
:1026700000ED00E080B483B000AF0346FB7197F932
:102680000730002B0BDBFB7903F01F02064997F99B
:1026900007305B09012000FA02F241F8232000BF55
:1026A0000C37BD4680BC704700E100E080B483B0C9
:1026B00000AF03463960FB7197F90730002B0ADB46
:1026C0003B68DAB20C4997F907301201D2B20B44D9
:1026D00083F800230AE03B68DAB20849FB7903F08B
:1026E0000F03043B1201D2B20B441A7600BF0C3721
:1026F000BD4680BC704700BF00E100E000ED00E097
:1027000080B489B000AFF860B9607A60FB6803F00C
:102710000703FB61FB69C3F10703042B28BF0423F4
:10272000BB61FB690433062B02D9FB69033B00E064
:1027300000237B614FF0FF32BB6902FA03F3DA43F7
:10274000BB681A407B699A404FF0FF317B6901FA00
:1027500003F3D9437B680B40134318462437BD4627
:1027600080BC704780B582B000AF78607B68013B69
:10277000B3F1807F01D301230FE00A4A7B68013B5C
:1027800053600F214FF0FF30FFF790FF054B002201
:102790009A60044B07221A60002318460837BD468A
:1027A00080BD00BF10E000E080B582B000AF78606F
:1027B0007868FFF72DFF00BF0837BD4680BD80B5A4
:1027C00086B000AF0346B9607A60FB7300237B617B
:1027D000FFF742FF78617A68B9687869FFF790FF80
:1027E000024697F90F3011461846FFF75FFF00BF0A
:1027F0001837BD4680BD80B582B000AF0346FB717F
:1028000097F907301846FFF735FF00BF0837BD4678
:1028100080BD80B582B000AF78607868FFF7A2FF16
:10282000034618460837BD4680BD000080B48BB013
:1028300000AF7860396000237B6200233B6269E16E
:1028400001227B6A02FA03F3FB613B681B68FA69A9
:102850001340BB61BA69FB699A4240F058813B68FA
:102860005B689A4A93425ED0984A934275D8984AD8
:10287000934258D0964A93426FD8964A934252D088
:10288000944A934269D8944A93424CD0924A9342D4
:1028900063D8924A934246D0904A93425DD8122B15
:1028A0002AD8122B59D801A252F823F02729000860
:1028B0000129000813290008552900085B29000890
:1028C0005B2900085B2900085B2900085B290008D8
:1028D0005B2900085B2900085B2900085B290008C8
:1028E0005B2900085B2900085B2900085B290008B8
:1028F000092900081D290008794A934213D02CE0C9
:102900003B68DB683B6229E03B68DB6804333B6281
:1029100024E03B68DB6808333B621FE03B68DB6810
:102920000C333B621AE03B689B68002B02D1042306
:102930003B6213E03B689B68012B05D108233B6297
:102940007B68FA691A6109E008233B627B68FA69CF
:102950005A6103E000233B6200E000BFBB69FF2B2C
:1029600001D87B6801E07B6804337B61BB69FF2B86
:1029700002D87B6A9B0002E07B6A083B9B003B61BC
:102980007B691A680F213B6901FA03F3DB431A40A4
:10299000396A3B6901FA03F31A437B691A603B68A1
:1029A0005B6803F08053002B00F0B1804D4B9B69B6
:1029B0004C4A43F0010393614A4B9B6903F00103C6
:1029C000BB60BB68484A7B6A9B08023352F82330DD
:1029D000FB607B6A03F003039B000F2202FA03F300
:1029E000DB43FA681340FB607B68404A934213D094
:1029F0007B683F4A93420DD07B683E4A934207D0A2
:102A00007B683D4A934201D1032306E0042304E09E
:102A1000022302E0012300E000237A6A02F00302AD
:102A200092009340FA681343FB602F497B6A9B082E
:102A30000233FA6841F823203B685B6803F4801393
:102A4000002B06D02D4B9A682C49BB6913438B6031
:102A500006E02A4B9A68BB69DB43284913408B6028
:102A60003B685B6803F40013002B06D0234BDA6845
:102A70002249BB691343CB6006E0204BDA68BB698F
:102A8000DB431E491340CB603B685B6803F40033B3
:102A9000002B06D0194B5A681849BB6913434B6089
:102AA00006E0164B5A68BB69DB43144913404B6080
:102AB0003B685B6803F48033002B21D00F4B1A680E
:102AC0000E49BB6913430B6021E000BF00003210C8
:102AD0000000311000002210000021100000121030
:102AE00000001110001002400000014000080140E9
:102AF000000C01400010014000140140000401409E
:102B00000B4B1A68BB69DB43094913400B607B6AB6
:102B100001337B623B681A687B6A22FA03F3002B5D
:102B20007FF48EAE00BF00BF2C37BD4680BC70471F
:102B30000004014080B489B000AF786039600023A0
:102B4000FB619AE00122FB6902FA03F33A68134041
:102B5000BB61BB69002B00F08D804E4AFB699B086E
:102B6000023352F823307B61FB6903F003039B00BF
:102B70000F2202FA03F37A6913407B617B68464AAD
:102B8000934213D07B68454A93420DD07B68444AF8
:102B9000934207D07B68434A934201D1032306E066
:102BA000042304E0022302E0012300E00023FA6989
:102BB00002F00302920093407A699A4232D13A4B72
:102BC0001A68BB69DB43384913400B60364B5A68BF
:102BD000BB69DB43344913404B60334BDA68BB6954
:102BE000DB4331491340CB602F4B9A68BB69DB4311
:102BF0002D4913408B60FB6903F003039B000F22F8
:102C000002FA03F37B61234AFB699B08023352F803
:102C100023107B69DA431F48FB699B080A40023393
:102C200040F82320BB69FF2B01D87B6801E07B685B
:102C300004333B61BB69FF2B02D8FB699B0002E0B8
:102C4000FB69083B9B00FB603B691A680F21FB682E
:102C500001FA03F3DB431A400421FB6801FA03F392
:102C60001A433B691A607B68DA68BB69DB431A4028
:102C70007B68DA60FB690133FB613A68FB6922FA21
:102C800003F3002B7FF45EAF00BF00BF2437BD46C7
:102C900080BC70470000014000080140000C01406A
:102CA00000100140001401400004014080B485B0D0
:102CB00000AF78600B467B807B689A687B88134006
:102CC000002B02D00123FB7301E00023FB73FB7B8D
:102CD00018461437BD4680BC704780B483B000AF3F
:102CE00078600B467B8013467B707B78002B03D08B
:102CF0007A887B681A6103E07B881A047B681A6112
:102D000000BF0C37BD4680BC7047000080B584B062
:102D100000AF78607B68002B01D101232BE17B6839
:102D200093F83D30DBB2002B06D17B68002283F89C
:102D30003C207868FFF7B6F97B68242283F83D20B1
:102D40007B681B681A687B681B6822F001021A60A6
:102D50007B681B681A687B681B6842F400421A6033
:102D60007B681B681A687B681B6822F400421A6043
:102D700001F07EFCF8607B685B68814A934207D86B
:102D8000FB68804A934294BF01230023DBB206E034
:102D9000FB687D4A934294BF01230023DBB2002BE2
:102DA00001D00123E7E0FB68784AA2FB03239B0CD8
:102DB000BB607B681B685B6823F03F017B681B6816
:102DC000BA680A435A607B681B681B6A23F03F019C
:102DD0007B685B686A4A934202D8BB68013309E0AA
:102DE000BB684FF4967202FB03F3694AA2FB03230C
:102DF0009B0901337A6812680B4313627B681B6876
:102E0000DB6923F44F4222F0FF027B685B685C4978
:102E10008B4219D8FB68591E7B685B685B00B1FB6D
:102E2000F3F3591C40F6FC730B40002B0AD0FB68EF
:102E3000591E7B685B685B00B1FBF3F30133C3F39E
:102E40000B0351E004234FE07B689B68002B11D1FA
:102E5000FB68581E7B6859680B465B000B44B0FB4F
:102E6000F3F30133C3F30B03002B0CBF0123002347
:102E7000DBB212E0FB68581E7B6859680B469B006A
:102E80000B4499000B44B0FBF3F30133C3F30B0382
:102E9000002B0CBF01230023DBB2002B01D0012348
:102EA00022E07B689B68002B0ED1FB68581E7B6874
:102EB00059680B465B000B44B0FBF3F30133C3F3DB
:102EC0000B0343F400430FE0FB68581E7B6859680E
:102ED0000B469B000B4499000B44B0FBF3F301330A
:102EE000C3F30B0343F44043796809681343CB6190
:102EF0007B681B681B6823F0C0017B68DA697B680C
:102F00001B6A1A437B681B680A431A607B681B684C
:102F10009B6823F4034323F0FF037A6811697A68FE
:102F2000D26811437A6812680B4393607B681B6810
:102F3000DB6823F0FF017B685A697B689B691A4351
:102F40007B681B680A43DA607B681B681A687B68C9
:102F50001B6842F001021A607B6800221A647B68D9
:102F6000202283F83D207B6800221A637B680022C0
:102F700083F83E20002318461037BD4680BD00BFB1
:102F8000A08601007F841E00FF083D0083DE1B43F6
:102F9000D34D621080B582B000AF78607B68002BA3
:102FA00001D1012321E07B68242283F83D207B6846
:102FB0001B681A687B681B6822F001021A60786837
:102FC000FFF7AEF87B6800221A647B68002283F862
:102FD0003D207B6800221A637B68002283F83E2034
:102FE0007B68002283F83C20002318460837BD4642
:102FF00080BD000080B588B002AFF8600846114679
:103000001A4603467B810B463B811346FB80FFF744
:10301000D1FA7861FB6893F83D30DBB2202B40F0A9
:10302000D9807B690093192301226D49F86800F06B
:10303000CDFC0346002B01D00223CCE0FB6893F8C3
:103040003C30012B01D10223C5E0FB68012283F84B
:103050003C20FB681B681B6803F00103012B07D0B1
:10306000FB681B681A68FB681B6842F001021A6063
:10307000FB681B681A68FB681B6822F400621A6010
:10308000FB68212283F83D20FB68402283F83E2024
:10309000FB6800221A64FB683A6A5A62FB68BA8CC1
:1030A0005A85FB685B8D9AB2FB681A85FB684D4AAE
:1030B000DA62F8883A8979897B690193BB6A00935F
:1030C0000346F86800F004FB0346002B52D00123AE
:1030D00081E07A69B96AF86800F092FD0346002B36
:1030E0000DD0FB681B6C042B07D1FB681B681A68AA
:1030F000FB681B6842F400721A6001236BE0FB68F6
:103100005B6A1A78FB681B681A61FB685B6A5A1C69
:10311000FB685A62FB681B8D013B9AB2FB681A85FB
:10312000FB685B8D9BB2013B9AB2FB685A85FB68DA
:103130001B685B6903F00403042B1BD1FB681B8D28
:10314000002B17D0FB685B6A1A78FB681B681A6152
:10315000FB685B6A5A1CFB685A62FB681B8D013B6B
:103160009AB2FB681A85FB685B8D9BB2013B9AB2F1
:10317000FB685A85FB681B8D002BAAD17A69B96A56
:10318000F86800F085FD0346002B0DD0FB681B6C32
:10319000042B07D1FB681B681A68FB681B6842F4A4
:1031A00000721A60012316E0FB681B681A68FB684E
:1031B0001B6842F400721A60FB68202283F83D20ED
:1031C000FB68002283F83E20FB68002283F83C2045
:1031D000002300E0022318461837BD4680BD00BF1B
:1031E000020010000000FFFF80B58CB002AFF86055
:1031F000084611461A4603467B810B463B8113461F
:10320000FB8000233B62FFF7D5F97862FB6893F8F7
:103210003D30DBB2202B40F050827B6A00931923B3
:1032200001228249F86800F0D1FB0346002B01D04F
:10323000022343E2FB6893F83C30012B01D10223C7
:103240003CE2FB68012283F83C20FB681B681B689A
:1032500003F00103012B07D0FB681B681A68FB68A9
:103260001B6842F001021A60FB681B681A68FB6861
:103270001B6822F400621A60FB68222283F83D205A
:10328000FB68402283F83E20FB6800221A64FB683A
:103290003A6B5A62FB68BA8E5A85FB685B8D9AB2AC
:1032A000FB681A85FB68624ADA62F8883A8979898C
:1032B0007B6A0193BB6B00930346F86800F09EFAAB
:1032C0000346002B01D00123F8E1FB681B8D002B86
:1032D00013D10023FB61FB681B685B69FB61FB6822
:1032E0001B689B69FB61FB69FB681B681A68FB68CC
:1032F0001B6842F400721A60CCE1FB681B8D012B45
:103300001ED1FB681B681A68FB681B6822F4806288
:103310001A6072B600BF0023BB61FB681B685B6963
:10332000BB61FB681B689B69BB61BB69FB681B6871
:103330001A68FB681B6842F400721A6062B635E0D6
:10334000FB681B8D022B1ED1FB681B681A68FB688B
:103350001B6842F400621A6072B600BF00237B61F2
:10336000FB681B685B697B61FB681B689B697B6111
:103370007B69FB681B681A68FB681B6822F4806223
:103380001A6062B612E0FB681B681A68FB681B686B
:1033900042F480621A6000233B61FB681B685B6932
:1033A0003B61FB681B689B693B613B6972E1FB68A1
:1033B0001B8D032B00F21F81FB681B8D012B23D17A
:1033C0007A6AB96BF86800F0ABFC0346002B01D0B9
:1033D000012373E1FB681B681A69FB685B6AD2B260
:1033E0001A70FB685B6A5A1CFB685A62FB681B8D8B
:1033F000013B9AB2FB681A85FB685B8D9BB2013B6F
:103400009AB2FB685A8545E1FB681B8D022B52D1AD
:103410007B6A0093BB6B00220649F86800F0D6FA7D
:103420000346002B08D0012348E100BF0200100032
:103430000000FFFF0400010072B600BFFB681B68BC
:103440001A68FB681B6842F400721A60FB681B680C
:103450001A69FB685B6AD2B21A70FB685B6A5A1C15
:10346000FB685A62FB681B8D013B9AB2FB681A85A8
:10347000FB685B8D9BB2013B9AB2FB685A8562B6D2
:1034800000BFFB681B681A69FB685B6AD2B21A70DE
:10349000FB685B6A5A1CFB685A62FB681B8D013B28
:1034A0009AB2FB681A85FB685B8D9BB2013B9AB2AE
:1034B000FB685A85EEE07B6A0093BB6B0022814972
:1034C000F86800F083FA0346002B01D00123F5E0F1
:1034D000FB681B681A68FB681B6822F480621A602C
:1034E00072B600BFFB681B681A69FB685B6AD2B2E0
:1034F0001A70FB685B6A5A1CFB685A62FB681B8D7A
:10350000013B9AB2FB681A85FB685B8D9BB2013B5D
:103510009AB2FB685A856C4B1B68DB086B4AA2FBAE
:1035200003231A0A13469B001344DA00D31A3B62A2
:103530003B6A013B3B623B6A002B18D1FB680022CF
:103540001A63FB68202283F83D20FB68002283F881
:103550003E20FB681B6C43F02002FB681A6462B6D5
:1035600000BFFB68002283F83C200123A6E0FB6833
:103570001B685B6903F00403042BD9D1FB681B684B
:103580001A68FB681B6842F400721A60FB681B68CB
:103590001A69FB685B6AD2B21A70FB685B6A5A1CD4
:1035A000FB685A62FB681B8D013B9AB2FB681A8567
:1035B000FB685B8D9BB2013B9AB2FB685A8562B691
:1035C00000BFFB681B681A69FB685B6AD2B21A709D
:1035D000FB685B6A5A1CFB685A62FB681B8D013BE7
:1035E0009AB2FB681A85FB685B8D9BB2013B9AB26D
:1035F000FB685A854EE07A6AB96BF86800F090FB78
:103600000346002B01D0012358E0FB681B681A69B0
:10361000FB685B6AD2B21A70FB685B6A5A1CFB6873
:103620005A62FB681B8D013B9AB2FB681A85FB68E6
:103630005B8D9BB2013B9AB2FB685A85FB681B68A5
:103640005B6903F00403042B24D1FB681B8D032B5F
:1036500007D1FB681B681A68FB681B6822F480624C
:103660001A60FB681B681A69FB685B6AD2B21A7041
:10367000FB685B6A5A1CFB685A62FB681B8D013B46
:103680009AB2FB681A85FB685B8D9BB2013B9AB2CC
:10369000FB685A85FB681B8D002B7FF488AEFB68A6
:1036A000202283F83D20FB68002283F83E20FB683F
:1036B000002283F83C20002300E00223184628372C
:1036C000BD4680BD040001000400002089B5F81447
:1036D00080B588B002AFF860084611461A46034626
:1036E0007B810B463B811346FB80FB681B681A6895
:1036F000FB681B6842F480721A607B6A00933B6A25
:1037000000224FF00111F86800F060F90346002B29
:103710000DD0FB681B681B6803F48073B3F5807FD2
:1037200003D1FB684FF400721A6403235FE07B89C6
:10373000DBB21A46FB681B6802F0FE021A617B6A64
:103740003A6A2D49F86800F0BBF90346002B01D016
:1037500001234CE000237B61FB681B685B697B6194
:10376000FB681B689B697B617B697A6A396AF868C8
:1037700000F046FA0346002B0DD0FB681B6C042BAF
:1037800007D1FB681B681A68FB681B6842F400726B
:103790001A6001232BE0FB88012B05D13B89DAB2AB
:1037A000FB681B681A6121E03B891B0A9BB2DAB2F5
:1037B000FB681B681A617A6A396AF86800F020FAB7
:1037C0000346002B0DD0FB681B6C042B07D1FB6854
:1037D0001B681A68FB681B6842F400721A600123B8
:1037E00005E03B89DAB2FB681B681A6100231846C2
:1037F0001837BD4680BD00BF0200010080B588B00B
:1038000002AFF860084611461A4603467B810B4614
:103810003B811346FB80FB681B681A68FB681B68CA
:1038200042F480621A60FB681B681A68FB681B68B8
:1038300042F480721A607B6A00933B6A00224FF068
:103840000111F86800F0C2F80346002B0DD0FB68A8
:103850001B681B6803F48073B3F5807F03D1FB689A
:103860004FF400721A640323AAE07B89DBB21A4684
:10387000FB681B6802F0FE021A617B6A3A6A5249D1
:10388000F86800F01DF90346002B01D0012397E0F2
:1038900000237B61FB681B685B697B61FB681B68BD
:1038A0009B697B617B697A6A396AF86800F0A8F9DC
:1038B0000346002B0DD0FB681B6C042B07D1FB6863
:1038C0001B681A68FB681B6842F400721A600123C7
:1038D00076E0FB88012B05D13B89DAB2FB681B68D7
:1038E0001A6121E03B891B0A9BB2DAB2FB681B68B4
:1038F0001A617A6A396AF86800F082F90346002B87
:103900000DD0FB681B6C042B07D1FB681B681A6881
:10391000FB681B6842F400721A60012350E03B8987
:10392000DAB2FB681B681A617A6A396AF86800F0D3
:1039300067F90346002B0DD0FB681B6C042B07D1E5
:10394000FB681B681A68FB681B6842F400721A6007
:10395000012335E0FB681B681A68FB681B6842F4AA
:1039600080721A607B6A00933B6A00224FF001115B
:10397000F86800F02BF80346002B0DD0FB681B689D
:103980001B6803F48073B3F5807F03D1FB684FF4A9
:1039900000721A64032313E07B89DBB243F0010356
:1039A000DAB2FB681B681A617B6A3A6A0649F868F2
:1039B00000F086F80346002B01D0012300E000232D
:1039C00018461837BD4680BD0200010080B584B09E
:1039D00000AFF860B9603B601346FB7148E03B689C
:1039E000B3F1FF3F44D0FEF7E5FD0246BB69D31AB1
:1039F0003A689A4202D33B68002B39D1BB681B0C52
:103A0000DBB2012B0DD1FB681B685B69DA43BB6835
:103A100013409BB2002B0CBF01230023DBB21A46DC
:103A20000CE0FB681B689B69DA43BB6813409BB2E0
:103A3000002B0CBF01230023DBB21A46FB799A420C
:103A400016D1FB6800221A63FB68202283F83D2010
:103A5000FB68002283F83E20FB681B6C43F02002C9
:103A6000FB681A64FB68002283F83C20012323E0F2
:103A7000BB681B0CDBB2012B0DD1FB681B685B69BB
:103A8000DA43BB6813409BB2002B0CBF0123002319
:103A9000DBB21A460CE0FB681B689B69DA43BB6823
:103AA00013409BB2002B0CBF01230023DBB21A464C
:103AB000FB799A4293D0002318461037BD4680BD4B
:103AC00080B584B000AFF860B9607A603B6071E0A7
:103AD000FB681B685B6903F48063B3F5806F23D1D7
:103AE000FB681B681A68FB681B6842F400721A6066
:103AF000FB681B686FF480625A61FB6800221A63DE
:103B0000FB68202283F83D20FB68002283F83E20DA
:103B1000FB681B6C43F00402FB681A64FB6800221C
:103B200083F83C20012367E07B68B3F1FF3F41D07D
:103B3000FEF740FD02463B68D31A7A689A4202D3E8
:103B40007B68002B36D1BB681B0CDBB2012B0CD180
:103B5000FB681B685B69DA43BB6813409BB2002BB0
:103B600014BF01230023DBB20BE0FB681B689B69D9
:103B7000DA43BB6813409BB2002B14BF0123002320
:103B8000DBB2002B16D0FB6800221A63FB682022F0
:103B900083F83D20FB68002283F83E20FB681B6C05
:103BA00043F02002FB681A64FB68002283F83C2083
:103BB000012321E0BB681B0CDBB2012B0CD1FB689D
:103BC0001B685B69DA43BB6813409BB2002B14BFD0
:103BD00001230023DBB20BE0FB681B689B69DA431F
:103BE000BB6813409BB2002B14BF01230023DBB240
:103BF000002B7FF46DAF002318461037BD4680BD03
:103C000080B584B000AFF860B9607A6034E0F868DD
:103C100000F0E3F80346002B01D0012334E0BB6839
:103C2000B3F1FF3F28D0FEF7C5FC02467B68D31AEC
:103C3000BA689A4202D3BB68002B1DD1FB681B688F
:103C40005B6903F08003802B16D0FB6800221A63A7
:103C5000FB68202283F83D20FB68002283F83E2089
:103C6000FB681B6C43F02002FB681A64FB680022AF
:103C700083F83C20012307E0FB681B685B6903F0C5
:103C80008003802BC3D1002318461037BD4680BD6A
:103C900080B584B000AFF860B9607A6034E0F8684D
:103CA00000F09BF80346002B01D0012334E0BB68F1
:103CB000B3F1FF3F28D0FEF77DFC02467B68D31AA4
:103CC000BA689A4202D3BB68002B1DD1FB681B68FF
:103CD0005B6903F00403042B16D0FB6800221A630F
:103CE000FB68202283F83D20FB68002283F83E20F9
:103CF000FB681B6C43F02002FB681A64FB6800221F
:103D000083F83C20012307E0FB681B685B6903F034
:103D10000403042BC3D1002318461037BD4680BDD1
:103D200080B584B000AFF860B9607A6049E0FB68A4
:103D30001B685B6903F01003102B19D1FB681B682B
:103D40006FF010025A61FB6800221A63FB682022A0
:103D500083F83D20FB68002283F83E20FB681A6C44
:103D6000FB681A64FB68002283F83C20012330E0E2
:103D7000FEF720FC02467B68D31ABA689A4202D347
:103D8000BB68002B1DD1FB681B685B6903F0400317
:103D9000402B16D0FB6800221A63FB68202283F8B0
:103DA0003D20FB68002283F83E20FB681B6C43F03B
:103DB0002002FB681A64FB68002283F83C20012380
:103DC00007E0FB681B685B6903F04003402BAED142
:103DD000002318461037BD4680BD80B483B000AFC5
:103DE00078607B681B685B6903F48063B3F5806F60
:103DF0001BD17B681B686FF480625A617B6800226C
:103E00001A637B68202283F83D207B68002283F8B8
:103E10003E207B681B6C43F004027B681A647B685D
:103E2000002283F83C20012300E0002318460C37D1
:103E3000BD4680BC704780B584B000AF78607B68B9
:103E4000002B01D1012336E07B681B684CF6CC4285
:103E50001A607B681B6845F255521A607B681B68C4
:103E60007A6852685A607B681B687A6892689A60C0
:103E7000FEF7A0FBF86011E0FEF79CFB0246FB6832
:103E8000D31A41F23C32934208D97B681B68DB6845
:103E900003F00303002B01D003230CE07B681B68B5
:103EA000DB6803F00303002BE6D17B681B684AF64E
:103EB000AA221A60002318461037BD4680BD80B480
:103EC00083B000AF78607B681B684AF6AA221A604C
:103ED000002318460C37BD4680BC704780B586B0BD
:103EE00000AF78607B68002B01D1012372E27B6810
:103EF0001B6803F00103002B00F08780924B5B6886
:103F000003F00C03042B0CD08F4B5B6803F00C0305
:103F1000082B12D18C4B5B6803F48033B3F5803FE0
:103F20000BD1894B1B6803F40033002B6CD07B68EA
:103F30005B68002B68D101234CE27B685B68B3F5BA
:103F4000803F06D1804B1B687F4A43F48033136067
:103F50002EE07B685B68002B0CD17B4B1B687A4A98
:103F600023F480331360784B1B68774A23F4802353
:103F700013601DE07B685B68B3F5A02F0CD1724B1A
:103F80001B68714A43F4802313606F4B1B686E4AB1
:103F900043F4803313600BE06B4B1B686A4A23F4D5
:103FA00080331360684B1B68674A23F480231360D7
:103FB0007B685B68002B13D0FEF7FCFA386108E0E1
:103FC000FEF7F8FA02463B69D31A642B01D90323A2
:103FD00000E25D4B1B6803F40033002BF0D014E0CB
:103FE000FEF7E8FA386108E0FEF7E4FA02463B69BA
:103FF000D31A642B01D90323ECE1534B1B6803F460
:104000000033002BF0D100E000BF7B681B6803F099
:104010000203002B63D04C4B5B6803F00C03002BB6
:104020000BD0494B5B6803F00C03082B1CD1464BAB
:104030005B6803F48033002B16D1434B1B6803F0FD
:104040000203002B05D07B681B69012B01D00123E3
:10405000C0E13D4B1B6823F0F8027B685B69DB0025
:10406000394913430B603AE07B681B69002B20D071
:10407000364B01221A60FEF79DFA386108E0FEF720
:1040800099FA02463B69D31A022B01D90323A1E115
:104090002D4B1B6803F00203002BF0D02A4B1B684A
:1040A00023F0F8027B685B69DB00274913430B6050
:1040B00015E0264B00221A60FEF77CFA386108E012
:1040C000FEF778FA02463B69D31A022B01D9032383
:1040D00080E11D4B1B6803F00203002BF0D17B68CD
:1040E0001B6803F00803002B3AD07B689B69002B08
:1040F00019D0174B01221A60FEF75CFA386108E00C
:10410000FEF758FA02463B69D31A022B01D9032362
:1041100060E10D4B5B6A03F00203002BF0D001203D
:1041200000F0CEFA1CE00A4B00221A60FEF742FAB9
:1041300038610FE0FEF73EFA02463B69D31A022BC4
:1041400008D9032346E100BF0010024000004242AC
:1041500080044242924B5B6A03F00203002BE9D1D8
:104160007B681B6803F00403002B00F0A68000238B
:10417000FB758B4BDB6903F08053002B0DD1884B13
:10418000DB69874A43F08053D361854BDB6903F0D9
:104190008053BB60BB680123FB75824B1B6803F433
:1041A0008073002B18D17F4B1B687E4A43F48073C9
:1041B0001360FEF7FFF9386108E0FEF7FBF90246ED
:1041C0003B69D31A642B01D9032303E1754B1B68A8
:1041D00003F48073002BF0D07B68DB68012B06D1E1
:1041E0006F4B1B6A6E4A43F0010313622DE07B683C
:1041F000DB68002B0CD16A4B1B6A694A23F0010370
:104200001362674B1B6A664A23F0040313621CE0C7
:104210007B68DB68052B0CD1614B1B6A604A43F05D
:10422000040313625E4B1B6A5D4A43F00103136291
:104230000BE05B4B1B6A5A4A23F001031362584B95
:104240001B6A574A23F0040313627B68DB68002B68
:1042500015D0FEF7AFF938610AE0FEF7ABF9024678
:104260003B69D31A41F28832934201D90323B1E06A
:104270004B4B1B6A03F00203002BEED014E0FEF759
:1042800099F938610AE0FEF795F902463B69D31ABD
:1042900041F28832934201D903239BE0404B1B6AD1
:1042A00003F00203002BEED1FB7D012B05D13C4B2B
:1042B000DB693B4A23F08053D3617B68DB69002BC9
:1042C00000F08780364B5B6803F00C03082B61D04D
:1042D0007B68DB69022B46D1334B00221A60FEF764
:1042E00069F9386108E0FEF765F902463B69D31ABF
:1042F000022B01D903236DE0294B1B6803F00073E7
:10430000002BF0D17B681B6AB3F5803F08D1244BAA
:104310005B6823F400327B689B68214913434B6040
:104320001F4B5B6823F474127B68196A7B685B6AB5
:104330000B431B4913434B601B4B01221A60FEF7D2
:1043400039F9386108E0FEF735F902463B69D31ABE
:10435000022B01D903233DE0114B1B6803F00073CE
:10436000002BF0D035E0104B00221A60FEF722F946
:10437000386108E0FEF71EF902463B69D31A022BAA
:1043800001D9032326E0064B1B6803F00073002BC2
:10439000F0D11EE07B68DB69012B07D1012319E016
:1043A0000010024000700040600042420B4B5B680E
:1043B000FB60FB6803F480327B681B6A9A4206D17B
:1043C000FB6803F470127B685B6A9A4201D0012398
:1043D00000E0002318461837BD4680BD001002409B
:1043E00080B584B000AF786039607B68002B01D164
:1043F0000123D0E06A4B1B6803F007033A689A4236
:1044000010D9674B1B6823F0070265493B681343CB
:104410000B60634B1B6803F007033A689A4201D0B4
:104420000123B8E07B681B6803F00203002B20D057
:104430007B681B6803F00403002B05D0594B5B68B5
:10444000584A43F4E06353607B681B6803F0080339
:10445000002B05D0534B5B68524A43F460535360C2
:10446000504B5B6823F0F0027B689B684D49134317
:104470004B607B681B6803F00103002B40D07B6816
:104480005B68012B07D1474B1B6803F40033002BFB
:1044900015D101237FE07B685B68022B07D1414B7C
:1044A0001B6803F00073002B09D1012373E03D4B1F
:1044B0001B6803F00203002B01D101236BE0394B91
:1044C0005B6823F003027B685B68364913434B60EB
:1044D000FEF770F8F8600AE0FEF76CF80246FB6839
:1044E000D31A41F28832934201D9032353E02D4B72
:1044F0005B6803F00C027B685B689B009A42EBD11F
:10450000274B1B6803F007033A689A4210D2244BEA
:104510001B6823F0070222493B6813430B60204BC2
:104520001B6803F007033A689A4201D0012332E086
:104530007B681B6803F00403002B08D0194B5B68F1
:1045400023F4E0627B68DB68164913434B607B68A9
:104550001B6803F00803002B09D0124B5B6823F49F
:1045600060527B681B69DB000E4913434B6000F00F
:1045700021F802460B4B5B681B0903F00F030A4945
:10458000CB5C22FA03F3094A1360094B1B681846F7
:10459000FDF7CEFF002318461037BD4680BD00BF93
:1045A0000020024000100240E49C000804000020AB
:1045B0000800002080B487B000AF0023FB60002318
:1045C000BB6000237B6100237B6000233B611E4BAB
:1045D0005B68FB60FB6803F00C03042B02D0082B24
:1045E00003D027E0194B3B6127E0FB689B0C03F0ED
:1045F0000F03174AD35C7B60FB6803F48033002B06
:1046000010D0114B5B685B0C03F00103114AD35CC3
:10461000BB607B680D4A03FB02F2BB68B2FBF3F39D
:104620007B6104E07B680C4A02FB03F37B617B69DE
:104630003B6102E0054B3B6100BF3B6918461C37FC
:10464000BD4680BC704700BF0010024000127A00D7
:10465000FC9C00080C9D000800093D0080B400AFE0
:10466000024B1B681846BD4680BC70470400002002
:1046700080B500AFFFF7F2FF0246054B5B681B0AEF
:1046800003F007030349CB5C22FA03F3184680BD0D
:1046900000100240F49C000880B500AFFFF7DEFF79
:1046A0000246054B5B68DB0A03F007030349CB5C5A
:1046B00022FA03F3184680BD00100240F49C000863
:1046C00080B485B000AF78600A4B1B680A4AA2FB31
:1046D00003235B0A7A6802FB03F3FB6000BFFB68FD
:1046E0005A1EFA60002BF9D100BF00BF1437BD4637
:1046F00080BC704704000020D34D621080B582B0AA
:1047000000AF78607B68002B01D1012341E07B681A
:1047100093F83D30DBB2002B06D17B68002283F892
:104720003C207868FDF71EFD7B68022283F83D205F
:104730007B681A687B6804331946104600F05CFAFF
:104740007B68012283F846207B68012283F83E20A3
:104750007B68012283F83F207B68012283F8402098
:104760007B68012283F841207B68012283F8422084
:104770007B68012283F843207B68012283F8442070
:104780007B68012283F845207B68012283F83D2065
:10479000002318460837BD4680BD000080B485B0B0
:1047A00000AF78607B6893F83D30DBB2012B01D01D
:1047B00001233AE07B68022283F83D207B681B6876
:1047C000DA687B681B6842F00102DA607B681B686C
:1047D000184A93420ED07B681B68B3F1804F09D012
:1047E0007B681B68144A934204D07B681B68134A99
:1047F000934211D17B681B689B6803F00703FB6041
:10480000FB68062B10D07B681B681A687B681B68E6
:1048100042F001021A6007E07B681B681A687B6837
:104820001B6842F001021A60002318461437BD4687
:1048300080BC7047002C014000040040000800408C
:1048400080B584B000AF78607B681B68DB68FB6074
:104850007B681B681B69BB60BB6803F00203002B0D
:1048600020D0FB6803F00203002B1BD07B681B6881
:104870006FF002021A617B6801221A777B681B685D
:104880009B6903F00303002B03D0786800F098F9CC
:1048900005E0786800F08BF9786800F09AF97B6899
:1048A00000221A77BB6803F00403002B20D0FB68BA
:1048B00003F00403002B1BD07B681B686FF004021D
:1048C0001A617B6802221A777B681B689B6903F474
:1048D0004073002B03D0786800F072F905E0786827
:1048E00000F065F9786800F074F97B6800221A77A7
:1048F000BB6803F00803002B20D0FB6803F008031B
:10490000002B1BD07B681B686FF008021A617B6864
:1049100004221A777B681B68DB6903F00303002B12
:1049200003D0786800F04CF905E0786800F03FF9B2
:10493000786800F04EF97B6800221A77BB6803F0B4
:104940001003002B20D0FB6803F01003002B1BD0BA
:104950007B681B686FF010021A617B6808221A7767
:104960007B681B68DB6903F44073002B03D0786815
:1049700000F026F905E0786800F019F9786800F091
:1049800028F97B6800221A77BB6803F00103002B2B
:104990000CD0FB6803F00103002B07D07B681B6879
:1049A0006FF001021A617868FDF792FABB6803F0B4
:1049B0008003002B0CD0FB6803F08003002B07D092
:1049C0007B681B686FF080021A61786800F07FFADC
:1049D000BB6803F04003002B0CD0FB6803F04003DE
:1049E000002B07D07B681B686FF040021A61786863
:1049F00000F0F8F8BB6803F02003002B0CD0FB6834
:104A000003F02003002B07D07B681B686FF02002A7
:104A10001A61786800F052FA00BF1037BD4680BDB9
:104A200080B584B000AF786039600023FB737B6889
:104A300093F83C30012B01D10223B4E07B680122C2
:104A400083F83C207B68022283F83D207B681B684A
:104A50009B68BB60BB6823F07703BB60BB6823F433
:104A60007F43BB607B681B68BA689A603B681B68C1
:104A7000B3F5005F3ED0B3F5005F00F28780B3F579
:104A8000805F00F08680B3F5805F7FD8702B1AD0EE
:104A9000702B7BD8602B50D0602B77D8502B3CD01C
:104AA000502B73D8402B58D0402B6FD8302B64D06C
:104AB000302B6BD8202B60D0202B67D8002B5CD0FC
:104AC000102B5AD062E07B6818683B6899683B6895
:104AD0005A683B68DB6800F074F97B681B689B6868
:104AE000BB60BB6843F07703BB607B681B68BA6838
:104AF0009A604FE07B6818683B6899683B685A6821
:104B00003B68DB6800F05DF97B681B689A687B682E
:104B10001B6842F480429A603CE07B6818683B68FE
:104B200059683B68DB681A4600F0D4F87B681B685C
:104B30005021184600F02BF92CE07B6818683B6880
:104B400059683B68DB681A4600F0F2F87B681B681E
:104B50006021184600F01BF91CE07B6818683B6870
:104B600059683B68DB681A4600F0B4F87B681B683C
:104B70004021184600F00BF90CE07B681A683B688E
:104B80001B681946104600F002F903E00123FB738D
:104B900000E000BF7B68012283F83D207B68002293
:104BA00083F83C20FB7B18461037BD4680BD80B49F
:104BB00083B000AF786000BF0C37BD4680BC704743
:104BC00080B483B000AF786000BF0C37BD4680BCB6
:104BD000704780B483B000AF786000BF0C37BD462B
:104BE00080BC704780B483B000AF786000BF0C37E2
:104BF000BD4680BC7047000080B485B000AF7860CF
:104C000039607B681B68FB607B682F4A93420BD03E
:104C10007B68B3F1804F07D07B682C4A934203D066
:104C20007B682B4A934208D1FB6823F07003FB603A
:104C30003B685B68FA681343FB607B68224A9342D7
:104C40000BD07B68B3F1804F07D07B681F4A93423B
:104C500003D07B681E4A934208D1FB6823F440735B
:104C6000FB603B68DB68FA681343FB60FB6823F07A
:104C700080023B685B691343FB607B68FA681A60DB
:104C80003B689A687B68DA623B681A687B689A625C
:104C90007B680D4A934203D13B681A697B681A63AB
:104CA0007B6801225A617B681B6903F00103002BBA
:104CB00005D07B681B6923F001027B681A6100BF85
:104CC0001437BD4680BC7047002C014000040040F2
:104CD0000008004080B487B000AFF860B9607A6027
:104CE000FB681B6A7B61FB681B6A23F00102FB689F
:104CF0001A62FB689B693B613B6923F0F0033B61EF
:104D00007B681B013A6913433B617B6923F00A030B
:104D10007B617A69BB6813437B61FB683A699A617E
:104D2000FB687A691A6200BF1C37BD4680BC7047B9
:104D300080B487B000AFF860B9607A60FB681B6A26
:104D40007B61FB681B6A23F01002FB681A62FB6838
:104D50009B693B613B6923F470433B617B681B03A8
:104D60003A6913433B617B6923F0A0037B61BB6815
:104D70001B017A6913437B61FB683A699A61FB689E
:104D80007A691A6200BF1C37BD4680BC704780B488
:104D900085B000AF786039607B689B68FB60FB681A
:104DA00023F07003FB603A68FB68134343F007038A
:104DB000FB607B68FA689A6000BF1437BD4680BC10
:104DC000704780B487B000AFF860B9607A603B602C
:104DD000FB689B687B617B6923F47F437B613B6855
:104DE0001A027B681A43BB6813437A6913437B61D9
:104DF000FB687A699A6000BF1C37BD4680BC70476B
:104E000080B485B000AF786039607B6893F83C303F
:104E1000012B01D1022346E07B68012283F83C206C
:104E20007B68022283F83D207B681B685B68FB601F
:104E30007B681B689B68BB60FB6823F07003FB60AA
:104E40003B681B68FA681343FB607B681B68FA6861
:104E50005A607B681B68164A93420ED07B681B68B9
:104E6000B3F1804F09D07B681B68124A934204D08B
:104E70007B681B68104A93420CD1BB6823F0800307
:104E8000BB603B685B68BA681343BB607B681B68A8
:104E9000BA689A607B68012283F83D207B68002213
:104EA00083F83C20002318461437BD4680BC704769
:104EB000002C0140000400400008004080B483B092
:104EC00000AF786000BF0C37BD4680BC704780B42F
:104ED00083B000AF786000BF0C37BD4680BC704720
:104EE00080B582B000AF78607B68002B01D10123D0
:104EF00042E07B6893F84130DBB2002B06D17B683F
:104F0000002283F840207868FDF750F97B6824225E
:104F100083F841207B681B68DA687B681B6822F491
:104F20000052DA60786800F009FA7B681B681A6939
:104F30007B681B6822F490421A617B681B685A697F
:104F40007B681B6822F02A025A617B681B68DA685A
:104F50007B681B6842F40052DA607B6800225A6466
:104F60007B68202283F841207B68202283F842203E
:104F70007B6800225A63002318460837BD4680BD6F
:104F800080B58AB002AFF860B9603B601346FB8021
:104F900000237B61FB6893F84130DBB2202B75D195
:104FA000BB68002B02D0FB88002B01D101236EE0EF
:104FB000FB6800225A64FB68212283F84120FDF738
:104FC000F9FA7861FB68FA889A84FB68FA88DA84CF
:104FD000FB689B68B3F5805F08D1FB681B69002BF9
:104FE00004D10023FB61BB68BB6103E0BB68FB61CC
:104FF0000023BB612EE03B6800937B690022802187
:10500000F86800F0DFF80346002B05D0FB6820228B
:1050100083F8412003233AE0FB69002B0BD1BB69E5
:105020001B881A46FB681B68C2F308025A60BB69FA
:105030000233BB6107E0FB691A78FB681B685A60A2
:10504000FB690133FB61FB68DB8C9BB2013B9AB2CD
:10505000FB68DA84FB68DB8C9BB2002BCBD13B680E
:1050600000937B6900224021F86800F0ABF803460A
:10507000002B05D0FB68202283F84120032306E0A3
:10508000FB68202283F84120002300E00223184619
:105090002037BD4680BD80B58AB002AFF860B960E8
:1050A0003B601346FB8000237B61FB6893F8423032
:1050B000DBB2202B40F08180BB68002B02D0FB8844
:1050C000002B01D1012379E0FB6800225A64FB68C0
:1050D000222283F84220FB6800221A63FDF76AFA55
:1050E0007861FB68FA889A85FB68FA88DA85FB683C
:1050F0009B68B3F5805F08D1FB681B69002B04D166
:105100000023FB61BB68BB6103E0BB68FB6100235C
:10511000BB6147E03B6800937B6900222021F8686F
:1051200000F050F80346002B05D0FB68202283F8DE
:105130004220032342E0FB69002B0CD1FB681B6873
:105140005B689BB2C3F308039AB2BB691A80BB6960
:105150000233BB611FE0FB689B68B3F5805F07D03B
:10516000FB689B68002B0AD1FB681B69002B06D1EA
:10517000FB681B685B68DAB2FB691A7008E0FB68C1
:105180001B685B68DBB203F07F03DAB2FB691A705D
:10519000FB690133FB61FB68DB8D9BB2013B9AB27B
:1051A000FB68DA85FB68DB8D9BB2002BB2D1FB6814
:1051B000202283F84220002300E0022318462037F3
:1051C000BD4680BD80B586B000AFF860B9603B6079
:1051D0001346FB713BE03B6AB3F1FF3F37D0FDF76D
:1051E000E9F902463B68D31A3A6A9A4202D33B6A0B
:1051F000002B01D103233AE0FB681B68DB6803F056
:105200000403002B23D0BB68802B20D0BB68402B2D
:105210001DD0FB681B681B6803F00803082B16D120
:1052200000237B61FB681B681B687B61FB681B6854
:105230005B687B617B69F86800F01DF8FB680822F9
:105240005A64FB68002283F8402001230FE0FB68CA
:105250001B681A68BB681340BA689A420CBF0123E6
:105260000023DBB21A46FB799A42B4D000231846D9
:105270001837BD4680BD80B495B000AF78607B68BC
:105280001B680C337B637B6B53E8003F3B633B6BDA
:1052900023F49073FB647B681B680C33FA6C3A64EC
:1052A000FB63F96B3A6C41E80023BB63BB6B002BDB
:1052B000E5D17B681B6814333B623B6A53E8003FCF
:1052C000FB61FB6923F00103BB647B681B6814333B
:1052D000BA6CFA62BB62B96AFA6A41E800237B627F
:1052E0007B6A002BE5D17B681B6B012B19D17B6896
:1052F0001B680C33FB60FB6853E8003FBB60BB6876
:1053000023F010037B647B681B680C337A6CBA61F2
:105310007B617969BA6941E800233B613B69002BF5
:10532000E5D17B68202283F842207B6800221A6343
:1053300000BF5437BD4680BC7047000080B584B0C4
:1053400000AF78607B681B681B6923F440517B6861
:10535000DA687B681B680A431A617B689A687B6815
:105360001B691A437B685B691343BB607B681B68DE
:10537000DB6823F4B05323F00C037A681268B96831
:105380000B43D3607B681B685B6923F440717B68C7
:105390009A697B681B680A435A617B681B682C4AC0
:1053A000934203D1FFF778F9F86002E0FFF760F964
:1053B000F860FA6813469B0013449A001A447B680D
:1053C0005B689B00B2FBF3F3224AA2FB03235B0959
:1053D0001901FA6813469B0013449A001A447B682B
:1053E0005B689B00B2FBF3F21A4BA3FB02035B0961
:1053F000642000FB03F3D31A1B013233154AA2FBCE
:1054000003235B0903F0F0031944FA6813469B0079
:1054100013449A001A447B685B689B00B2FBF3F26A
:105420000C4BA3FB02035B09642000FB03F3D31ABC
:105430001B013233074AA2FB03235B0903F00F026F
:105440007B681B680A449A6000BF1037BD4680BD68
:10545000003801401F85EB51002100F0F9BD2DE916
:10546000F0410F46904603F095FA04460D46B8F118
:10547000000F11D0C7F30A53C3F16B03002B0BDDF0
:1054800000241B0503F17F5505F5401522462B46E8
:10549000FBF7D6F804460D4620462946BDE8F081C4
:1054A0002DE9F04F9FB0179200220C461A924FF050
:1054B000000A4FF0000B0A460590199211782B292B
:1054C00048D036D80D2930D8082930D8002939D00D
:1054D00000220E92199D2A78302A40F0B0806A7816
:1054E00002F0DF02582A6CD102930E9B8F4A01937F
:1054F0001AAB009305981BAB19A902F045FB10F0FD
:105500000F06044605D0062E26D100230135199535
:105510000E93179B002B40F082850E9BBBB150462B
:105520000BF100411FB0BDE8F08F2029D0D101322E
:10553000C3E72D29CCD101210E91511C199152782C
:10554000002AC7D1179B1994002B40F0668550465E
:105550005946E7E70021EFE71A9A3AB135211CA82E
:1055600003F008FB1A99059802F0E8FE013E1B9A29
:10557000042E06D8DFE806F014031D201400DDE930
:105580001CABE10548BF4BF0004B2BF000431B0D5B
:105590001B05002BBDD101F099FB22230360B8E766
:1055A00002F23342DDE91CA323F4801343EA025BD9
:1055B000E7E7DFF87CB1E4E76FF0004B4FF0FF3A2C
:1055C000DFE7199B5A1C19925B78302BF9D0002B1E
:1055D0009FD0012300270A22B9460893199B0B97F5
:1055E0000C9319980578A5F13003D9B2092928D967
:1055F0000122504901F0F7FA002832D000202A4653
:1056000003464D460A90652A01D0452A14D11DB99A
:10561000089A024396D00025199C621C1992627860
:105620002B2A7AD02D2A7ED04FF0000CA2F1300127
:10563000092940F2858019944FF00008A5E0002365
:10564000C8E7B9F1080FD8BF0B9900F10100D6BF28
:1056500002FB013302FB07370B9309F10109199093
:10566000BFE7199B5A1C19925A78B9F1000F3BD029
:105670004D460A90A2F13003092B12D90123C2E74B
:10568000199B01305A1C19925A78302AF8D0A2F18D
:105690003103082B00F2C8840A9000200546199BAC
:1056A0000C93303A00F1010318D02E464FF00A0E49
:1056B0000A9919440A91711CA1EB050C634515DC8C
:1056C00020EAE0702B18082B05F1010505441ADCCF
:1056D0000A230B9903FB01230B930023199A184605
:1056E000511C19915278C5E74846CEE7082E05DCD3
:1056F0000B9E0EFB06F60B960E46DCE71029D8BF74
:105700000EFB07F7F8E70F2BDCBF0A2303FB072785
:10571000E3E700230A9301237AE74FF0000CA21C71
:105720001992A27882E74FF0010CF8E7F49E000886
:105730000000F07F0E9D0008199A511C19915278B3
:10574000302AF9D0A2F1310108293FF675AF4FF0A8
:105750000A08303A0992199A0F92199A561C19960A
:105760005278A2F1300EBEF1090F39D90F9944F6E3
:105770001F68761A082E03DC09998845A8BF884659
:10578000BCF1000F01D0C8F10008002D4ED10899DE
:1057900008437FF4BEAE002B7FF4D4AE692A28D034
:1057A00025DC492A25D04E2A7FF4CCAE994919A888
:1057B00002F00CFC00283FF4C5AE199B1B78282B87
:1057C0002ED195491CAA19A802F014FC052827D14E
:1057D0001D9BDDF870A043F0FF4B4BF4E00B98E607
:1057E000099908FB0121A1F130020992B5E76E2A5F
:1057F000DAE78A4919A802F0E9FB00283FF4A2AED3
:10580000199B8749013B19A8199302F0DFFB10B9D6
:10581000199B013319934FF0000ADFF808B278E6BC
:10582000814801F09DFA82468B4672E60A9BB9F1E7
:10583000000F08BFA946A8EB0303102D0B982C46B8
:105840000993A8BF1024FAF781FE092D82468B46E2
:1058500011DC099B002B3FF45CAE099B76DD162B17
:105860005DDC7249524601EBC3015B46D1E90001A0
:10587000FAF7E6FED7E76D4B03EBC40353E91223B7
:10588000FAF7DEFE824638468B46FAF75FFE02469E
:105890000B4650465946FAF71DFD0F2D82468B46A2
:1058A000D7DD099B2C1B1C44002C40F3938014F083
:1058B0000F030AD05D49524601EBC301D1E9000153
:1058C0005B46FAF7BDFE82468B4634F00F0473D078
:1058D000B4F59A7F49DD0024A046A1460B9422230B
:1058E0004FF0000A059ADFF83CB113600B9B002BC8
:1058F0003FF40FAE1A99059802F020FD494605982D
:1059000002F01CFD4146059802F018FD0B99059820
:1059100002F014FD2146059802F010FDF9E5099A00
:10592000C5F125039342BCDB404CC5F10F0504EBE8
:10593000C5015246D1E900015B46FAF781FE099B99
:105940005D1B04EBC504D4E9002391E71633A8DB03
:105950000A9B5046A3EB0808344B594603EBC80892
:10596000D8E90023FAF796FF5DE700235046594631
:105970001E462F4F2411012C21DC0BB182468B4691
:105980002B49ABF1547B01EBC6015246D1E9000132
:105990005B46FAF755FE234B0A460B4025498246E3
:1059A0008B4298D8A1F580118B4286BF4FF0FF3A09
:1059B000DFF884B002F1547B0023089376E0E2071D
:1059C00004D5D7E90023FAF73BFE01230136641022
:1059D0000837D0E7F0D0644214F00F020AD0134B1E
:1059E000504603EBC2035946D3E90023FAF752FFAE
:1059F00082468B462411DFD01F2C1FDD0024A046D9
:105A0000A1460B942223059A4FF0000A4FF0000B99
:105A100013606BE71D9D0008E09E0008159D0008BF
:105A20004F9D00080000F07FDE9E0008689F000880
:105A3000409F00080000A07CFFFFEF7F14F01003E0
:105A400018BF6A235046089359460023774EE7074C
:105A500004D5D6E90023FAF7F3FD0123641006F11B
:105A60000806F4D10BB182468B46089BB3B1CBF349
:105A70000A52C2F16B03002B59460FDD1F2B58DD74
:105A8000342BD8BF4FF0FF334FF0000ACFBF4FF099
:105A90005C7BC2F14B02934003EA010B002200231E
:105AA00050465946FBF734F80028A7D10B9B4A46CD
:105AB00000930C992B46059802F0A8FC0B90002847
:105AC0003FF409AF0024099A0A9B002AA3EB0803BC
:105AD000A8BF0023A046129322EAE27316930B9B01
