:020000040800F2
:1000000000500020614600085D4500085F4500087B
:1000100061450008634500086545000800000000D0
:10002000000000000000000000000000674500081C
:1000300069450008000000006B4500086D45000898
:10004000A9460008A9460008A9460008A9460008D4
:10005000A9460008A9460008A9460008A9460008C4
:10006000A9460008A9460008A9460008A9460008B4
:10007000A9460008A9460008A9460008A9460008A4
:10008000A946000871450008A9460008A9460008CD
:10009000A9460008A9460008A9460008A946000884
:1000A000A9460008A9460008A9460008A946000874
:1000B0007D450008A9460008A946000889450008B2
:1000C00095450008A9460008A9460008A946000869
:1000D000A9460008A9460008A1450008A94600084D
:1000E000A9460008A9460008A9460008000000002B
:1000F0000000000000000000000000000000000000
:0C01000000000000000000005FF808F1A3
:1001100010B5054C237833B9044B13B10448AFF341
:1001200000800123237010BDE801002000000000C2
:1001300084C9000808B5034B1BB103490348AFF35A
:10014000008008BD00000000EC01002084C9000808
:1001500010F8012B11F8013B012A28BF9A42F7D071
:10016000D01A7047034613F8012B002AFBD1181A46
:100170000138704781F0004102E000BF83F0004386
:1001800030B54FEA41044FEA430594EA050F08BF32
:1001900090EA020F1FBF54EA000C55EA020C7FEAF6
:1001A000645C7FEA655C00F0E2804FEA5454D4EB73
:1001B0005555B8BF6D420CDD2C4480EA020281EA3D
:1001C000030382EA000083EA010180EA020281EA75
:1001D0000303362D88BF30BD11F0004F4FEA0131C7
:1001E0004FF4801C4CEA113102D0404261EB4101D6
:1001F00013F0004F4FEA03334CEA133302D052425C
:1002000063EB430394EA050F00F0A780A4F1010417
:10021000D5F1200E0DDB02FA0EFC22FA05F2801851
:1002200041F1000103FA0EF2801843FA05F3594137
:100230000EE0A5F120050EF1200E012A03FA0EFCB6
:1002400028BF4CF0020C43FA05F3C01851EBE371E0
:1002500001F0004507D54FF0000EDCF1000C7EEBFD
:1002600000006EEB0101B1F5801F1BD3B1F5001F3B
:100270000CD349085FEA30004FEA3C0C04F101045A
:100280004FEA445212F5800F80F09A80BCF1004F83
:1002900008BF5FEA500C50F1000041EB045141EA05
:1002A000050130BD5FEA4C0C404141EB0101013CCE
:1002B00028BFB1F5801FE9D291F0000F04BF0146BD
:1002C0000020B1FA81F308BF2033A3F10B03B3F18F
:1002D00020020CDA0C3208DD02F1140CC2F10C021F
:1002E00001FA0CF021FA02F10CE002F11402D8BF7D
:1002F000C2F1200C01FA02F120FA0CFCDCBF41EA49
:100300000C019040E41AA2BF01EB0451294330BD17
:100310006FEA04041F3C1CDA0C340EDC04F11404F4
:10032000C4F1200220FA04F001FA02F340EA0300CB
:1003300021FA04F345EA030130BDC4F10C04C4F111
:10034000200220FA02F001FA04F340EA03002946F1
:1003500030BD21FA04F0294630BD94F0000F83F43B
:10036000801306BF81F480110134013D4EE77FEA1E
:10037000645C18BF7FEA655C29D094EA050F08BF6A
:1003800090EA020F05D054EA000C04BF194610464B
:1003900030BD91EA030F1EBF0021002030BD5FEA8F
:1003A000545C05D14000494128BF41F0004130BDB7
:1003B00014F580043CBF01F5801130BD01F000450B
:1003C00045F0FE4141F470014FF0000030BD7FEA7E
:1003D000645C1ABF194610467FEA655C1CBF0B4679
:1003E000024650EA013406BF52EA033591EA030F90
:1003F00041F4002130BD00BF90F0000F04BF002188
:10040000704730B54FF4806404F132044FF00005BA
:100410004FF0000150E700BF90F0000F04BF002133
:10042000704730B54FF4806404F1320410F0004599
:1004300048BF40424FF000013EE700BF42004FEA94
:10044000E2014FEA31014FEA02701FBF12F07F4311
:1004500093F07F4F81F06051704732F07F4208BFC8
:10046000704793F07F4F04BF41F40021704730B5CF
:100470004FF4607401F0004521F000411CE700BF1B
:1004800050EA010208BF704730B54FF000050AE09E
:1004900050EA010208BF704730B511F0004502D59F
:1004A000404261EB41014FF4806404F132045FEAA1
:1004B000915C3FF4D8AE4FF003025FEADC0C18BF4A
:1004C00003325FEADC0C18BF033202EBDC02C2F13C
:1004D000200300FA03FC20FA02F001FA03FE40EACE
:1004E0000E0021FA02F11444BDE600BF70B54FF0D2
:1004F000FF0C4CF4E06C1CEA11541DBF1CEA1355B0
:1005000094EA0C0F95EA0C0F00F0DEF82C4481EA17
:10051000030621EA4C5123EA4C5350EA013518BF37
:1005200052EA033541F4801143F4801338D0A0FB24
:1005300002CE4FF00005E1FB02E506F00042E0FBD1
:1005400003E54FF00006E1FB03569CF0000F18BFD7
:100550004EF0010EA4F1FF04B6F5007F64F540747F
:1005600004D25FEA4E0E6D4146EB060642EAC62112
:1005700041EA55514FEAC52040EA5E504FEACE2E7F
:10058000B4F1FD0C88BFBCF5E06F1ED8BEF1004F82
:1005900008BF5FEA500E50F1000041EB045170BDFE
:1005A00006F0004646EA010140EA020081EA030142
:1005B000B4EB5C04C2BFD4EB0C0541EA045170BD3E
:1005C00041F480114FF0000E013C00F3AB8014F1B8
:1005D000360FDEBF002001F0004170BDC4F1000401
:1005E000203C35DA0C341BDC04F11404C4F1200582
:1005F00000FA05F320FA04F001FA05F240EA0200DD
:1006000001F0004221F0004110EBD37021FA04F612
:1006100042EB06015EEA430E08BF20EAD37070BDCC
:10062000C4F10C04C4F1200500FA04F320FA05F02B
:1006300001FA04F240EA020001F0004110EBD3702D
:1006400041F100015EEA430E08BF20EAD37070BD9D
:10065000C4F1200500FA05F24EEA020E20FA04F376
:1006600001FA05F243EA020321FA04F001F0004125
:1006700021FA04F220EA020000EBD3705EEA430E96
:1006800008BF20EAD37070BD94F0000F0FD101F0C5
:100690000046400041EB010111F4801F08BF013CFE
:1006A000F7D041EA060195F0000F18BF704703F03C
:1006B0000046520043EB030313F4801F08BF013DC3
:1006C000F7D043EA0603704794EA0C0F0CEA13557F
:1006D00018BF95EA0C0F0CD050EA410618BF52EA39
:1006E0004306D1D181EA030101F000414FF000003F
:1006F00070BD50EA410606BF1046194652EA43064D
:1007000019D094EA0C0F02D150EA013613D195EAC0
:100710000C0F05D152EA03361CBF104619460AD108
:1007200081EA030101F0004141F0FE4141F4700112
:100730004FF0000070BD41F0FE4141F4780170BD02
:1007400070B54FF0FF0C4CF4E06C1CEA11541DBF67
:100750001CEA135594EA0C0F95EA0C0F00F0A7F869
:10076000A4EB050481EA030E52EA03354FEA013196
:1007700000F088804FEA03334FF0805545EA1313A9
:1007800043EA12634FEA022245EA111545EA106571
:100790004FEA00260EF000419D4208BF964244F108
:1007A000FD0404F5407402D25B084FEA3202B61A27
:1007B00065EB03055B084FEA32024FF480104FF4FB
:1007C000002CB6EB020E75EB030E22BFB61A75466F
:1007D00040EA0C005B084FEA3202B6EB020E75EB02
:1007E000030E22BFB61A754640EA5C005B084FEA6A
:1007F0003202B6EB020E75EB030E22BFB61A754637
:1008000040EA9C005B084FEA3202B6EB020E75EB41
:10081000030E22BFB61A754640EADC0055EA060E02
:1008200018D04FEA051545EA16754FEA06164FEA45
:10083000C30343EA52734FEAC2025FEA1C1CC0D1F1
:1008400011F4801F0BD141EA00014FF000004FF07E
:10085000004CB6E711F4801F04BF01430020B4F13F
:10086000FD0C88BFBCF5E06F3FF6AFAEB5EB030CF7
:1008700004BFB6EB020C5FEA500C50F1000041EBF4
:10088000045170BD0EF0004E4EEA113114EB5C04C1
:10089000C2BFD4EB0C0541EA045170BD41F4801194
:1008A0004FF0000E013C90E645EA060E8DE60CEA9C
:1008B000135594EA0C0F08BF95EA0C0F3FF43BAFB9
:1008C00094EA0C0F0AD150EA01347FF434AF95EA70
:1008D0000C0F7FF425AF104619462CE795EA0C0F54
:1008E00006D152EA03353FF4FDAE1046194622E721
:1008F00050EA410618BF52EA43067FF4C5AE50EAFB
:1009000041047FF40DAF52EA43057FF4EBAE12E7EA
:100910004FF0FF3C06E000BF4FF0010C02E000BFCB
:100920004FF0010C4DF804CD4FEA410C7FEA6C5CAE
:100930004FEA430C18BF7FEA6C5C1BD001B050EA51
:10094000410C0CBF52EA430C91EA030F02BF90EA3C
:10095000020F0020704710F1000F91EA030F58BFFB
:10096000994208BF90422CBFD8176FEAE37040F05D
:10097000010070474FEA410C7FEA6C5C02D150EAFB
:10098000013C07D14FEA430C7FEA6C5CD6D152EAB6
:10099000033CD3D05DF8040B704700BF844610467B
:1009A00062468C461946634600E000BF01B5FFF77A
:1009B000B7FF002848BF10F1000F01BD4DF808ED4A
:1009C000FFF7F4FF0CBF012000205DF808FB00BF1B
:1009D0004DF808EDFFF7EAFF34BF012000205DF875
:1009E00008FB00BF4DF808EDFFF7E0FF94BF0120C2
:1009F00000205DF808FB00BF4DF808EDFFF7CEFFC3
:100A000094BF012000205DF808FB00BF4DF808ED01
:100A1000FFF7C4FF34BF012000205DF808FB00BFD2
:100A20004FEA410C7FEA6C5C02D150EA013C0AD1EA
:100A30004FEA430C7FEA6C5C02D152EA033C02D1DC
:100A40004FF0000070474FF0010070474FEA41023D
:100A500012F5001215D211D56FF47873B3EB625210
:100A600012D94FEAC12343F0004343EA505311F037
:100A7000004F23FA02F018BF404270474FF00000C9
:100A8000704750EA013005D111F0004008BF6FF007
:100A9000004070474FF00000704700BF4A0011D27D
:100AA00012F5001211D20DD56FF47873B3EB6252C8
:100AB0000ED44FEAC12343F0004343EA505323FAD4
:100AC00002F070474FF00000704750EA013002D149
:100AD0004FF0FF3070474FF0000070474FEA41027F
:100AE000B2F1E04324BFB3F5001CDCF1FE5C0DD98C
:100AF00001F0004C4FEAC0024CEA5070B2F1004FD6
:100B000040EB830008BF20F00100704711F0804FD8
:100B100021D113F13872BCBF01F00040704741F49D
:100B200080114FEA5252C2F11802C2F1200C10FAA1
:100B30000CF320FA02F018BF40F001004FEAC12385
:100B40004FEAD32303FA0CFC40EA0C0023FA02F329
:100B50004FEA4303CCE77FEA625307D150EA0133FF
:100B60001EBF4FF0FE4040F44000704701F00040CF
:100B700040F0FE4040F40000704700BF80F00040AD
:100B800002E000BF81F0004142001FBF5FEA410365
:100B900092EA030F7FEA226C7FEA236C6AD04FEA65
:100BA0001262D2EB1363C1BFD218414048404140AA
:100BB000B8BF5B42192B88BF704710F0004F40F45C
:100BC000000020F07F4018BF404211F0004F41F478
:100BD000000121F07F4118BF494292EA030F3FD044
:100BE000A2F1010241FA03FC10EB0C00C3F1200357
:100BF00001FA03F100F0004302D5494260EB4000E6
:100C0000B0F5000F13D3B0F1807F06D340084FEA50
:100C1000310102F10102FE2A51D2B1F1004F40EB45
:100C2000C25008BF20F0010040EA030070474900AD
:100C300040EB0000013A28BFB0F5000FEDD2B0FA4A
:100C400080FCACF1080CB2EB0C0200FA0CF0AABF6D
:100C500000EBC25052421843BCBFD040184370470B
:100C600092F0000F81F4000106BF80F40000013211
:100C7000013BB5E74FEA41037FEA226C18BF7FEAE8
:100C8000236C21D092EA030F04D092F0000F08BF2A
:100C90000846704790EA010F1CBF0020704712F011
:100CA0007F4F04D1400028BF40F00040704712F150
:100CB00000723CBF00F50000704700F0004343F0B5
:100CC000FE4040F4000070477FEA226216BF0846EB
:100CD0007FEA23630146420206BF5FEA412390EAAE
:100CE000010F40F4800070474FF0000304E000BFA4
:100CF00010F0004348BF40425FEA000C08BF704755
:100D000043F0964301464FF000001CE050EA010218
:100D100008BF70474FF000030AE000BF50EA01022D
:100D200008BF704711F0004302D5404261EB41011A
:100D30005FEA010C02BF84460146002043F0B6433F
:100D400008BFA3F18053A3F50003BCFA8CF2083A64
:100D5000A3EBC25310DB01FA02FC634400FA02FC6D
:100D6000C2F12002BCF1004F20FA02F243EB020074
:100D700008BF20F00100704702F1200201FA02FCD6
:100D8000C2F1200250EA4C0021FA02F243EB0200C9
:100D900008BF20EADC7070474FF0FF0C1CEAD0520D
:100DA0001EBF1CEAD15392EA0C0F93EA0C0F6FD0CE
:100DB0001A4480EA010C400218BF5FEA41211ED0AC
:100DC0004FF0006343EA501043EA5111A0FB013198
:100DD0000CF00040B1F5000F3EBF490041EAD3716D
:100DE0005B0040EA010062F17F02FD2A1DD8B3F1E9
:100DF000004F40EBC25008BF20F00100704790F058
:100E0000000F0CF0004C08BF49024CEA502040EAA9
:100E100051207F3AC2BFD2F1FF0340EAC25070476F
:100E200040F400004FF00003013A5DDC12F1190FAD
:100E3000DCBF00F000407047C2F10002410021FA1F
:100E400002F1C2F1200200FA02FC5FEA310040F137
:100E5000000053EA4C0308BF20EADC70704792F0B0
:100E6000000F00F0004C02BF400010F4000F013AE8
:100E7000F9D040EA0C0093F0000F01F0004C02BFE3
:100E8000490011F4000F013BF9D041EA0C018FE752
:100E90000CEAD15392EA0C0F18BF93EA0C0F0AD058
:100EA00030F0004C18BF31F0004CD8D180EA01007E
:100EB00000F00040704790F0000F17BF90F0004F17
:100EC000084691F0000F91F0004F14D092EA0C0FF9
:100ED00001D142020FD193EA0C0F03D14B0218BF8C
:100EE000084608D180EA010000F0004040F0FE40D2
:100EF00040F40000704740F0FE4040F4400070476E
:100F00004FF0FF0C1CEAD0521EBF1CEAD15392EAEC
:100F10000C0F93EA0C0F69D0A2EB030280EA010CDC
:100F200049024FEA402037D04FF0805343EA111175
:100F300043EA10130CF000408B4238BF5B0042F1D3
:100F40007D024FF4000C8B4224BF5B1A40EA0C0078
:100F5000B3EB510F24BFA3EB510340EA5C00B3EBAA
:100F6000910F24BFA3EB910340EA9C00B3EBD10F98
:100F700024BFA3EBD10340EADC001B0118BF5FEAEA
:100F80001C1CE0D1FD2A3FF650AF8B4240EBC25013
:100F900008BF20F0010070470CF0004C4CEA5020D4
:100FA0007F32C2BFD2F1FF0340EAC250704740F423
:100FB00000004FF00003013A37E792F0000F00F015
:100FC000004C02BF400010F4000F013AF9D040EA93
:100FD0000C0093F0000F01F0004C02BF490011F427
:100FE000000F013BF9D041EA0C0195E70CEAD1531F
:100FF00092EA0C0F08D142027FF47DAF93EA0C0F06
:101000007FF470AF084676E793EA0C0F04D14B02E9
:101010003FF44CAF08466EE730F0004C18BF31F09B
:10102000004CCAD130F000427FF45CAF31F0004395
:101030007FF43CAF5FE700BF4FF0FF3C06E000BF2E
:101040004FF0010C02E000BF4FF0010C4DF804CD51
:101050004FEA40024FEA41037FEA226C18BF7FEA61
:10106000236C11D001B052EA530C18BF90EA010F63
:1010700058BFB2EB030088BFC81738BF6FEAE170F2
:1010800018BF40F0010070477FEA226C02D15FEA8E
:10109000402C05D17FEA236CE4D15FEA412CE1D0FA
:1010A0005DF8040B704700BF844608466146FFE7C1
:1010B0000FB5FFF7C9FF002848BF10F1000F0FBDA3
:1010C0004DF808EDFFF7F4FF0CBF012000205DF89C
:1010D00008FB00BF4DF808EDFFF7EAFF34BF012021
:1010E00000205DF808FB00BF4DF808EDFFF7E0FFBA
:1010F00094BF012000205DF808FB00BF4DF808ED0B
:10110000FFF7D2FF94BF012000205DF808FB00BF6D
:101110004DF808EDFFF7C8FF34BF012000205DF84F
:1011200008FB00BF4FEA40024FEA41037FEA226C0E
:1011300002D15FEA402C08D17FEA236C02D15FEA3A
:10114000412C02D14FF0000070474FF00100704772
:1011500042000ED2B2F1FE4F0BD34FF09E03B3EB21
:10116000126209D44FEA002343F0004323FA02F04D
:1011700070474FF00000704712F1610F01D1420239
:1011800002D14FF0FF3070474FF00000704700BFB2
:1011900038B50022002304460D46FFF719FC28B994
:1011A00020462946BDE8384000F00AB8204605F13F
:1011B000004100F005F8404261EB410138BD00BF3D
:1011C000D0B500220B4B06460F46FFF78FF9FFF70D
:1011D00065FC0446FFF710F90022074BFFF786F97C
:1011E00002460B4630463946FEF7C8FFFFF756FC6D
:1011F0002146D0BD0000F03D0000F041F0B585B0C3
:101200001E4601AB00241D464FF00A0CB2FBFCFE4B
:101210000CFB1E27303703F8017B17460134092FDA
:101220007246E4B201D90A2CF0D1234630272A199C
:1012300003E00133DBB202F8017BB342F9D3331B85
:10124000A64238BF00238842234403F0FF030CD298
:101250005A1ED2B22A4412F80149013B13F0FF038F
:1012600000F8014B01D08142F5D105B0F0BD2DE968
:10127000F0410F460588D0F804800135ADB2044630
:10128000414605803846FFF77DFC06462846FFF7B5
:101290002BFD01463046FFF733FE4146FFF774FC55
:1012A000014660603846FFF76DFC3146FFF774FD7C
:1012B0000146A068FFF768FCA060BDE8F08100006F
:1012C0002DE9F04101254FF03208002388B0CDE927
:1012D0000158194F8DF81F300DF117030093044684
:1012E00016468DF8171002462B463978134804F03D
:1012F00077FC40B1114805F039FE114B1860002011
:1013000008B0BDE8F081CDE901580DF11F0300934D
:1013100022462B463978094804F0F2FC0028E9D12E
:101320009DF81F30074A13709DF8172053401E4246
:101330000CBF01200020E3E74E020020BC0B002080
:101340007C0200206402002010B5044600880128B9
:101350000DD90138FFF7C8FC0146A068FFF7D0FDA2
:1013600000210BF0C3F8BDE810400BF0A5B8002039
:1013700010BD000008B54CF250330A480A4AC0E9D3
:10138000002300234FF48042C0E90233C0E9042364
:10139000C0E90633036204F061FB08B172B6FEE7F0
:1013A00008BD00BFBC0B0020005400402DE9F843ED
:1013B000013922F00048461804463949404615468E
:1013C0001F46FFF7AFFE20B940463549FFF7A0FEA4
:1013D000E0B129462846FFF7A5FE80B9002128463E
:1013E000FFF778FE2F4B304A002808BF1346013B19
:1013F00013F8012F2AB900232370BDE8F8832B4B83
:10140000F5E7A642F7D904F8012BF1E700212846B9
:10141000FFF760FE38B1B44238BF2D2305F1004517
:1014200038BF04F8013B00234FF001090A210133C2
:10143000DAB2BA4201FB09F9F9D32846FFF788FE70
:101440008046FFF751FC01462846FFF79BFB054607
:101450004846FFF749FC01462846FFF79DFC4FF040
:101460007C51FFF791FBFFF773FE814598BF08F1B0
:10147000010805464FF0010342463146204698BF19
:101480000025FFF7BBFE864206D92E232A4600F828
:10149000013B3B46FFF7B2FE00230370ADE700BF00
:1014A000FFFF7F7FA4C90008A5C90008A0C90008E4
:1014B00000221146134610B5845C34B9A3F109002B
:1014C00006288CBF0020012010BD132A0DD02B2C24
:1014D00005D11143C9B241B901210132ECE7303CD9
:1014E000092C02D80133DBB2F7E70020ECE700005B
:1014F0002DE9F341184B1B785BB3184D2B7843BB98
:10150000174B1B7803F0FF061BBB4FF00108154F6C
:10151000154C3E70266085F8008003F009F9134BE6
:10152000134918600E230193124B3B220093097854
:101530004346114804F028FD58B10F482E7005F0BD
:1015400015FD2060236813B94FF461432360012324
:101550003B7002B0BDE8F081850A00209D020020AA
:101560009C0200209B0200208002002088020020B4
:101570004E0200208C020020BC0B00201422F0B58B
:1015800004468BB000210DEB020008F0F2F914B90B
:1015900000200BB0F0BD2046FFF78AFF0028F7D0EF
:1015A0001322214605A808F0FEF91D4805F009FDA3
:1015B00003F008FE0028EBD14FF0FF330093012326
:1015C000184DCDE90100694601A8CDE9035303F0A8
:1015D000A3FE0446144F05AE1CB9BD4206F1020637
:1015E00010D103F001FE0E4805F0EBFC002CCFD12A
:1015F00014220C480DEB020108F0ABF9B0FA80F0B0
:101600004009C6E716F8023C16F8012C294643EAC1
:1016100002220120234603F01BFE02350446DBE7CD
:10162000B00B002000F8000814F8000810B50F4CAB
:101630002378013BDBB2FD2B12D814220021204677
:1016400008F06FFA60B12046FFF732FF40B1084B57
:1016500013222146184608F0A6F90022C27410BDD4
:1016600004490348BDE8104008F053BA00F80008E8
:10167000C10A0020A9C900082DE9F04F00244FF04D
:1016800002094C4B4C4F89B03C701C704B4B4C4D7D
:101690001C704C4BDFF830B11C804C4B4C4E1C7016
:1016A0004C4BDFF834A11C704C4BDFF834811C70BC
:1016B0004C4B34701C604C4B2C701C704B4B8BF89B
:1016C00000401C704A4B1C70322201231AF8011B87
:1016D000CDE901320DF11F020092404675228DF8CE
:1016E0001F40059104F00CFB00BB9DF81F300599CD
:1016F000752B8BF800300FD8672B07D942F20332D5
:10170000683BDBB222FA03F3DB0707D4B9F1010F20
:1017100005D04FF00109D7E7982BF7D13170337816
:1017200053B901232B7009B0BDE8F08F2C4805F0A8
:101730001DFC304B1860E9E70223472201216B2092
:101740002B70FFF7BDFD08B90323EBE7322002F051
:10175000F5FF072203211A20FFF7B2FD08B9052380
:10176000E0E7FF2207211920FFF7AAFD08B90623A9
:10177000D8E718221C201146FFF7A2FD08B907235D
:10178000D0E718221B201146FFF79AFD08B908235D
:10179000C8E7D8F83820174B22B94EF206121A6063
:1017A0006523BFE700221A6064232B7001233B707E
:1017B000B9E700BFA3020020850A0020A002002094
:1017C000650200209E020020660200209D0200208B
:1017D0004E0200209C020020EBD200089B02002059
:1017E000BC0B0020800200204D0200204C02002093
:1017F000640200207C02002010B502210D4803F095
:1018000021FF044602F094FF0B4B1A78A2421EBF40
:101810001C700A4B18600A4B1A78A24209D0074A7A
:101820001268801A312804D91C7014B90122054BA2
:101830001A7010BD000C01400100002004020020BD
:1018400000000020820A0020EFF3108272B6094BDC
:1018500009491B889BB20B80002308490B7002B911
:1018600062B6074A1380074A1370074A1370074A83
:1018700013707047800600207E0600207606002048
:101880006C050020690500206A0500206E05002017
:1018900030B5204B85B01B78002B39D11E4D1F4C25
:1018A0002B681B6813F0080F1CBF012323702378DB
:1018B000002B2DD0EFF3108372B60022227003B9F3
:1018C00062B6154806F0FBF900222B6800921968F1
:1018D000114800915968009100990192196801918D
:1018E000596801910199029219680291596802910F
:1018F000029903921A6803925B680393039BFFF7B4
:10190000A3FF0122064906F0F2FB08B10123237070
:1019100005B030BD74060020D80A002075060020EE
:101920007C0600201B2307B501228DF807300DF13E
:1019300007016423054806F074F9FFF785FF0022CC
:10194000034B1A7003B05DF804FB00BFD80A0020F7
:10195000740600202DE9F0473E498AB008F04CF8A3
:10196000044600286ED014220021684608F001F8D1
:10197000142200210DEB020007F0FBFF0021452798
:101980004E2608460A46DFF8D0C00A3414F8013F54
:101990000D2B23D92C2B0CD0202BF7D0052A0AD1C4
:1019A0001228F3DC00F128056D4405F8283C0130CD
:1019B000ECE70132EAE7062A0ED0072A08D11229FD
:1019C000E4DC01F128056D4405F8143C0131DDE744
:1019D000082A08BF1F46D9E71E46D7E74CFA03F589
:1019E000ED07DBD49DF80030DFF870A06BB39DF8F5
:1019F000143053B3684606F08BFBFFF76FF80446CC
:101A000005A806F085FB8046894620460021FFF7A1
:101A100057FBD0B949464046FFF760F8002105461C
:101A2000FFF74EFB88B90123532E8AF800300C4B88
:101A300008BF04F100441C60572F0A4B08BF05F192
:101A400000451D600AB0BDE8F08700238AF8003029
:101A5000F8E700BFB6C90008FEDBFFFF860A0020DA
:101A6000A80A0020A40A0020F0B50B2287B0324952
:101A7000044607F086FF28B9204607B0BDE8F040CD
:101A8000FFF768BF20462D4907F0B6FF2C4D28B957
:101A900020462C4907F0B0FF064620B100232A4A11
:101AA00013702B7016E010222046284907F069FFBA
:101AB000074688B92C21204607F088FF48B10A2242
:101AC0003946013007F0A6F9093807288CBF0020F5
:101AD0000120287007B0F0BD2B78002BFAD014221B
:101AE000314601A807F045FF3046013C14F8013F9C
:101AF00093B901A8FFF7DCFC60B101A9144808F014
:101B000008F80122134B14491A70144864232B223D
:101B100006F087F80023C4E71028EAD0A3F13002CA
:101B2000092A01D92B2BE1D100F118026A4402F8ED
:101B3000143C0130DAE700BFB6C90008C2C900088A
:101B40006A050020CDC90008830A0020DCC900080E
:101B5000AD0A0020AC0A0020EDC90008200B0020CF
:101B60002DE9F0412C4F3B78002B4FD0FFF76CFE56
:101B700000232A4A13802A4A13702A4A1370BDE8A8
:101B8000F0813B78002BF1D12B88274A9BB2D25CA5
:101B90002B880A2A03F10103C3F309032B80D0B277
:101BA000337801D00D281CD1DFF8708033B9B8F834
:101BB00000201AB11D488354FFF756FF0023A8F8F0
:101BC000003033701A4805F0FCF91A4B2A881B883C
:101BD00092B29BB29A42D2D0013CA4B2002CD0D196
:101BE000CDE7002BEED10D4A1188FE2904D84B1CFD
:101BF00013800E4B5854E5E7138001223270094AD6
:101C000013700D4A136801331360DBE740F20114CF
:101C10000A4D034ED9E700BF760600206C05002070
:101C2000690500206A050020820600206E0500205C
:101C3000B00B002080060020700600207E060020E9
:101C4000F0B587B01022002102A807F092FE012310
:101C50006F4E704A3370002313706F4A6F4C1370CD
:101C60006F4AA06B13706F4A13806F4A13706F4AEC
:101C700013706F4A137030B103F076FA012802D95D
:101C8000A06B03F077F900246A4B64481C7003F0E2
:101C90008DFF694BC0259A69684842F008029A6135
:101CA0009A6902A902F008020092009ADA6942F4E5
:101CB0000012DA61DB69049403F400130193019BC1
:101CC0001123CDE902530223059303F079FB01228E
:101CD00029465A4803F0BCFC012002F02FFD4021A8
:101CE000564803F0AFFC012840F08F808021534814
:101CF00003F0A8FC441E18BF012480214F4803F0C4
:101D0000A1FCD8B909254D4F00224021384603F0E7
:101D10009FFC012002F012FD01224021384603F011
:101D200097FC012002F00AFD8021384603F08AFC6E
:101D3000012803D0013D15F0FF05E5D100228021E7
:101D40003E4803F085FC012002F0F8FC80213B486E
:101D500003F078FC002200284FF04001374818BFFC
:101D6000012403F075FC012002F0E8FC4021334817
:101D700003F068FC012200284FF040012F4818BFF3
:101D8000012403F065FC012002F0D8FC40212B481F
:101D900003F058FC012201284FF08001274818BFAA
:101DA000012403F055FC012002F0C8FC80212348E7
:101DB00003F048FC012800D11CB1214A136801330B
:101DC00013601223039303231C4802A9059303F015
:101DD000F7FA1C4B1A6842F400421A6000BF002454
:101DE0001A6822F400421A60FFF7C4FA052002F0D4
:101DF000A5FCFFF741FC144B1C7002F099FC134B3F
:101E00000A301860347007B0F0BD012475E700BFD8
:101E10009A020020850A0020A3020020BC0B0020AB
:101E2000A00200209E0200209C0200209B020020B5
:101E30004C0200209D02002000100240000C0140D6
:101E40006802002000540040880A0020840200201C
:101E500010B5044602F06CFC002310490B701049C9
:101E60000B70104B10491C600B68104C01330B6059
:101E70002378FF2B0BD10E490B68C31AB3F57A7F79
:101E80000AD30860FFF7DCFE0023237004E001336F
:101E9000DBB2022B2370EED810BD00BFA3020020DE
:101EA0004C0200207C020020740200204D02002021
:101EB00048020020000000002DE9F04FCDB002F0F4
:101EC00037FC834602F034FC984B1B7863B9984A80
:101ED0001368C31AB3F57A7F02D31060FFF7B0FE20
:101EE0000223039300F019BF924B1B7803F0FF010C
:101EF000CBB1914B1B68C31A142B0ED900238F4A08
:101F000013708F4A137020228E4B1A608E4A13680A
:101F1000013313608D4B1860E0E78D4A136801337D
:101F200013600023DDE7864B1A7802F0FF0872B1D8
:101F3000884A10681970002808BF4FF46140FFF705
:101F400087FF02F0F5FB844B0A301860C8E77B4B33
:101F50001A78002A00F0B48030AA144683F8008072
:101F60007E4B03F10806154618685968083303C507
:101F7000B3422A46F7D11868794A28609B882146DF
:101F8000AB8000231370774A1370774A1370224690
:101F900011F8010B30B90133DBB20E2BF8D14EF240
:101FA00001000BE0002312F8011BFF2940F04286DC
:101FB0000133DBB20E2BF6D14EF20200FFF748FFE1
:101FC00000F0A4BE0B449BB2834200F28D86114404
:101FD00089B2814200F2888629F0004A504663495E
:101FE000FFF7A0F8002840F07F8650465F49FFF7D2
:101FF0008FF8002840F0788648465D49FFF788F85A
:10200000002840F0718648465A49FFF763F85A4B5A
:10201000002843D183F80080BDF810C0574B059AC3
:10202000A3F800C0564B50BA1F80564B079A1E802B
:10203000554B51BA1880554B069A1980544B52BAD9
:102040001A800FFA82F9534B039A00B21A60524B6E
:102050000FFA81FA1D60514B1C60FEF749FE504992
:10206000FEF74EFF4F4B18605046FEF741FE4C49BD
:10207000FEF746FF4C4B18604846FEF739FE4849CC
:10208000FEF73EFF494B4A4A1860002313702D4A61
:1020900013600123324A137000F039BE1A7862B916
:1020A00001221A70434A1368013313604EF205028D
:1020B000244B1A60032300F02ABE4FF00208A9E760
:1020C000254B1B68C01A0028FFF62BAFFFF710FA4C
:1020D00027E72378022B40F0518641F65831364AE3
:1020E0001368ABEB03038B4240F24886002333496D
:1020F00023700B7032490B7032490B7032490B70F0
:1021000032490B7032490B7032490B7032490B6007
:1021100032490B6032490B6000F022BE237813B9BC
:10212000264B00221A704DB0BDE8F08F850A0020C2
:10213000440200209D020020880200209C02002012
:102140009B0200207C020020740200204802002034
:102150007802002080020020840200208C020020EF
:10216000A3020020A2020020A1020020FFFF7F7F27
:102170000000DC41CDCCCC3D4C020020A00A002068
:102180009E0A00209C0A0020100500200E05002059
:102190000C050020980A0020940A0020900A0020D4
:1021A000333383410805002004050020000500208A
:1021B0004D0200206C0200205C0200203D02002045
:1021C0003C020020A40200203B0200203A02002032
:1021D00039020020380200203402002030020020A2
:1021E00060020020137883B94FF6FF709F490B8877
:1021F0009BB283421FBF0B8801339BB20B800B88BD
:102200009BB2C72B84BF01231370237843B9127884
:1022100002F0FF0322B9964A1370964A137082E7C0
:10222000954F964E3868964D3968D6F800A03368B9
:1022300005932B68D5F800900693FEF7ADFD059940
:1022400080465046FEF7A8FD01464046FEF79CFC3E
:10225000494680460698FEF79FFD01464046FEF738
:1022600093FC0AF029F9DFF81C928749C9F80000AD
:10227000D9F8008028F000484046FEF753FF50B9D7
:1022800040468149FEF744FF28B9D9F800007F494C
:10229000FEF73EFF08B17E4B43E77E4BDFF8F8A127
:1022A0001A7852B93A683168CAF800207B4A11603E
:1022B0007B4A2968116001221A70DAF80000794916
:1022C000FEF76AFDD7F80090804677494846FEF74A
:1022D00063FD01464046FEF757FCCAF80000DFF8F0
:1022E000BCA170490590DAF80000FEF755FDD6F85C
:1022F000009080466C494846FEF74EFD0146404638
:10230000FEF742FC664B8046CAF800006549186833
:10231000FEF742FDD5F800A0814663495046FEF71E
:102320003BFD01464846FEF72FFC059A5C4B1146E3
:10233000186081461046FEF72FFD41468246404612
:10234000FEF72AFD01465046FEF71EFC4946804630
:102350004846FEF721FD01464046FEF715FC0AF00F
:10236000ABF8DFF848A15249CAF80000DAF80000DB
:10237000FEF7CEFEDFF83C81DFF83C91002800F04C
:10238000C580DAF800004D49FEF7A4FE002800F0F1
:10239000BD8042F6E0610022D9F80030C8F8002084
:1023A00001338B42C9F8003008D9454B1A70454BB0
:1023B000454A1A6042F6E163C9F800302278012AE2
:1023C000D3B200F0E880022B00F02381DFF8A09068
:1023D000DFF8A080002B40F0E483DFF8A8A03B49A1
:1023E000DAF80000FEF794FE002800F0A88098F8C4
:1023F000003037493BB10A68ABEB02021E2A00F2FB
:102400009C80FF2B02D0013388F80030002398F81D
:102410000020C1F800B0012A89F800307FF683AEB1
:10242000022222702B4A88F8003013702A4A137057
:102430002A4B2B4AC3F800B001231370294A1370AA
:102440003A68294B1A603268284B1A602A68284B70
:102450001A60284B1A68284B1A60284B1A68284BB8
:102460001A60284B1A68284B1A605CE69E0200200E
:102470003D0200203C020020980A0020940A00201F
:10248000900A00208C0A0020FFFF7F7F0000E041BF
:10249000A302002014020020100200200C020020E1
:1024A000080200209A99593F9A99193E0C00002081
:1024B0006666663F5C05002060050020CDCC8C3F41
:1024C000680500200400002040771B000000204029
:1024D00030020020A40200203B0200205C02002009
:1024E00038020020390200202402002028020020A7
:1024F0002C020020080500201802002004050020FE
:102500001C02002000050020200200200023C9F842
:102510000030D8F800300133B3F5967FC8F80030AA
:102520007FF64CAF0122684B1A70684B684A1A60FC
:1025300040F22D13C8F8003040E7012364E7654AF4
:1025400088F8000013682BB1ABEB03031E2B88BF88
:1025500089F80000DAF80000C2F800B0FDF76EFF5D
:1025600057A3D3E90023FEF733FA00283FF4D8AD90
:1025700099F800300133DBB2042B89F800307FF684
:10258000D2AD01232370544B544AC3F800B000234A
:1025900089F8003042E60022514B52491A70524BE2
:1025A0001868FEF7B5FD4D4A30B9137823B94F4B83
:1025B000197801F0FF0381B10223237000234C49F5
:1025C00013700B704B494C4A0B70012313704B4A2C
:1025D00013704B4BC3F800B032E73F480168ABEBD8
:1025E0000101B1F57A7F7FF69EAD1370424A4549ED
:1025F0001370424A0B7013703D49364A0B701360DA
:102600003C49414A23700B70136003603C4A1360DD
:102610001EE041F658323A4D2B68ABEB0303934270
:1026200024D90023374A237013702D4A1370304A7F
:102630001370304A1370294A2B6013702E4A13709E
:102640002E4A1370234A13602F4A1360224A1360E4
:1026500000232E4A13602E4A13602E4A13602E4A1E
:1026600013602E4A13602E4A13605CE51E4F2D49FD
:102670003868FEF72FFD2C4E58B938684FF083416B
:10268000FEF746FD28B9337803F0FF020A92002BCB
:102690004CD0184A1378FF2B1CBF013313703378CA
:1026A0001BB91378032B7FF63EAD00231549237029
:1026B0000B700B490B700E490B70BBE7AFF300803A
:1026C000333333333333E33F680500200400002005
:1026D000E093040034020020600200203A0200204F
:1026E0003C020020000020408C0A0020A1020020B3
:1026F000A40200203B020020390200203802002002
:102700005C0200203D020020300200202C0200204C
:102710002802002024020020200200201C020020A9
:1027200018020020CDCCCC3DA2020020A24BA34E2B
:102730001D7831680135EDB21D70A14B1C78013454
:10274000E4B21C709F4B1868FEF71EFA9E4B306077
:102750009E4E834631681868FEF716FA9C4B30602F
:102760009C4E814631681868FEF70EFA9A4B30602D
:102770009A4E804631681868FEF706FA984B30602A
:10278000984E059031681868FEF7FEF9964B306058
:10279000964E069031681868FEF7F6F9132D074635
:1027A00030607FF6C0AC002C31D0914B1D78182DD5
:1027B0002DD84FF0180A2046FEF79AFA0AFB05FAC0
:1027C0008C4A04460146584602EB0A06FEF798FB7F
:1027D000884A214642F80A004846FEF791FB214606
:1027E00070604046FEF78CFB2146B0600598FEF70E
:1027F00087FB2146F0600698FEF782FB2146306198
:102800003846FEF77DFB7A4B013570611D704FF045
:1028100000086A4B684AC3F800806C4BC3F800801C
:102820006C4BC3F800806D4BC3F800806D4BC3F850
:1028300000806E4BC3F8008000231370604A137051
:102840006B4A1278182A7FF66EACCDE90E33CDE9CB
:102850001033CDE91233CDE91433CDE91633CDE988
:102860001833CDE91A331C934FF0FF43C246614C35
:10287000DFF88491CDF814800993CDF82080636847
:10288000D4F800B00693A368069907932369084615
:102890000D93FEF781FA07990B900846FEF77CFA34
:1028A00059460C905846FEF777FA0B99FEF76CF9EB
:1028B0000C99FEF769F9E668676909F0FDFD314694
:1028C00005463046FEF768FA0D9906460846FEF7BB
:1028D00063FA01463046FEF757F939460646384650
:1028E000FEF75AFA01463046FEF74EF909F0E4FDCC
:1028F00025F00047064649463846FEF713FC0028F7
:1029000040F0F98049463846FEF702FC002840F0C6
:10291000F28026F0004749463846FEF703FC0028BF
:1029200040F0E98049463846FEF7F2FB002840F0C7
:10293000E28029460EA8FEF79AFC314611A8FEF760
:1029400096FC594614A8FEF792FC069917A8FEF7C4
:102950008EFC07991AA8FEF78AFC0899284609F008
:10296000C5FD09990890284609F0D5FD5146099002
:10297000304609F0BBFD0C9982460B98FEF704F92E
:1029800009F09AFD1D4905465846FEF7FDF8014637
:10299000284609F08FFD1A49FEF7FEF90146059811
:1029A000FEF7F2F8049B05900633962B04F1180409
:1029B00004937FF464AF25E0390200202402002054
:1029C00038020020980A0020940A002028020020E3
:1029D000900A00202C020020080500201802002088
:1029E000040500201C020020000500202002002019
:1029F000A4020020A8020020FFFF7F7FBD3786359C
:102A0000E12E6542089B0EA82793099B2893FEF7A9
:102A10009BFC299011A8CDF8A8A0FEF795FC2B905F
:102A200014A8FEF791FC2C9017A8FEF78DFC2D90B2
:102A30001AA8FEF789FC60492E900598FEF760FA07
:102A4000039B2F90002B59D15C4B5D4A1A605B4B66
:102A500014211A681DA8032322ACFEF7A7FC032348
:102A6000584A14212046FEF7A1FC574D0A9A2B78AC
:102A7000002A00F091800121544A1170544ACDE996
:102A800000431DAB702130A806F0EAFE30A8FDF728
:102A900069FB642382B230A94E4805F0C2F80023D6
:102AA0004D4A2B7013704D4A13704D4A13704D4AA6
:102AB00013704D4A13704D4A13704D4A13704D4AAE
:102AC00013604D4A13604D4A13604D4A13604D4BDD
:102AD000C3F800804C4BC3F800804C4BC3F8008017
:102AE0004B4BC3F800804B4BC3F800804A4BC3F8F4
:102AF0000080FFF718BB0023039383E70025DFF86E
:102B00001CB1474E474F484C0DF19C0959F8043B06
:102B100046490393039B23F0004A5046FEF702FB0D
:102B2000002891D150464149FEF7F2FA00288BD196
:102B300056F8043B5BF8041B57F804AB0398049366
:102B4000FEF720F80499FEF727F95146FEF724F91D
:102B500001462046FEF718F80135EDB2092D04466E
:102B6000D4D1164B20F00045186030492846FEF7B6
:102B7000D9FA00287FF46BAF28462C49FEF7C8FA33
:102B800000287FF464AF20460E49FEF7C1FA031E09
:102B900018BF01230A935AE7CDE90043244A1DAB2D
:102BA00070E700230F4A2370137089F80030064A3B
:102BB00088F8003014E100BF0000C8415002002036
:102BC000000080FF50D5983E3B020020870A00207D
:102BD00019CA0008200B0020840A00203D020020B2
:102BE0003C020020A40200203A020020390200200A
:102BF0003802002034020020300200206002002051
:102C00005C0200202C020020280200202402002068
:102C1000200200201C0200201802002038D30008E7
:102C200014D30008F0D20008384C07C0FFFF7F7FA4
:102C300048CA0008BDF8C030BDF8C2705BBA7FBAA0
:102C4000ADF810301FFA83FABBB20993BDF8C83053
:102C5000BDF8C4600593BDF8CA3076BA0793BDF8D5
:102C6000CC30B2B2BDF9100008920693FEF740F8DE
:102C70004FF06851FEF790F83DB203902846FEF7FA
:102C800037F84FF06851FEF787F834B20546204612
:102C9000FEF72EF84FF06851FEF77EF803990446D0
:102CA0000846FEF779F8294681462846FEF774F86B
:102CB00001464846FDF768FF214681462046FEF75B
:102CC0006BF801464846FDF75FFF09F0F5FBDDE9CB
:102CD000082347F6BB7181464FF676708A441FFA87
:102CE0008AFA82457FF66EA90022444B44491A7045
:102CF00001230B7043490B7043490B6801330B6090
:102D00004EF20401414B1960414B1A7002230393A8
:102D1000404B1B780BB1FEF7EBFB3F4C2378012BAC
:102D20007FF4D7A93D4A1368ABEB0303B3F57A7F71
:102D30007FF6CFA900233A4913600B7039493A4A0C
:102D40000B703A4923700B7039490B7039490B707D
:102D500039490B7039490B7039490B6039490B609F
:102D600013600023384A1360384A1360384A1360EE
:102D7000384A1360384A1360384A13600923039AAB
:102D8000D34013F0010304937FF4CDA9012A344A00
:102D90003FF428AA0499334B1980224B1170197003
:102DA0002378012BDAB204D1154B1B780BB1214BE0
:102DB0001A702378022B7FF4B1A91D4A1378FF2BD8
:102DC0001CBF013313700E4B1B781BB91378032BF8
:102DD0007FF6A4A90023124923700B7013490B70CE
:102DE0001370144A1370144A1370144A1370144A5F
:102DF0001360144A1360094A136007E44C02002070
:102E0000A2020020A1020020700200207C0200200B
:102E10004D020020850A0020840A00206002002064
:102E20003D0200203C0200205C020020A4020020A1
:102E30003B0200203A020020390200203802002024
:102E400034020020300200202C0200202802002042
:102E500024020020200200201C0200201802002072
:102E6000A00200209E0200202DE9F041044601F05E
:102E70005FFC05460F4E104FDFF8408001F058FC14
:102E8000431BA34201D3BDE8F081FEF7B5FC3378C4
:102E90001BB100233370FFF70FF83B781BB9FEF727
:102EA000F7FCFEF75DFE404604F08BF8012001F0D0
:102EB00045FCE3E7880A002074060020B00B0020E0
:102EC0002DE9F04F06460F4693460125C3B0DFF8C3
:102ED0006081DFF8609101935D4503D9002388F894
:102EE000003041E0FEF73CFEFEF7D2FC0123304605
:102EF00088F80030FEF7A8FCFDF734F94FF47A7338
:102F000082B231464C4804F08CFE01F011FC4FF4C3
:102F100080720090002102A806F02BFD002401F031
:102F200007FC009BC01A019B984203D3642315221F
:102F300042496CE0FEF760FC99F80030012B04D1A7
:102F4000002389F80030FEF7B7FF3D4B1B789BB993
:102F50003C4B1B78012B0BD1642326223A493B487A
:102F600004F05FFEFEF7DEFC002043B0BDE8F08F0A
:102F7000374B1B78012BEFD0364B1B7803F0FF0A41
:102F8000002BEFD1344A354B11881B8889B29BB294
:102F9000994228D0138832499BB2C85C13880A280A
:102FA00003F10103C3F30903C1B213801FD102ABC4
:102FB000184603F804A0FEF757FD47B1394602A8AA
:102FC00006F01AFD18B1012088F800A0CDE72549C8
:102FD00002A806F011FD044628BB01464FF480729A
:102FE00002A806F0C6FC204803F0EBFF97E70D2986
:102FF000F9D0FE2C04D8631C02AA11559CB2F2E74A
:103000001A4A1B4913680133136064231E220F48B8
:1030100004F007FE0135FEF785FC40F2DC50FFF7B7
:1030200023FFEDB258E764231B221249EFE700BFEC
:1030300074060020880A0020D80A0020E1CA00088F
:1030400059050020870A002079CA0008200B0020BB
:10305000820A0020760600207E06002080060020DE
:1030600082060020A0CA0008B00B002070060020D5
:10307000A6CA0008C5CA00082DE9F04164231F2232
:103080003649374804F0CDFD0524364D364E2B78B1
:1030900033B93378002B5FD1344B1B78002B5BD1D5
:1030A0004FF4FA63012232493248FFF709FF70B941
:1030B00064231C2230492A4804F0B3FD4FF47A708F
:1030C000FFF7D2FE2D4803F07CFF013CDFD14FF427
:1030D000FA63032226492A48FFF7F2FE4FF4FA6307
:1030E000032223492748FFF7EBFE0A241E4E1F4FF9
:1030F000DFF894802B781BB933786BBB3B785BBBD4
:103100004FF4FA63012241462048FFF7D9FE38B157
:10311000642318221E491248BDE8F04104F081BD25
:103120004FF4FA6301221B491848FFF7C9FE002833
:10313000EED164231E221849094804F072FD4FF4B1
:10314000FA60FFF791FE0D4803F03BFF013CD1D13F
:1031500064232C221149DEE7BDE8F081F7CA00089C
:10316000200B002059050020870A0020820A002039
:1031700017CB00081ACB00081FCB0008B00B0020AB
:103180003CCB000843CB00084FCB00085BCB0008CA
:1031900067CB000880CB00088CCB0008ABCB0008C5
:1031A00064231E2210B51149114804F03AFD4FF472
:1031B000FA6302220F491048FFF782FE28B9642300
:1031C00022220E490A4804F02CFD4FF4FA63022231
:1031D00008490B48FFF774FE38B9BDE81040642376
:1031E00021220849024804F01CBD10BDD8CB0008BC
:1031F000200B002017CB0008F7CB000807CC0008F5
:103200002ACC00083BCC00080022074B07491A7063
:103210000023074A07481360074A13604FF4FA6314
:103220000122FFF74DBE00BF860A002017CB000821
:10323000A80A00205DCC0008A40A00202DE9F74F61
:1032400006460D4693460124434FDFF81091019343
:103250005C4502D900233B7048E0FEF781FCFEF795
:1032600017FB012330463B70FEF7EEFAFCF77AFFBE
:103270004FF47A7382B23146394804F0D2FC01F03F
:1032800057FA804601F054FA019BA0EB08009842DF
:103290000ED364231B223349334804F0C2FC0134AB
:1032A000FEF740FB4FF47A70FFF7DEFDE4B2CFE7A4
:1032B000FEF7A2FA99F80030012B04D1002389F817
:1032C0000030FEF7F9FD294B1B789BB9284B1B7882
:1032D000012B03D0274B1B78012B0BD16423262213
:1032E0002549214804F09DFCFEF71CFB002003B09B
:1032F000BDE8F08F214B1B7803F0FF0A002BF3D1C0
:103300001F4A204B11881B8889B29BB2994203D176
:103310001D4803F056FEB5E713881C499BB2C95CF3
:1033200013883E2903F10103C3F309031380EFD18E
:103330003220FFF799FD2846FCF714FF4FF47A730B
:1033400082B22946064804F06CFC3220FFF78CFD5F
:10335000012087F800A0CAE774060020880A002030
:10336000D80A00206CCC0008200B00205905002052
:10337000870A0020820A002079CA00087606002009
:103380007E06002080060020B00B00208206002070
:103390002DE9F04FC3B04FF4807206460F4602A8E5
:1033A000002106F0E6FA01F0C3F90123804600246B
:1033B000404DDFF80491DFF804B12B7001F0B8F94B
:1033C000A0EB0800B84201D300235DE0FEF714FA39
:1033D00099F8003023B1002389F80030FEF76CFD26
:1033E000374B1B7853B99BF800301BB1FEF79AFAA4
:1033F00000203AE0334B1B78002BF7D1324B1B787F
:1034000003F0FF0A002BF1D13049314B08881B88AB
:1034100080B29BB2984241D00B882E489BB210F8E4
:1034200003C00B88BCF10A0F03F10103C3F30903C6
:103430005FFA8CF00B8029D102AB184603F804A088
:10344000FEF712FB314602A806F0D6FAA0B13046CC
:103450002149FCF77DFE044650B9204902A806F038
:10346000CBFA003818BF01202C7043B0BDE8F08FB4
:10347000012085F800A0F8E70190194902A806F09C
:10348000BBFA019B044648B12B70B1E70D2805D06B
:10349000FE2C07D8631C02AA10559CB2114803F0F9
:1034A00090FD8BE7104985F800A00B6801330B6095
:1034B0009EE700BF74060020880A0020870A0020CB
:1034C00059050020820A0020760600207E06002092
:1034D000800600208206002088CC000893CC0008DB
:1034E000A0CA0008B00B002070060020F0B5B5B0EF
:1034F00001F03CF9044601F033F9234620213F4A0C
:10350000009007A806F0ACF960213D4A07AB1CA863
:1035100006F0A6F900233B4D27223B492B703B4880
:10352000642304F07EFB4FF4FA63022238493948E1
:10353000FFF7C6FC4FF4FA63022235493648FFF71D
:10354000BFFC4FF4FA63022231493448FFF7B8FC5C
:1035500040F6B83303222E493148FFF7B1FCA8B139
:1035600040F6B83303222A491CA8FFF7A9FC68B12A
:103570004FF4FA5303222B492B48FFF7A1FC38B92B
:1035800064232E222949214804F04BFB35B0F0BDBD
:1035900002AA1646264B03F110071446186859680C
:1035A000083303C4BB422246F7D11B783046237050
:1035B000FCF7D8FD322103461E4A0FA806F050F949
:1035C00041F28833032231460FA8FFF737FE002867
:1035D000DCD040F6B8310E48FFF7DAFE0028D5D02F
:1035E00041F288311448FFF7D3FE0028CED00123E2
:1035F0001D222B7011496423C5E700BF97CC00083A
:10360000A5CC0008830A0020BBCC0008200B0020BA
:1036100017CB0008E3CC0008F7CC000807CD000862
:1036200016CD000893CC000826CD00085BCD00081D
:10363000BDCD00088ACD000888CC00089FCD0008C9
:103640001A232DE9F041F0B08DF81630554B0546A0
:103650001B78002B44D05448FDF72AFF534C524BA3
:10366000002818BF1C46524B524E1B78002B39D0F5
:10367000514B0BAF1A68182106233846FDF796FE0A
:103680004E4B0DF144081A68182106234046FDF7F9
:103690008DFECDE9017833784FF480710093484A6C
:1036A0002B4630A806F0DCF8642321224549464821
:1036B00004F0B7FA4FF4FA63032244494448FFF791
:1036C000FFFB1422002106A806F053F90022A35C98
:1036D00013B10132142AFAD123460021224418E002
:1036E000324CC0E733784FF480710093394A2B464F
:1036F00030A806F0B5F8D7E713F8010BA0F13004B5
:10370000092C01D92B2804D1122904D806AC605405
:1037100001319342F0D1002306AA535417A813464F
:1037200064212D4A06F09CF841F28833032230A927
:1037300017A8FFF783FD28B3C820FFF795FB0DF10D
:1037400016014FF47A730122244804F06AFA42F217
:1037500010712348FFF71CFE70B140F6B8311B48CA
:10376000FFF716FE40B164231A221E49164804F0E2
:1037700058FA70B0BDE8F081FEF7D4F864231B223C
:103780001949F3E71B2301228DF817300DF11701BA
:103790004FF47A73114804F044FA4FF49670FFF72F
:1037A00063FBE6E7AC0A0020AD0A0020C10A002056
:1037B000860A002008000020A80A0020A40A002091
:1037C000CECD000843CE0008200B002017CB000808
:1037D00043CB000814CE000865CE0008D80A0020AC
:1037E00074CE00087BCE000896CE00082DE9F0418B
:1037F000354C05462378DCB073B3344B344E1B781C
:103800006BB3344B04AF1A68182106233846FDF712
:10381000CDFD314B0DF128081A68182106234046CA
:10382000FDF7C4FD3378FA21CDE901832B4A2B46FD
:1038300000971DA806F014F811233221284A10A879
:1038400006F00EF841F288330322264910A8FFF74C
:10385000F5FC68B9002323705CB0BDE8F0813378D3
:10386000FA210093204A03461DA805F0F9FFE3E77B
:1038700040F6B8311D48FFF78BFD0028EAD01DA89F
:10388000FCF770FC32210346194A10A805F0E8FF46
:1038900041F2883303221DA910A8FFF7CFFC0028AE
:1038A000D8D040F6B8311148FFF772FD0028D1D0CA
:1038B00041F2883303220D490E48FFF701FB00282F
:1038C000CAD12070C8E700BF830A0020860A002002
:1038D00008000020A80A0020A40A0020B2CE000898
:1038E0002ACF00083FCF0008EDCE000817CB000814
:1038F00051CF000868CF0008F0B5394CCFB023781D
:10390000002B38D0374B384A1978384B05AD002991
:103910000CBF11461946284606F0FBF8344B354ECD
:103920001B7853B3344B18211A6808A80623FDF7F7
:103930003DFD324B0EAF1A68182106233846FDF7BD
:1039400035FD02953378B421CDE900732C4A08ABDC
:1039500021A805F085FF122332212A4A14A805F078
:103960007FFF4FF4FA630222274914A8FFF766FC91
:1039700058B9002323704FB0F0BD0095B4213378BF
:10398000224A21A805F06CFFE5E740F6B83120484F
:10399000FFF7FEFC0028ECD021A8FCF7E3FB322166
:1039A00003461C4A14A805F05BFF4FF4FA63022299
:1039B00021A914A8FFF742FC0028DAD040F6B8315C
:1039C0001348FFF7E5FC0028D3D04FF4FA63022236
:1039D0000F491148FFF774FA0028CCD12070CAE7CC
:1039E000830A00206805002084CF00087DCF0008EE
:1039F000860A002008000020A80A0020A40A00204F
:103A00008ACF00082ACF000804D00008C6CF0008DB
:103A100017CB000851CF000817D0000830B595B07B
:103A2000202200210BA805F0A4FF1422102400215D
:103A30000DEB020005F09DFF2246002101A805F0D4
:103A400098FF01250A23CDE90E540A9302244FF46E
:103A5000E0130AA810951194139303F0C9FA08B162
:103A600072B6FEE70F23CDE907000990294605A8A5
:103A7000CDE9053403F07EFC08B172B6FEE74FF4E1
:103A8000804301A80194039303F036FD08B172B698
:103A9000FEE715B030BD0000F8B500240A27264621
:103AA000234D284600F0CAFF0121284600F064FE9D
:103AB00028B9284600F004FF01340644E4B2284641
:103AC00001F0C2F8013FECD114B91A4B1878F8BDD7
:103AD0003046FDF709F905462046FDF705F9014690
:103AE0002846FDF70DFA1449FDF70AFA1349FDF7C8
:103AF00053F90146FDF748F81149FDF743F811491C
:103B0000FDF7FEF91049FDF747F90F490446FDF7A7
:103B1000FFFA30B900212046FDF7DCFA10B100248D
:103B200000E0094C2046FDF713FBC0B2CFE700BF11
:103B3000540C00200800002000F07F453333534030
:103B4000CDCC4C40FCFF7F3F0000C84270B504461E
:103B500000F0EEFD1749184A0B782BB947F22F55A4
:103B60001368C31AAB4224D9002510600D700122DE
:103B70003021124801F06CFD0123114E3370FFF724
:103B800043FBFFF789FF0F4B1870FFF7AFFC4FF4B3
:103B90007A70FFF769F92046FFF752FD2046FFF7DC
:103BA00025FE35702A46BDE870403021034801F0FB
:103BB0004FBD70BD090000204002002000080140F8
:103BC00059050020080000202DE9F04F6C4CB1B0E1
:103BD00000F090FDFFF722FF102200210FA805F052
:103BE000C8FEA369002243F00403A361A369302146
:103BF00003F004030B930B9BA369624843F0080393
:103C0000A361A369002503F008030C930C9B01F04A
:103C10001FFD002201215C4801F01AFD012630231E
:103C200002274FF4E13A4FF00C0956480FA9CDE9AD
:103C30000F36CDE9115701F0C3FB53480FA9CDE969
:103C40000F66CDE9115701F0BBFB4F480FA9CDE935
:103C50000F75119601F0B4FB63693A463343636113
:103C600063692946334011200A93484C0A9B01F0AE
:103C700087F8112001F0B4F8FDF77CFB444B204697
:103C8000C4E9003AC4E90255C4E905952561E56136
:103C900003F098FF08B172B6FEE706233D483E499F
:103CA000C0E9001340F6FF73836003F061F98046BA
:103CB00008B172B6FEE7102201460FA805F059FEC2
:103CC00048F69F434FF08042344DCDE90D88C5E959
:103CD000002309232846C5E90338C5F80880C5F83C
:103CE000188003F0D5FD08B172B6FEE74FF480539B
:103CF00028460FA90F9303F001FE08B172B6FEE744
:103D0000CDE90D000DA9284603F092FE034608B147
:103D100072B6FEE72248234AC0E90233C0E9002A0E
:103D2000C0E90439C0E9063303F04CFF08B172B6AC
:103D3000FEE71D4D1D4BCDE90F002B604FF46023B6
:103D40001190A8602873287568602846EB612E6181
:103D500000F0FCFE08B172B6FEE70523CDE90F06C0
:103D60000FA92846119300F0AFFD08B172B6FEE727
:103D7000284600F083FF0546D0B172B6FEE700BFCB
:103D80000010024000080140000C0140200B002000
:103D900000380140B00B002000300040680B0020CC
:103DA000D80A002000440040540C002000240140A8
:103DB000FDF73CFCFDF760FCA94BDFF8A8B293F8D7
:103DC0000080A94BA94993F80090A94B5FFA88F8A5
:103DD00093F800A0A74B5FFA89F91A789BF8003096
:103DE0000968DBB209920893079103F05FFB07991A
:103DF000089B099A5FFA8AFACDE901A205909E4ACA
:103E00000491039384214346CDF800900FA805F058
:103E100027FD642382B20FA9204603F002FF2A4641
:103E200029461F2000F0ACFF32462946202000F032
:103E3000A7FF3A462946112000F0A2FF2A46314644
:103E40001C2000F09DFF2A463946262000F098FFEE
:103E50009BF800300BB1FDF74BFB884803F024FCC6
:103E600001228749874804F042F910B10122864BAC
:103E70001A704FF47A70FEF7F7FF0122834811465B
:103E800001F0E6FB40F2DC50FEF7EEFF00220121DC
:103E90007E4801F0DDFB64232C227D497D4803F040
:103EA000C0FE0A244FF47A70FEF7DEFF013CF9D120
:103EB000FFF7E2F89624FFF773F9774E774D3378E2
:103EC000774F73B92B7803F0FF0253B93B78012B7E
:103ED00002D13A70FDF7F0FF6420FEF7C5FF013C08
:103EE000EDD1FFF703FB4FF47A70FEF7BDFFFFF74C
:103EF0008BF9FFF7D1FDDFF8ACB16B4B18709BF875
:103F000000300BB1FFF7F8FC00F012FCDFF89C91D9
:103F100001221021C9F80000654801F099FBC82072
:103F2000FEF7A2FF00221021614801F091FBDFF8AB
:103F300084A1DFF87C81FDF75FFCFDF7A9FC3B78ED
:103F4000012B03D100233B70FDF7B6FF9AF8003038
:103F500083B100F0EDFB04465748FDF7A9FA30B1F4
:103F600055495648FCF7F4F8002840F0BD8000237E
:103F70008AF80030FDF7F4FD2B78514C012B02D06C
:103F80003378012B14D12378002B40F0D18001230A
:103F9000237000F0CDFB4B4B18602B784A48012B67
:103FA0000CBF4A494A4905F0B4FD00232B70337019
:103FB0002378F3B100F0BCFBC823B0FBF3F0C307D8
:103FC00054BF012200221021404601F041FB00F0C5
:103FD000AFFB3C4B1B68C01A42F21073984208D9E1
:103FE000002240461021227001F032FB3648FFF7D4
:103FF000ADFD33782278134329D1364B1B7833B388
:10400000354B1B781BBB00F093FBD9F80030C01A6E
:10401000324B1B6898421AD3FFF7F6F8FFF73CFDC6
:10402000214B1870FFF762FA4FF47A70FEF71CFF0D
:104030009BF800303BB1FFF75FFC64231A2228494C
:10404000144803F0EEFD00F073FBC9F800002548AA
:1040500002F0B7FF0121002002F0BAFF6BE700BFBA
:1040600066020020850A0020650200207C020020F4
:10407000640200204E0200202CD00008680B0020B3
:104080007C060020D80A002075060020000C0140A4
:104090006DD00008200B0020870A0020820A002033
:1040A000880A0020830A0020080000206405002000
:1040B00000080140AC0A0020AD0A0020C10A00201F
:1040C000580500205405002012050020BDD000082E
:1040D000DAD00008A0020020840A0020040000209A
:1040E0000DD10008B00B00201A4A1B4913782BB1E0
:1040F0000B681A48E31A8342FFF43CAF01231848C7
:104100000C601370FDF73AFA00283FF433AF154BFB
:1041100013221846124905F046FC00226423C2749B
:104120008AF8002010492222104803F07AFD21E786
:104130002B78012B7FF439AF0022404610212270EA
:1041400001F086FA642321220949084803F069FD39
:104150002BE700BF540200205802002080EE3600FA
:10416000AD0A0020C10A00209AD00008200B0020D0
:10417000EBD000080268054B9A4205D10022044B9F
:104180001A700122034B1A70704700BF00540040A0
:104190009D0200209C02002008B50268074B9A424D
:1041A0000BD102F0E3FE064B064A186000231370A1
:1041B000054A13700122054B1A7008BD00540040D7
:1041C000800200209D0200209C0200209B02002013
:1041D0000268134B10B59A4219D1124A124913883A
:1041E00009880133C3F3090389B2994210D00F48FB
:1041F000118804780E4889B24454138001220B4977
:104200000C4803F074FF10B101220B4B1A7010BD63
:104210000A4A1368013313600122094B1A70EDE753
:1042200000440040800600207E0600207C0600201E
:1042300082060020D80A002075060020780600209B
:10424000760600200268044B9A4204D10123034AF7
:104250001370034A13707047004400407606002034
:10426000750600200368B3F1804F0CD1064B1B7814
:104270004BB9064B1A7822B1054A13680133136013
:10428000704701221A7070479A020020880A0020A5
:104290007802002072B6FEE70E4B82B09A6942F0B7
:1042A00001029A619A6902F001020092009ADA69A9
:1042B00042F08052DA61DB69074A03F080530193D0
:1042C000019B536823F0E06343F00073536002B036
:1042D000704700BF001002400000014010B50446C6
:1042E00086B01022002102A805F043FB2268104B83
:1042F0009A421BD103F56C439A690E4842F400724E
:104300009A619A6902A902F400720092009A9A696D
:1043100042F004029A619B69012203F004030193B5
:10432000019B0323CDE9022301F04AF806B010BD3A
:10433000002401400008014030B5054687B0102236
:10434000002102A805F015FB2A68244B9A4242D1AD
:10435000234CC022A369234843F00803A361A36947
:1043600002A903F008030093009B1223CDE9022366
:104370000323059301F024F8E369802243F400133A
:10438000E361E369184903F400130193019B0023DF
:10439000164CC4E90013C4E90323C4E90533A36040
:1043A0004FF440532046E36100F04EFD08B1FFF7A3
:1043B00071FF00221F201146AC63656200F0E0FC33
:1043C0001F2000F00DFD00222020114600F0D8FC37
:1043D000202000F005FD07B030BD00BF00540040B4
:1043E00000100240000C014080000240100C002030
:1043F00002680F4B10B59A42044617D10D4A40216E
:10440000D3690D4823F40013D36101F0ADF8802186
:10441000094801F0A9F8A06B00F046FD1F2000F04C
:10442000EDFCBDE81040202000F0E8BC10BD00BF4E
:104430000054004000100240000C0140036807B522
:10444000B3F1804F15D103F50433DA69012142F04D
:104450000102DA61DB69002203F0010301931C20F1
:10446000019B00F08DFC1C2003B05DF804EB00F014
:10447000B7BC03B05DF804FB102230B5044689B028
:104480000DEB0200002105F074FA23682F4A9342D5
:1044900029D12F4B2F489A6904A942F480429A618E
:1044A0009A6902F480420092009A9A6942F00402EA
:1044B0009A619B694FF4007203F004030193019B1E
:1044C0000223CDE904230323079300F079FF4FF47F
:1044D000806100231F48CDE9041304A9069300F06E
:1044E0006FFF09B030BD1C4A9342FAD1184B022528
:1044F000DA6904A942F40032DA61DA69154802F493
:1045000000320292029A9A69002442F004029A61EF
:104510009B6903F004030393039B0423CDE9043553
:104520000323079300F04CFF082304A90948CDE9B1
:104530000434069400F044FF22462946262000F069
:104540001FFC262000F04CFCCBE700BF00380140E8
:10455000001002400008014000440040FEE7FEE772
:10456000FEE7FEE7FEE770477047704700F0D4B8FB
:10457000014800F065BD00BF100C0020014803F0A9
:10458000C1B800BF680B0020014801F0F7BF00BFB1
:10459000BC0B0020014802F049BC00BFBC0B00204E
:1045A000014803F041BC00BFD80A00200120704739
:1045B00008B505F081FA162303604FF0FF3008BDFF
:1045C00008B505F079FA16230360FEE770B50D46CD
:1045D00014460E46731B9C4201DC204670BDAFF3AF
:1045E000008006F8010BF5E770B50D4614460E463F
:1045F000731B9C4201DC204670BD16F8010BAFF323
:104600000080F5E74FF0FF3070474FF40053002073
:104610004B60704701207047002070470B4A0346EB
:10462000116810B509B90A491160106809490A4CA6
:104630000344091B8B4206D905F03EFA0C230360A4
:104640004FF0FF3010BD1360FCE700BF840C00206A
:10465000000E002000500020000400007047000001
:10466000FFF7FCFF0B480C490C4A002302E0D4582A
:10467000C4500433C4188C42F9D3094A094C0023AE
:1046800001E013600432A242FBD305F01BFAFFF7EE
:104690009BFA704700000020E401002038D6000893
:1046A000E8010020FC0D0020FEE7000038B50E4BAD
:1046B00005461A784FF47A73B3FBF2F30B4A10688D
:1046C000B0FBF3F000F0ACFB044658B90F2D09D84D
:1046D000024629464FF0FF3000F052FB2046044BC3
:1046E0001D6038BD0120FCE71400002010000020F0
:1046F00018000020074A08B51368032043F0100390
:10470000136000F02BFB0020FFF7D0FFFFF7C4FD84
:10471000002008BD00200240034A044B11681B78AA
:104720000B441360704700BF880C00201400002069
:10473000014B1868704700BF880C002038B504464C
:10474000FFF7F6FF0546631C1EBF044B1B78E418F9
:10475000FFF7EEFF431BA342FAD338BD140000203D
:10476000014BD3F8E807704700F0FF1F014BD3F867
:10477000EC07704700F0FF1FF7B5002604460D4612
:104780000196FFF7D5FF236807469A68D10508D53B
:104790000120A36A84F8246043F02003A36203B0DD
:1047A000F0BD5A68D20503D4DB6A13F4700F3DD014
:1047B0003D4B02201E6802F019FF23683B4A19692D
:1047C000B6FBF0F611423A4A51D1D868394908424D
:1047D0004DD1196911425BD1DA68374B1A420CBFCF
:1047E000142329235E43019BB34223D26A1C04D0C5
:1047F000002D53D1019BB3420AD3019B0133019396
:10480000F1E76E1C13D065B923681B6898070DD4B7
:10481000A36A032043F00403A362002384F8243036
:10482000BDE7FFF785FFC01BA842EDD822681368DB
:104830009907E6D56FF0120322681360A36A43F468
:104840000073A362936803F46023B3F5602F0CD167
:10485000237B53B9A36A23F48073A362A36ADB04A6
:1048600003D4A36A43F00103A362002097E7196908
:10487000114203D1D968104A11420BD019690F4A6D
:10488000114209D1DB6813420CBF5423FC23A9E772
:104890002923A7E75423A5E7FC23A3E7FFF748FF55
:1048A000C01BA842A6D8A8E71000002024499224E3
:1048B00092244912244992009224490049922400EA
:1048C0000368D86C70470000002373B5019390F81B
:1048D00024300446012B6CD0012380F824304D682D
:1048E0000268062D086805EB850322D81F26556B44
:1048F000053B9E4025EA060500FA03F32B4353636C
:1049000009288B6800EB40054FF0070129D9D668CC
:104910001E3DA94026EA0101AB400B43D360A0F144
:104920001003012B25D90020002384F8243002B085
:1049300070BD0C2D4FF01F0509D8166B233B9D4011
:1049400026EA050500FA03F32B431363D8E7D66A7A
:10495000413B9D4026EA050500FA03F32B43D36251
:10496000CEE71069A94020EA0101AB400B43136177
:10497000D9E7114B9A4216D193681B02D3D493689E
:10498000102843F400039360CDD10C4B0C4A1B68F4
:10499000B3FBF2F30A2253430193019B002BC2D0D5
:1049A000019B013BF8E7A36A012043F02003A362C7
:1049B000BAE70220BBE700BF00240140100000203E
:1049C00040420F00002337B50193036804469A68FC
:1049D000D20702D5002003B030BD9A6842F0010230
:1049E0009A60144B144A1B68B3FBF2F30193019BCA
:1049F000E3B9FFF79DFE054623689B68DB07E9D412
:104A0000FFF796FE401B0228F6D923689B6813F037
:104A10000103F1D1A26A012042F01002A262E26A0F
:104A200084F8243042F00102E262D4E7019B013BAA
:104A3000DCE700BF1000002040420F0010B590F8E6
:104A400024300446012B54D0012380F82430FFF792
:104A5000B9FF002849D1A36A274A23F4407323F001
:104A6000010343F48073A3622368934204D1234972
:104A70004A6812F4702F2ED1A26A22F48012A26228
:104A80005A68520541BFA26A22F4405242F4805251
:104A9000A262A26A12F480521CBFE26A22F00602ED
:104AA000E262002284F824206FF002021A609A6801
:104AB00002F46022B2F5602F13D10F4A934205D160
:104AC000A2F58062526812F4702F0AD19A6842F4FB
:104AD000A0029A6010BDA26A42F48012A2624A68E3
:104AE000CFE79A6842F48012F3E7002384F8243079
:104AF000F0E70220EEE700BF00280140002401405B
:104B000038B5036804469A68D10701D4002038BD3F
:104B10009A6822F001029A60FFF70AFE05462368B0
:104B20009B68DB07F2D5FFF703FE401B0228F6D98E
:104B300023689B68DA07F2D5A36A012043F01003CB
:104B4000A362E36A43F00103E362E0E7F8B50446D9
:104B500000286DD0836A23B9C36280F82430FFF740
:104B6000BDFB2046FFF7CCFFA36A13F0100361D111
:104B700000285FD1A26A616822F4885222F0020202
:104B800042F00202E569A668A262227B2943B6F5DB
:104B9000807F41EA420136D0771E7D427D412D0261
:104BA000277D012F06D182BBA269013A45EA423234
:104BB00042F400652268B6F5807F576827F469479C
:104BC00045EA0705556097681D4D05EA070545EA62
:104BD0000105956001D0012E02D12369013B1B051F
:104BE000D56A25F470052B43D3629268154B1340A8
:104BF000994213D10023E362A36A23F0030343F035
:104C00000103A362F8BD3546CAE7A26A42F020025A
:104C1000A262E26A42F00102E262CBE7A36A23F0F9
:104C2000120343F01003A362E36A43F00103E3625B
:104C30000120E7E7A36A43F01003A362F8E700BF8F
:104C4000FDF7E1FFFE0E1FFF10B590F8243004467B
:104C5000012B11D0012380F82430FFF751FF38B920
:104C6000A36A23F4885323F0010343F00103A362F2
:104C7000002384F8243010BD0220FCE7002373B524
:104C8000019390F824300446012B62D0012380F870
:104C90002430FFF735FF2046FFF794FE0546002835
:104CA0002FD1A36A022023F4885323F0020343F098
:104CB0000203A362284B1E6802F098FCB6FBF0F6D4
:104CC00076000196019B03BB2268936843F00803BA
:104CD0009360FFF72DFD064623689A68110718D4E4
:104CE0009A6842F004029A60FFF722FD06462368A4
:104CF0009B685B0723D4A36A23F0030343F00103FB
:104D0000A362002384F8243016E0019B013B019349
:104D1000D8E7FFF70DFD801B0A28DDD923689B68C3
:104D20001807D9D5A36A012523F0120343F0100315
:104D3000A362002384F82430284602B070BDFFF738
:104D4000F7FC801B0A28D2D923689B685A07CED566
:104D5000E8E70225F0E700BF100000200749030242
:104D6000CA6803F4E06322F4E0621204120C1343F5
:104D700043F0BF6343F40033CB60704700ED00E0C5
:104D8000154B30B5DC68C4F30224C4F10703251DBC
:104D9000042B28BF0423062D4FF0FF3594BF0024B9
:104DA000033C05FA03F321EA0303A54022EA0502C6
:104DB000A340002843EA0203ACBF00F16040074A69
:104DC0004FEA0313DBB2ABBF00F5614000F00F0008
:104DD00080F80033135430BD00ED00E014ED00E026
:104DE000002807DB01234109034A00F01F0083402C
:104DF00042F82130704700BF00E100E000280CDBE2
:104E000001220649430900F01F008240203341F887
:104E10002320BFF34F8FBFF36F8F704700E100E097
:104E20000138B0F1807F0BD24FF0E023F021054A2A
:104E3000586182F823100020072298611A61704798
:104E40000120704700ED00E0034610B530B3016863
:104E50001420134A0A44B2FBF0F292001A64114A79
:104E6000DA63022283F82120D3E901242243DC689B
:104E7000086822431C696FF30D1022435C692243CA
:104E80009C692243DC69224302430A60002001221C
:104E9000986383F8200083F8212010BD0120FCE7EF
:104EA000F8FFFDBF0000024010B508B30168114AC9
:104EB0000B680A4423F001030B6000230B604B6076
:104EC0008B60CB601421B2FBF1F201210A4C9200FD
:104ED000026401FA02F2C46362608363C0E90A33C8
:104EE000C0E90C3380F8213080F82030184610BD1E
:104EF0000120FCE7F8FFFDBF00000240F0B590F88C
:104F00002040012C34D0012480F8204090F821402A
:104F1000012CE5B24FF0000428D1022680F8216070
:104F200084630468266826F001062660D0E90F67CE
:104F3000BD40756063604368102BC36A0BBFA260FD
:104F4000A160E160E2604BB1236843F00E030020F2
:104F50002360236843F001032360F0BD236823F03E
:104F600004032360236843F00A03F0E780F820403D
:104F70000220F2E790F821200346022A06D00422FC
:104F800082630120002283F8202070470268C06BF2
:104F9000116821F00E011160116821F0010111600A
:104FA00001211A6C01FA02F24260002083F82110FC
:104FB000E8E7000008B590F82130022B03D0042365
:104FC0008363012008BD03681A6822F00E021A608C
:104FD0001A6822F001021A60174A93421FD0143255
:104FE00093421ED0143293421DD0143293421DD0EE
:104FF000143293421DD01432934214BF4FF0807389
:105000004FF480130D4A5360012380F821300023B0
:1050100080F82030436B03B198470020D2E701238A
:10502000F0E71023EEE74FF48073EBE74FF4805383
:10503000E8E74FF48033E5E7080002400000024053
:1050400070B40425C66B026C346803689540254231
:10505000196832D04D0730D51A6896065EBF1A68B7
:1050600022F004021A603E4A934219D0143293424D
:1050700018D01432934217D01432934217D01432FE
:10508000934217D01432934214BF4FF080634FF411
:105090008003344A5360C36A002B5ED070BC18474B
:1050A0000423F6E74023F4E74FF48063F1E74FF47D
:1050B0008043EEE74FF48023EBE70225954025423D
:1050C00035D08D0733D51A68940606D41A6822F0B5
:1050D0000A021A60012280F82120214A934219D045
:1050E0001432934218D01432934217D014329342A0
:1050F00017D01432934217D01432934214BF4FF09A
:1051000000734FF40013174A5360002380F82030D7
:10511000836AC1E70223F6E72023F4E74FF4007324
:10512000F1E74FF40053EEE74FF40033EBE70825C7
:105130009540254211D009070FD5196821F00E01BD
:105140001960012303FA02F27260836380F8213050
:10515000002380F82030036B9EE770BC704700BFCF
:10516000080002400000024090F821007047806B68
:1051700070470000114AD36813F0100305D010499E
:10518000CB6943F00203CB611023D268500706D5E8
:105190000B4943F00403CA6942F00102CA61074A9D
:1051A000D169C90708D50648C16941F00401C16148
:1051B000D16921F00101D161D36070470020024024
:1051C000900C0020064B186910F0800007D0054AAB
:1051D0005A6002F188325A601869C0F3C0107047F3
:1051E0000020024023016745034A0020136943F071
:1051F00080031361704700BF0020024070B5054670
:10520000FFF796FA0646114CE368D80712D4E36814
:10521000990644BF2023E360E368DA0606D4E36915
:10522000DB0703D4E06810F0040007D0FFF7A2FF0B
:10523000012003E06B1CE7D00DB9032070BDFFF720
:1052400077FA801BA842DFD9F7E700BF00200240B1
:105250002DE9F84FDFF894A01F469AF8183005465C
:10526000012B884691463FD001234CF250308AF8FA
:105270001830FFF7C3FF90BB012D03D0022D14BFE0
:105280000425022500263346DFF864B03401C4F15A
:105290002001A4F1200207FA01F129FA04F4CAF866
:1052A0001C300C4327FA02F21443DBF81020A4B29E
:1052B00042F00102CBF810204CF2503028F8164092
:1052C000FFF79CFFDBF8102022F00102CBF8102042
:1052D00028B90136F2B295424FF00003D6D8002328
:1052E0008AF81830BDE8F88F0220FBE7900C002008
:1052F000002002400022064BDA61064B1A6942F098
:1053000002021A6158611A6942F040021A6170473C
:10531000900C0020002002402DE9F041264F054668
:105320003B7E8846012B44D001243C7603684CF236
:105330005030022B1AD1FFF761FF20B1012000236A
:105340003B76BDE8F0811D4CF86123694CF250308A
:1053500043F004032361236943F040032361FFF713
:105360004DFF236923F004032361E8E7FFF746FFBD
:105370000028E3D14FF0FF33C8F800302046AE6874
:105380000E4CD5E9023203EB8223B342D7D9304623
:10539000FFF7B0FF4CF25030FFF730FF236923F0E6
:1053A0000203236110B1C8F80060C8E706F5806603
:1053B000E7E70220C5E700BF900C00200020024074
:1053C0002DE9F74F00244FF00F0E2646DFF884C179
:1053D000614B00F104080A6832FA06F502D103B005
:1053E000BDE8F08F012505FA06F702EA070537EA5E
:1053F000020276D14A68032A07D8013A022A00F24B
:105400008380DFE802F091969C00122A00F09480DD
:1054100069D8112A00F08A80FF2D94BF8146C146C9
:105420004FEA8602D9F8007088BF203A0EFA02FAD5
:1054300027EA0A0704FA02F21743C9F80070D1F804
:10544000049019F0805F4CD0DCF8182026F0030798
:1054500042F00102CCF81820DCF8182007F1804750
:1054600002F00102019207F5803706F0030A019A63
:105470004FEA8A0ABA680EFA0AFB22EA0B0B374A8D
:10548000904260D002F5806290425ED002F5806268
:1054900090425CD002F58062904214BF0422032245
:1054A00002FA0AF242EA0B02BA609A6819F4801F03
:1054B00014BF2A43AA439A60DA6819F4001F14BF84
:1054C0002A43AA43DA605A6819F4003F14BF2A43FA
:1054D000AA435A601A6819F4803F14BF2A43AA43AA
:1054E0001A60013677E7DFF878904A450CD014D877
:1054F000A9F580194A4507D009F570294A4503D016
:10550000A9F580194A4587D18A68D2B1012A4FF09E
:1055100008040CBF076147617EE7DFF848904A4501
:10552000F2D009F58039EDE7CC6875E7CC68043432
:1055300072E7CC6808346FE7CC680C346CE7002461
:105540006AE7042468E70022AAE70122A8E702220A
:10555000A6E700BF0010024000040140000801401F
:1055600000002210000031102DE9F74F4FF0040B1E
:1055700000224FF0010A4FF00F0800EB0B030193DC
:105580002E4B31FA02F402D103B0BDE8F08F0AFAD3
:1055900002F70F4049D022F0030404F1804404F5DF
:1055A000803402F0030CA5684FEA8C0C08FA0CF961
:1055B00009EA050E224DA84239D005F58065A842BA
:1055C00037D005F58065A84235D005F58065A8423D
:1055D00014BF0425032505FA0CF575456FEA070687
:1055E0000FD11D6835401D605D6835405D60DD6828
:1055F0003540DD609D6835409D60A56825EA090558
:10560000A560FF2F94BF0746019F4FEA82043D68C3
:1056100088BF203C08FA04FC25EA0C050BFA04F4C8
:1056200025433D60C4683440C4600132A9E70025C9
:10563000D1E70125CFE70225CDE700BF00040140F7
:10564000000801408368194214BF01200020704700
:105650000AB1016170470904FBE7016800224B6948
:1056600013F4806310D06FF480634B6120230263D6
:1056700080F83D3080F83E20036C80F83C2043F0F9
:105680000403036401207047184670472DE9F8466B
:1056900006460F4691461D464FEA114A3368BAF155
:1056A000010F0CBF5C699C6927EA0404A4B2B4FA38
:1056B00084F46409A14501D0002025E06A1CEED0E5
:1056C000FFF736F8089BC01AA84201D8002DE5D193
:1056D0003368BAF1010F0CBF5B699B6927EA0303CA
:1056E0009BB2B3FA83F35B099945D7D100232022FB
:1056F0000120336386F83D2086F83E30326C86F810
:105700003C3042F020023264BDE8F8862DE9F041D9
:1057100004460F46164698462568686927EA000041
:1057200080B2C0B16B695A0517D52B68202243F4AB
:1057300000732B606FF480636B610023236384F834
:105740003D2084F83E30236C43F00403236400239F
:10575000012084F83C30BDE8F081731CDDD0FEF7F9
:10576000E7FFA0EB0800B04201D8002ED4D1236897
:105770005A6927EA020292B2002ACDD000232022E1
:10578000236384F83D2084F83E30236C1343DDE727
:1057900070B504460D46164623685B691B0601D5A5
:1057A00000201EE02046FFF758FFC8B96A1CF3D05E
:1057B000FEF7BEFF801BA84201D8002DECD1236864
:1057C0005B6913F08003E7D12022236384F83D2036
:1057D00084F83E30226C84F83C3042F0200222648F
:1057E000012070BD2DE9F043154602689946136803
:1057F00085B043F480731360DDE90C780E463B46B8
:1058000000224FF00111CDF800800446FFF73EFF63
:10581000236838B11B68DB0502D54FF4007323649D
:10582000032620E006F0FE061E613A464346204667
:105830001849FFF76BFFA8B9236803905A693946E6
:1058400003929B69424603932046039BFFF7A0FF08
:10585000064660B1236C042B01BF2268136843F431
:10586000007313600126304605B0BDE8F083B9F13E
:10587000010F236802D1EDB21D61F4E72A0A1A6113
:10588000394642462046FFF783FF0028E2D12368CD
:10589000F1E700BF020001002DE9FF479A46DDE96C
:1058A0000C78036815461A680E4642F480621A6046
:1058B0001A684FF0011142F480721A603B460022D0
:1058C000CDF800800446FFF7E1FE236848B11B686D
:1058D000DB0548BF4FF400734FF0030048BF23645B
:1058E00021E05FFA86F906F0FE061E613A4643465D
:1058F00020462A49FFF70AFFA0B9236803905A6996
:10590000394603929B69424603932046039BFFF767
:105910003FFF58B1236C042B01BF2268136843F486
:1059200000731360012004B0BDE8F087BAF1010FE5
:1059300023681AD1EDB24246394620461D61FFF771
:1059400027FF02460028E5D1216820460B6843F472
:1059500080730B603B464FF00111CDF80080FFF7DC
:1059600095FE226860B11368B2E72A0A1A613946C7
:1059700042462046FFF70CFF0028CBD12368D9E729
:1059800049F001031361204643463A460349FFF7B5
:10599000BDFE003818BF0120C5E700BF02000100AE
:1059A00070B504460D46164623685B695B0701D552
:1059B00000201EE02046FFF750FEC8B96A1CF3D055
:1059C000FEF7B6FE801BA84201D8002DECD123685B
:1059D0005B6913F00403E7D12022236384F83D20A0
:1059E00084F83E30226C84F83C3042F0200222647D
:1059F000012070BD70B504460D46164621684B69FE
:105A000013F0400301D0002011E04A69D2060FD5FF
:105A10006FF010024A612022236384F83D2084F84D
:105A20003E30236C23640023012084F83C3070BD99
:105A3000FEF77EFE801BA84201D8002DDED1236830
:105A40005B6913F04003D9D12022236384F83D2001
:105A500084F83E30236C1343E4E7000070B504463D
:105A600008B9012070BD90F83D3003F0FF021BB96A
:105A700080F83C20FEF760FC242384F83D30236846
:105A80001A6822F001021A601A6842F400421A6091
:105A90001A6822F400421A6001F00EFD3F4B65685F
:105AA0009D4294BF3E4B3F4B98428CBF0023012345
:105AB000002BD6D1394E3C4BB542B0FBF3F388BF37
:105AC0004FF496762268516821F03F0141EA0301C4
:105AD00082BF73434FF47A76B3FBF6F35160116AD9
