:020000040800F2
:1000000000500020352F0008252D00082D2D000858
:10001000352D00083D2D0008452D0008000000008A
:100020000000000000000000000000004D2D00084E
:10003000592D000800000000652D0008712D0008F2
:100040007D2F00087D2F00087D2F00087D2F0008E0
:100050007D2F00087D2F00087D2F00087D2F0008D0
:100060007D2F00087D2F00087D2F00087D2F0008C0
:100070007D2F00087D2F00087D2F00087D2F0008B0
:100080007D2F00087D2F00087D2F00087D2F0008A0
:100090007D2F00087D2F00087D2F00087D2F000890
:1000A0007D2F00087D2F00087D2F00087D2F000880
:1000B0007D2D00087D2F00087D2F00087D2F000872
:1000C0007D2F00087D2F00087D2F00087D2F000860
:1000D0007D2F00087D2F00087D2F0008912D00083E
:1000E0007D2F00087D2F00087D2F000800000000F4
:1000F0000000000000000000000000000000000000
:0C01000000000000000000005FF808F1A3
:1001100010B5054C237833B9044B13B10448AFF341
:1001200000800123237010BDD801002000000000D2
:10013000ACAF000808B5034B1BB103490348AFF34C
:10014000008008BD00000000DC010020ACAF00080A
:10015000034613F8012B002AFBD1181A0138704707
:100160004FF0FF0C1CEAD0521EBF1CEAD15392EA9A
:100170000C0F93EA0C0F6FD01A4480EA010C400276
:1001800018BF5FEA41211ED04FF0006343EA5010D0
:1001900043EA5111A0FB01310CF00040B1F5000F12
:1001A0003EBF490041EAD3715B0040EA010062F1C1
:1001B0007F02FD2A1DD8B3F1004F40EBC25008BFAB
:1001C00020F00100704790F0000F0CF0004C08BFC9
:1001D00049024CEA502040EA51207F3AC2BFD2F196
:1001E000FF0340EAC250704740F400004FF00003A4
:1001F000013A5DDC12F1190FDCBF00F000407047DE
:10020000C2F10002410021FA02F1C2F1200200FA1B
:1002100002FC5FEA310040F1000053EA4C0308BFE2
:1002200020EADC70704792F0000F00F0004C02BF33
:10023000400010F4000F013AF9D040EA0C0093F0AE
:10024000000F01F0004C02BF490011F4000F013B08
:10025000F9D041EA0C018FE70CEAD15392EA0C0F76
:1002600018BF93EA0C0F0AD030F0004C18BF31F0E1
:10027000004CD8D180EA010000F00040704790F0B7
:10028000000F17BF90F0004F084691F0000F91F05B
:10029000004F14D092EA0C0F01D142020FD193EA21
:1002A0000C0F03D14B0218BF084608D180EA0100A9
:1002B00000F0004040F0FE4040F40000704740F085
:1002C000FE4040F44000704781F0004102E000BF72
:1002D00083F0004330B54FEA41044FEA430594EA06
:1002E000050F08BF90EA020F1FBF54EA000C55EA41
:1002F000020C7FEA645C7FEA655C00F0E2804FEA12
:100300005454D4EB5555B8BF6D420CDD2C4480EAF3
:10031000020281EA030382EA000083EA010180EA23
:10032000020281EA0303362D88BF30BD11F0004F71
:100330004FEA01314FF4801C4CEA113102D04042A7
:1003400061EB410113F0004F4FEA03334CEA1333E2
:1003500002D0524263EB430394EA050F00F0A780FA
:10036000A4F10104D5F1200E0DDB02FA0EFC22FAF5
:1003700005F2801841F1000103FA0EF2801843FAE9
:1003800005F359410EE0A5F120050EF1200E012ADA
:1003900003FA0EFC28BF4CF0020C43FA05F3C01818
:1003A00051EBE37101F0004507D54FF0000EDCF191
:1003B000000C7EEB00006EEB0101B1F5801F1BD33A
:1003C000B1F5001F0CD349085FEA30004FEA3C0C3E
:1003D00004F101044FEA445212F5800F80F09A8034
:1003E000BCF1004F08BF5FEA500C50F1000041EB38
:1003F000045141EA050130BD5FEA4C0C404141EB3C
:100400000101013C28BFB1F5801FE9D291F0000F36
:1004100004BF01460020B1FA81F308BF2033A3F1E5
:100420000B03B3F120020CDA0C3208DD02F1140CDC
:10043000C2F10C0201FA0CF021FA02F10CE002F117
:100440001402D8BFC2F1200C01FA02F120FA0CFC10
:10045000DCBF41EA0C019040E41AA2BF01EB045159
:10046000294330BD6FEA04041F3C1CDA0C340EDC57
:1004700004F11404C4F1200220FA04F001FA02F39A
:1004800040EA030021FA04F345EA030130BDC4F158
:100490000C04C4F1200220FA02F001FA04F340EA4D
:1004A0000300294630BD21FA04F0294630BD94F0FE
:1004B000000F83F4801306BF81F480110134013DE5
:1004C0004EE77FEA645C18BF7FEA655C29D094EA56
:1004D000050F08BF90EA020F05D054EA000C04BFD4
:1004E0001946104630BD91EA030F1EBF00210020BF
:1004F00030BD5FEA545C05D14000494128BF41F05E
:10050000004130BD14F580043CBF01F5801130BDC1
:1005100001F0004545F0FE4141F470014FF000004C
:1005200030BD7FEA645C1ABF194610467FEA655CFD
:100530001CBF0B46024650EA013406BF52EA03359F
:1005400091EA030F41F4002130BD00BF90F0000F8D
:1005500004BF0021704730B54FF4806404F13204C9
:100560004FF000054FF0000150E700BF90F0000F82
:1005700004BF0021704730B54FF4806404F13204A9
:1005800010F0004548BF40424FF000013EE700BF79
:1005900042004FEAE2014FEA31014FEA02701FBF09
:1005A00012F07F4393F07F4F81F06051704732F03B
:1005B0007F4208BF704793F07F4F04BF41F4002192
:1005C000704730B54FF4607401F0004521F00041F0
:1005D0001CE700BF50EA010208BF704730B54FF07A
:1005E00000050AE050EA010208BF704730B511F07B
:1005F000004502D5404261EB41014FF4806404F1B3
:1006000032045FEA915C3FF4D8AE4FF003025FEA38
:10061000DC0C18BF03325FEADC0C18BF033202EBBC
:10062000DC02C2F1200300FA03FC20FA02F001FA16
:1006300003FE40EA0E0021FA02F11444BDE600BFB9
:1006400070B54FF0FF0C4CF4E06C1CEA11541DBF68
:100650001CEA135594EA0C0F95EA0C0F00F0DEF833
:100660002C4481EA030621EA4C5123EA4C5350EA18
:10067000013518BF52EA033541F4801143F4801369
:1006800038D0A0FB02CE4FF00005E1FB02E506F0FA
:100690000042E0FB03E54FF00006E1FB03569CF04F
:1006A000000F18BF4EF0010EA4F1FF04B6F5007F55
:1006B00064F5407404D25FEA4E0E6D4146EB0606C7
:1006C00042EAC62141EA55514FEAC52040EA5E5050
:1006D0004FEACE2EB4F1FD0C88BFBCF5E06F1ED8FA
:1006E000BEF1004F08BF5FEA500E50F1000041EB31
:1006F000045170BD06F0004646EA010140EA0200DE
:1007000081EA0301B4EB5C04C2BFD4EB0C0541EAFF
:10071000045170BD41F480114FF0000E013C00F314
:10072000AB8014F1360FDEBF002001F0004170BD38
:10073000C4F10004203C35DA0C341BDC04F1140451
:10074000C4F1200500FA05F320FA04F001FA05F2DD
:1007500040EA020001F0004221F0004110EBD370AA
:1007600021FA04F642EB06015EEA430E08BF20EAD6
:10077000D37070BDC4F10C04C4F1200500FA04F379
:1007800020FA05F001FA04F240EA020001F000410B
:1007900010EBD37041F100015EEA430E08BF20EA7E
:1007A000D37070BDC4F1200500FA05F24EEA020EC6
:1007B00020FA04F301FA05F243EA020321FA04F0F5
:1007C00001F0004121FA04F220EA020000EBD370AC
:1007D0005EEA430E08BF20EAD37070BD94F0000FAC
:1007E0000FD101F00046400041EB010111F4801FE0
:1007F00008BF013CF7D041EA060195F0000F18BF91
:10080000704703F00046520043EB030313F4801FCC
:1008100008BF013DF7D043EA0603704794EA0C0F86
:100820000CEA135518BF95EA0C0F0CD050EA41069C
:1008300018BF52EA4306D1D181EA030101F0004119
:100840004FF0000070BD50EA410606BF1046194641
:1008500052EA430619D094EA0C0F02D150EA01364D
:1008600013D195EA0C0F05D152EA03361CBF10468E
:1008700019460AD181EA030101F0004141F0FE412D
:1008800041F470014FF0000070BD41F0FE4141F4B1
:10089000780170BD70B54FF0FF0C4CF4E06C1CEAB1
:1008A00011541DBF1CEA135594EA0C0F95EA0C0F66
:1008B00000F0A7F8A4EB050481EA030E52EA033521
:1008C0004FEA013100F088804FEA03334FF0805542
:1008D00045EA131343EA12634FEA022245EA11156F
:1008E00045EA10654FEA00260EF000419D4208BF20
:1008F000964244F1FD0404F5407402D25B084FEACD
:100900003202B61A65EB03055B084FEA32024FF478
:1009100080104FF4002CB6EB020E75EB030E22BFD5
:10092000B61A754640EA0C005B084FEA3202B6EB95
:10093000020E75EB030E22BFB61A754640EA5C0044
:100940005B084FEA3202B6EB020E75EB030E22BFD4
:10095000B61A754640EA9C005B084FEA3202B6EBD5
:10096000020E75EB030E22BFB61A754640EADC0094
:1009700055EA060E18D04FEA051545EA16754FEAF6
:1009800006164FEAC30343EA52734FEAC2025FEA14
:100990001C1CC0D111F4801F0BD141EA00014FF0A3
:1009A00000004FF0004CB6E711F4801F04BF014374
:1009B0000020B4F1FD0C88BFBCF5E06F3FF6AFAE90
:1009C000B5EB030C04BFB6EB020C5FEA500C50F120
:1009D000000041EB045170BD0EF0004E4EEA1131A3
:1009E00014EB5C04C2BFD4EB0C0541EA045170BDAA
:1009F00041F480114FF0000E013C90E645EA060EEE
:100A00008DE60CEA135594EA0C0F08BF95EA0C0F1B
:100A10003FF43BAF94EA0C0F0AD150EA01347FF463
:100A200034AF95EA0C0F7FF425AF104619462CE73A
:100A300095EA0C0F06D152EA03353FF4FDAE10469D
:100A4000194622E750EA410618BF52EA43067FF4EE
:100A5000C5AE50EA41047FF40DAF52EA43057FF47E
:100A6000EBAE12E74FF0FF3C06E000BF4FF0010C89
:100A700002E000BF4FF0010C4DF804CD4FEA410CED
:100A80007FEA6C5C4FEA430C18BF7FEA6C5C1BD0BA
:100A900001B050EA410C0CBF52EA430C91EA030F3B
:100AA00002BF90EA020F0020704710F1000F91EA98
:100AB000030F58BF994208BF90422CBFD8176FEA66
:100AC000E37040F0010070474FEA410C7FEA6C5C34
:100AD00002D150EA013C07D14FEA430C7FEA6C5C3B
:100AE000D6D152EA033CD3D05DF8040B704700BF67
:100AF0008446104662468C461946634600E000BFB5
:100B000001B5FFF7B7FF002848BF10F1000F01BD86
:100B10004DF808EDFFF7F4FF0CBF012000205DF851
:100B200008FB00BF4DF808EDFFF7EAFF34BF0120D6
:100B300000205DF808FB00BF4DF808EDFFF7E0FF6F
:100B400094BF012000205DF808FB00BF4DF808EDC0
:100B5000FFF7CEFF94BF012000205DF808FB00BF27
:100B60004DF808EDFFF7C4FF34BF012000205DF809
:100B700008FB00BF4FEA410C7FEA6C5C02D150EAEF
:100B8000013C0AD14FEA430C7FEA6C5C02D152EA85
:100B9000033C02D14FF0000070474FF00100704756
:100BA0004FEA410212F5001215D211D56FF4787395
:100BB000B3EB625212D94FEAC12343F0004343EA38
:100BC000505311F0004F23FA02F018BF4042704713
:100BD0004FF00000704750EA013005D111F000409D
:100BE00008BF6FF0004070474FF00000704700BF33
:100BF0004A0011D212F5001211D20DD56FF478739C
:100C0000B3EB62520ED44FEAC12343F0004343EAF0
:100C1000505323FA02F070474FF00000704750EA3B
:100C2000013002D14FF0FF3070474FF000007047A5
:100C30004FEA4102B2F1E04324BFB3F5001CDCF1FE
:100C4000FE5C0DD901F0004C4FEAC0024CEA507036
:100C5000B2F1004F40EB830008BF20F00100704765
:100C600011F0804F21D113F13872BCBF01F0004068
:100C7000704741F480114FEA5252C2F11802C2F19A
:100C8000200C10FA0CF320FA02F018BF40F001001B
:100C90004FEAC1234FEAD32303FA0CFC40EA0C00CD
:100CA00023FA02F34FEA4303CCE77FEA625307D10A
:100CB00050EA01331EBF4FF0FE4040F44000704741
:100CC00001F0004040F0FE4040F40000704700BFDB
:100CD00080F0004002E000BF81F0004142001FBFF1
:100CE0005FEA410392EA030F7FEA226C7FEA236CFA
:100CF0006AD04FEA1262D2EB1363C1BFD2184140EF
:100D000048404140B8BF5B42192B88BF704710F084
:100D1000004F40F4000020F07F4018BF404211F027
:100D2000004F41F4000121F07F4118BF494292EA8F
:100D3000030F3FD0A2F1010241FA03FC10EB0C00BB
:100D4000C3F1200301FA03F100F0004302D5494248
:100D500060EB4000B0F5000F13D3B0F1807F06D3F5
:100D600040084FEA310102F10102FE2A51D2B1F1ED
:100D7000004F40EBC25008BF20F0010040EA0300E2
:100D80007047490040EB0000013A28BFB0F5000F62
:100D9000EDD2B0FA80FCACF1080CB2EB0C0200FA18
:100DA0000CF0AABF00EBC25052421843BCBFD04067
:100DB0001843704792F0000F81F4000106BF80F4E1
:100DC00000000132013BB5E74FEA41037FEA226CA4
:100DD00018BF7FEA236C21D092EA030F04D092F06F
:100DE000000F08BF0846704790EA010F1CBF0020A3
:100DF000704712F07F4F04D1400028BF40F0004000
:100E0000704712F100723CBF00F50000704700F01F
:100E1000004343F0FE4040F4000070477FEA226246
:100E200016BF08467FEA23630146420206BF5FEA17
:100E3000412390EA010F40F4800070474FF0000317
:100E400004E000BF10F0004348BF40425FEA000CDE
:100E500008BF704743F0964301464FF000001CE086
:100E600050EA010208BF70474FF000030AE000BFDC
:100E700050EA010208BF704711F0004302D540421A
:100E800061EB41015FEA010C02BF8446014600208C
:100E900043F0B64308BFA3F18053A3F50003BCFAA7
:100EA0008CF2083AA3EBC25310DB01FA02FC634454
:100EB00000FA02FCC2F12002BCF1004F20FA02F25B
:100EC00043EB020008BF20F00100704702F120024E
:100ED00001FA02FCC2F1200250EA4C0021FA02F2AF
:100EE00043EB020008BF20EADC7070474FF0FF3C84
:100EF00006E000BF4FF0010C02E000BF4FF0010C14
:100F00004DF804CD4FEA40024FEA41037FEA226CDC
:100F100018BF7FEA236C11D001B052EA530C18BFFE
:100F200090EA010F58BFB2EB030088BFC81738BF63
:100F30006FEAE17018BF40F0010070477FEA226C51
:100F400002D15FEA402C05D17FEA236CE4D15FEA4D
:100F5000412CE1D05DF8040B704700BF8446084681
:100F60006146FFE70FB5FFF7C9FF002848BF10F142
:100F7000000F0FBD4DF808EDFFF7F4FF0CBF012087
:100F800000205DF808FB00BF4DF808EDFFF7EAFF11
:100F900034BF012000205DF808FB00BF4DF808EDCC
:100FA000FFF7E0FF94BF012000205DF808FB00BFC1
:100FB0004DF808EDFFF7D2FF94BF012000205DF847
:100FC00008FB00BF4DF808EDFFF7C8FF34BF012054
:100FD00000205DF808FB00BF38B50022002304465E
:100FE0000D46FFF79FFD28B920462946BDE8384049
:100FF00000F00AB8204605F1004100F005F8404233
:1010000061EB410138BD00BFD0B500220B4B064655
:101010000F46FFF715FBFFF7EBFD0446FFF796FAC7
:101020000022074BFFF70CFB02460B4630463946C1
:10103000FFF74EF9FFF7DCFD2146D0BD0000F03D83
:101040000000F041B0B58EB000AF786007F11C032E
:1010500000221A605A609A60DA601A6107F11C0374
:1010600013227968184607F046F902F03FFA002388
:10107000FB601E4B7B610123BB6107F1080207F196
:101080000C031146184602F019FB00237B6323E092
:1010900007F11C027B6B13441B781AB27B6B013384
:1010A00038333B4413F81C3C1BB21B021BB21343E6
:1010B0001BB27B867B6B03F1006303F57843194613
:1010C0007B8E00221C46154622462B46012002F04C
:1010D0009DF97B6B02337B637B6B132BD8DD02F0B6
:1010E0002BFA00BF3837BD46B0BD00BF00F800087E
:1010F00090B583B000AF0F4B7B607B681B78FF2BF4
:101100000CD07B681B78002B08D0132279680A4822
:1011100007F0F1F8084B0022DA7406E0064A074BA4
:1011200014460FCB07C4237000BF00BF0C37BD4669
:1011300090BD00BF00F800082C030020C8AF0008D5
:1011400080B586B004AF0023FB71642302930123B2
:101150000193FB1D009301237522D021324803F037
:1011600033F80346002B03D1304BD0221A7011E024
:101170006423029301230193FB1D00930123752235
:10118000D221294803F020F80346002B48D1274BF1
:10119000D2221A70FB79682B0ED0FB79692B0BD009
:1011A000FB79982B08D0FB79702B05D0FB79712B3C
:1011B00002D0FB79752B34D11D4B01221A7000230C
:1011C000BB711A4B1B7819466423029301230193C8
:1011D000BB1D009301236B22134802F0FBFE072383
:1011E000BB71124B1B7819466423029301230193B0
:1011F000BB1D0093012319220B4802F0EBFE0023D4
:10120000BB710A4B1B781946642302930123019397
:10121000BB1D009301231C22034802F0DBFE00E00B
:1012200000BF0837BD4680BDF40100206D070020D7
:101230006203002090B587B004AF5D4B1B78DBB232
:10124000002B01D10023AFE05A4B1B7819466423D1
:101250000293062301933B46009301233B22564809
:1012600002F0B2FF0346002B40F095803B781BB2A2
:101270001B021AB27B781BB213431AB24F4B1A806F
:10128000BB781BB21B021AB2FB781BB213431AB213
:101290004B4B1A803B791BB21B021AB27B791BB2F3
:1012A00013431AB2474B1A80444B1B881BB2184693
:1012B000FFF75CF94FF00002434BFFF7EBFA0246F1
:1012C0000B4610461946FFF7B3FC03463F4A13602E
:1012D0003B4B1B881BB21846FFF748F94FF0000242
:1012E000394BFFF7D7FA02460B4610461946FFF76F
:1012F0009FFC0346364A1360324B1B881BB21846CC
:10130000FFF734F94FF000022F4BFFF7C3FA024604
:101310000B4610461946FFF78BFC03462D4A136017
:101320002A4B1B68294A126811461846FEF718FF17
:1013300003461C46264B1B68254A12681146184670
:10134000FEF70EFF034619462046FFF7C7FC03468B
:101350001C46204B1B681F4A126811461846FEF7B0
:10136000FFFE034619462046FFF7B8FC0346184621
:10137000FFF70EF902460B461046194609F020FD0C
:1013800002460B4610461946FFF752FC0346124A26
:101390001360012308E0084802F0ECFD0A2001F088
:1013A00051FE01F003F9002318460C37BD4690BDED
:1013B000620300206D070020F40100204803002094
:1013C0004A0300204C0300200000D04050030020BE
:1013D00054030020580300205C03002080B400AFB9
:1013E00072B600BF044B1A88044B1A8062B600BF65
:1013F00000BFBD4680BC70476A0700206807002018
:1014000080B5BAB002AFF860B96011461A460B4613
:10141000FB711346BB80002387F8DF30012387F878
:10142000DE30E2E097F8DE10FB7907F11000FA6891
:10143000019200930B46724A402106F0C9FE07F163
:1014400010031846FEF784FE03469AB207F1100116
:1014500064236C4804F084FDFFF7C0FF6A4B1B68EF
:101460001B6803F00803082B0FD100237B65664B34
:101470001B681B687B65644B1B685B687B657B6DC9
:1014800001226249604804F0F6FDF868FEF760FE4C
:1014900003469AB24FF47A73F9685B4804F060FD32
:1014A00001F0C6FDC7F8D800002387F8DD3000231F
:1014B00087F8DF3007F1580380220021184606F034
:1014C00000FF6FE0524B1A88524B1B889BB29A4226
:1014D00065D04F4B1B881A464F4B9B5CDBB287F89D
:1014E00053304B4B1B8801335A42C3F30903C2F3F9
:1014F000090258BF53429AB2454B1A8007F1530173
:101500000A2301223F4804F02BFD97F853300A2BA1
:1015100032D197F8DF30E0333B44002203F8882CC7
:1015200007F15803B968184606F0F8FE0346002B89
:1015300008D107F158033949184606F0EFFE034673
:10154000002B01D0012357E007F158033449184616
:1015500006F0E4FE0346002B03D0022387F8DD30BB
:1015600029E0002387F8DF3007F1580380220021AB
:10157000184606F0A6FE12E097F853300D2B0ED059
:1015800097F8DF307E2B0AD897F8DF305A1C87F89F
:10159000DF2097F85320E0333B4403F8882C2148A0
:1015A00003F07DFC01F044FD0246D7F8D830D21A92
:1015B000BB889A4286D397F8DD30022B06D164238C
:1015C000262219490F4804F0CBFC05E064233022A1
:1015D00016490C4804F0C4FC40F2DC5001F032FD26
:1015E00097F8DE30013387F8DE3097F8DE20FB799C
:1015F0009A427FF617AF00231846E037BD4680BDFC
:10160000D8AF00089C020020E40200206C070020F4
:101610006A0700206807002068030020ECAF00087C
:10162000F0AF000848020020F8AF000820B0000822
:1016300080B59AB002AFF860B96011461A460B4601
:10164000FB711346BB80012387F85F309DE097F85C
:101650005F10FB7907F11400FA68019200930B46C2
:101660004F4A402106F0B4FD07F114031846FEF777
:101670006FFD03469AB207F114016423494804F050
:101680006FFCFFF7ABFEF868FEF762FD03469AB207
:101690004FF47A73F968444804F062FC01F0C8FC26
:1016A000B865002387F85E302DE0404B1A88404B28
:1016B0001B889BB29A4223D03C4B1B881A463D4B59
:1016C0009B5CDBB287F85730384B1B8801335A429A
:1016D000C3F30903C2F3090258BF53429AB2334B12
:1016E0001A8007F157010A2301222E4804F038FC22
:1016F00097F857303E2B03D1012387F85E300AE07C
:101700002D4803F0CCFB01F093FC0246BB6DD21ACE
:10171000BB889A42C9D397F85E30002B26D032207E
:1017200001F090FC64230A2224491E4804F018FCAE
:10173000B868FEF70DFD03469AB24FF47A73B968A4
:10174000184804F00DFC642302221D49154804F0DA
:1017500007FCB868FEF7FCFC03469AB24FF47A73B4
:10176000B968114804F0FCFB012315E0642327222B
:1017700014490C4804F0F4FB4FF47A7001F062FC59
:1017800097F85F30013387F85F3097F85F20FB7977
:101790009A427FF65CAF002318466037BD4680BD95
:1017A00054B000089C020020E40200206A070020D8
:1017B00068070020680300204802002068B0000885
:1017C00074B0000878B0000880B594B000AF7860BD
:1017D0006449786806F0A2FDF864FB6C002B00F009
:1017E000BD80FB6C0B33FB640023BB6400237B6474
:1017F00000233B6407F1200300221A605A609A60BC
:10180000DA601A6107F10C0300221A605A609A60CC
:10181000DA601A614E2387F83F30452387F83E305F
:101820003AE0FB6C1B782C2B03D1BB6C0133BB64FF
:101830002FE0FB6C1B78202B2BD0BB6C042B0BD127
:101840007B6C122B08DC7B6C5A1C7A64FA6C127865
:1018500050333B4403F8302CBB6C052B03D1FB6C9D
:101860001B7887F83F30BB6C062B0BD13B6C122BDF
:1018700008DC3B6C5A1C3A64FA6C127850333B44D7
:1018800003F8442CBB6C072B03D1FB6C1B7887F847
:101890003E30FB6C0133FB64FB6C1B78002B07D0E4
:1018A000FB6C1B780D2B03D0FB6C1B780A2BB8D17B
:1018B00007F120031B78002B4CD007F10C031B7899
:1018C000002B47D007F12003184605F05BF90246CC
:1018D0000B4610461946FFF7ABF90346BB6307F109
:1018E0000C03184605F04EF902460B461046194601
:1018F000FFF79EF903467B634FF00001B86BFFF7DB
:1019000039FB0346002B21D14FF00001786BFFF724
:1019100031FB0346002B19D1134B01221A7097F8A3
:101920003F30532B03D1BB6B83F0004300E0BB6B14
:101930000E4A136097F83E30572B03D17B6B83F030
:10194000004300E07B6B0A4A136008E0064B00226C
:101950001A7004E0044B00221A7000E000BF5037F8
:10196000BD4680BDA0B000086103002040030020F8
:101970004403002080B588B000AFCCE06C4B1B88DE
:101980001A466C4B9B5CFB75694B1B8801335A42B2
:10199000C3F30903C2F3090258BF53429AB2644B1E
:1019A0001A80FB7D0A2B03D0FB7D0D2B40F0A58018
:1019B000614B1B88002B00F0AE805F4B1B881A46E2
:1019C0005E4B002199540B225D495C4806F081FC76
:1019D0000346002B03D15948FFF7F6FE89E0102299
:1019E0005849564806F075FC0346002B06D1564B65
:1019F00001221A70554B00221A707AE054494F4860
:101A000006F08CFC0346002B06D152494B4806F0E9
:101A100085FC0346002B09D04F4B00221A7064232B
:101A200031224E494E4804F09BFA62E0464B1B7847
:101A3000002B5ED0454B1B780133DAB2434B1A7052
:101A4000424B1B78022B03D93F4B00221A7050E007
:101A50003B4600221A605A609A60DA601A610023DD
:101A6000FB610023BB611FE0344ABB6913441B7850
:101A70002F2B05D9314ABB6913441B78392B05D963
:101A80002E4ABB6913441B782B2B0AD1FB695A1CC5
:101A9000FA612A49BA690A44127820333B4403F8B0
:101AA000202CBB690133BB61244ABB6913441B78FA
:101AB000002B02D0FB690F2BD6DD3B461846FEF704
:101AC00047FB0346082B14D93B782B2B11D13B46FF
:101AD0001846FFF7B7FA3B461946224806F0ABFC1A
:101AE0006423212220491E4804F03AFA164B0022B2
:101AF0001A70114B00221A800DE00F4B1B88FE2B31
:101B000009D80D4B1B885A1C91B20B4A11801946FB
:101B10000A4AFB7D5354064B1A88144B1B889BB210
:101B20009A427FF42BAF00BF00BF2037BD4680BD77
:101B30006A0700206803002070080020700700205A
:101B4000A0B00008ACB0000872080020780800209F
:101B5000C0B00008CCB0000864030020DCB000086E
:101B60009C0200202C03002010B100086807002010
:101B700080B582B000AF642327223349334804F094
:101B8000EFF900237B600CE06423042230493148E4
:101B900004F0E6F94FF4967001F054FA7B680133D3
:101BA0007B607B68042BEFDD4FF4FA6303222A4944
:101BB0002A48FFF725FC4FF4FA63032226492848F8
:101BC000FFF71EFC4FF4FA63032223492548FFF771
:101BD00017FC4FF4FA6303221F492348FFF710FC58
:101BE000642328222149194804F0BAF94FF4FA6312
:101BF000032219491E48FFF703FC4FF4FA6303223E
:101C000015491C48FFF7FCFB4FF4FA630322124905
:101C10001948FFF7F5FB40F6B83303220E49174881
:101C2000FFF7EEFB41F288330A220B491448FFF715
:101C3000E7FB4FF4FA63032207491248FFF7E0FB82
:101C400000BF0837BD4680BD34B100089C020020AB
:101C50005CB10008E4020020ECAF000864B10008A9
:101C60006CB1000874B1000880B100088CB10008A4
:101C7000B4B10008C0B10008CCB10008D8B1000868
:101C8000E8B10008F8B1000880B500AF642326224F
:101C90000D490E4804F064F94FF4FA6305220C492B
:101CA0000C48FFF7ADFB4FF4FA63032208490A48DA
:101CB000FFF7A6FB4FF4FA63032205490748FFF735
:101CC0009FFB00BF80BD00BF04B200089C02002043
:101CD000ECAF00082CB200083CB2000850B200087B
:101CE000B0B592B000AF384B00221A70642327229F
:101CF0003649374804F034F94FF4FA630222354983
:101D00003548FFF77DFB4FF4FA630222314933482F
:101D1000FFF776FB4FF4FA6302222E493048FFF7B3
:101D20006FFB40F6B83303222A492E48FFF768FBC1
:101D30000346002B41D040F6B833032225492A48F8
:101D4000FFF75EFB0346002B39D042F210730522E9
:101D500026492748FFF754FB0346002B06D164238E
:101D60002E2224491A4804F0FBF829E0224B3C4675
:101D70001D460FCD0FC42B6823703B461846FEF757
:101D8000E7F9034607F114001C4A322106F020FA55
:101D9000394607F1140041F288330322FFF748FC6B
:101DA0000346002B0CD0084B01221A7064231C221E
:101DB0001349074804F0D4F802E000BF00E000BF78
:101DC0004837BD46B0BD00BF6403002064B20008C0
:101DD0009C020020ECAF00088CB20008A0B2000802
:101DE000B0B20008C0B20008D0B20008F4B20008D7
:101DF000F8B2000830B3000898B3000860B30008D8
:101E000078B3000880B500AF64230E22024903486E
:101E100004F0A6F800BF80BDACB30008E4020020C7
:101E2000B0B5EAB004AF07F5CC73A3F5CA73186078
:101E300007F5CC73A3F271131A221A707A4B1B7830
:101E4000DBB2002B09D1794B1B684FF0000118461B
:101E5000FFF790F80346002B1ED1744B1B68184601
:101E6000FEF796FB04460D46714B1B681846FEF7BD
:101E70008FFB02460B4607F5CC71A1F5CA7107F13D
:101E80008C00CDE90223CDE900450B68694A4FF487
:101E9000807106F09DF90BE007F5CC73A3F5CA73CA
:101EA00007F18C001B68644A4FF4807106F090F9CA
:101EB000642321226149624804F052F84FF4FA6326
:101EC000032260496048FFF79BFA07F5CC73A3F53E
:101ED000C4731A460023136053609360D360136188
:101EE0000023C7F894310023C7F8903128E0574AFF
:101EF000D7F8903113441B782F2B06D9534AD7F8C3
:101F0000903113441B78392B06D9504AD7F89031B9
:101F100013441B782B2B0ED1D7F894315A1CC7F8D9
:101F200094214A49D7F890210A44117807F5CC72D8
:101F3000A2F5C472D154D7F890310133C7F890316B
:101F40004248FEF705F90246D7F890319A42CED8BA
:101F500007F1100307F128003D4A642106F038F923
:101F600007F18C0107F1280041F288330322FFF7C3
:101F70005FFB0346002B49D0C82001F063F807F14E
:101F800027014FF47A730122324803F0E9FF01F090
:101F90004FF8C7F88C0128E02F4B1A882F4B1B886D
:101FA0009BB29A421ED02C4B1B881A462C4B9B5C32
:101FB000DAB207F5CC73A3F289131A70264B1B888B
:101FC00001335A42C3F30903C2F3090258BF534213
:101FD0009AB2214B1A8007F10F010A2301221848F7
:101FE00003F0BEFF1F4802F05AFF01F021F802463D
:101FF000D7F88C31D31A42F20F729342CCD96423B2
:10200000192219490E4803F0ABFF07E007F1270139
:102010004FF47A7301220F4803F0A2FF00BF07F5C7
:10202000CC77BD46B0BD00BF610300204003002057
:1020300044030020BCB30008F8B300081CB4000837
:102040009C020020ECAF000880B100082C030020A7
:1020500040B40008E40200206A070020680700205E
:10206000680300204802002050B40008B0B5D2B088
:1020700004AF07F59C73A3F59A7318603B4B1B786C
:10208000DBB2002B69D03A4B1B78DBB2002B09D1B5
:10209000384B1B684FF000011846FEF76BFF0346F4
:1020A000002B1DD1334B1B681846FEF771FA04460E
:1020B0000D46314B1B681846FEF76AFA02460B467E
:1020C00007F59C71A1F59A7107F13C00CDE9022357
:1020D000CDE900450B68294AFA2106F079F80AE0B3
:1020E00007F59C73A3F59A7307F13C001B68244A1B
:1020F000FA2106F06DF807F108001123214A322178
:1021000006F066F807F1080041F2883303221E4901
:10211000FFF78EFA0346002B21D007F13C03184647
:10212000FEF716F8034607F10800184A322106F0B8
:102130004FF807F13C0107F1080041F28833032210
:10214000FFF776FA0346002B0BD041F288330322C7
:102150000F491048FFF754F904E000BF02E000BF48
:1021600000E000BF07F59C77BD46B0BD64030020CA
:102170006103002040030020440300206CB40008E9
:10218000A4B40008D8B40008F0B4000804B50008EE
:10219000ECAF00081CB5000880B584B000AF7860D3
:1021A00000F046FFB8601C4B1B78DBB2002B07D158
:1021B0001A4B1B68BA68D31A47F22F52934226D99A
:1021C000154B00221A70154ABB681360012230219A
:1021D000134801F072FD7868FFF748FF0023FB60A9
:1021E00009E04FF47A7000F02DFF0E4802F057FE20
:1021F000FB680133FB60FB68022BF2DD7868FFF7B8
:102200000FFE00223021064801F057FD00E000BF1C
:102210001037BD4680BD00BF0000002074080020BC
:1022200000080140480200202DE9B04FB8B00AAFC5
:1022300000F0A6FE00F07CF900F0A0FA00F0B6F97C
:1022400000F048FA00F070FA00F0DEF900F0F6F95C
:102250004FF47A7000F0F6FEFEF74AFF01220121EA
:10226000994801F02AFD40F2DC5000F0EBFE00221C
:102270000121954801F021FDFEF762FF01229349FB
:10228000934803F0F8FE64232C229249924803F00D
:1022900067FE0023C7F8B4300BE04FF47A7000F00B
:1022A000D1FE8E4802F0FBFDD7F8B4300133C7F8F9
:1022B000B430D7F8B430092BEFDDFFF759FCFFF746
:1022C000E3FC0023C7F8B0300BE04FF47A7000F065
:1022D000B9FE824802F0E3FDD7F8B0300133C7F809
:1022E000B030D7F8B0300E2BEFDDFFF7F9FC01224C
:1022F00010217B4801F0E1FCC82000F0A3FE002281
:102300001021774801F0D9FC764803F037FAFEF740
:1023100091FFFFF72FFB72B600BF734B1B7887F856
:10232000AE3062B600BF00F083FE02466F4B1B6802
:10233000D31AB3F5967F68D997F8AE30002B08D141
:1023400007F198036A4A1C4613460FCB07C4238043
:102350001FE097F8AE30012B08D107F19803654ACA
:102360001C4613460FCB07C4238012E097F8AE300B
:10237000022B08D107F198035F4A1C4613460FCB86
:1023800007C4238005E007F198035C4A07CA83E885
:1023900007005B4B1B681846FEF7FAF804460D462B
:1023A000584B1B681846FEF7F3F880468946564B93
:1023B0001B681846FEF7ECF882468B46534B1B68A9
:1023C0001846FEF7E5F802460B46384607F1980135
:1023D0000891CDE90623CDE904ABCDE90289CDE929
:1023E00000454B4A962105F0F3FE3B461846FDF7A3
:1023F000AFFE03469AB239463223374803F0B0FDA8
:1024000000F016FE0346394A136000F011FE024642
:10241000404B1B68D31A42F21072934206D9FFF761
:10242000F1FC00F005FE03463A4A13603A4B1B7874
:10243000DBB2002B16D100F0FBFD0246374B1B68C8
:10244000D31A43F6982293420CD9642326223449A6
:10245000214803F085FDFFF743FC00F0E9FD03464A
:102460002E4A13600221184801F010FC0346002B8D
:102470000CD1322000F0E6FD0221134801F006FCE9
:102480000346002B02D12748FFF786FE002387F87A
:10249000AF3072B600BF244B1B78DBB2012B05D1E5
:1024A000012387F8AF30204B00221A7062B600BFBC
:1024B00097F8AF30012B02D11C48FFF76DFE07489B
:1024C00002F0EDFC23E700BF000C01406C07002088
:1024D000E402002034B500089C02002048020020DD
:1024E0000008014054020020630300207C08002003
:1024F00064B5000874B5000884B5000894B50008F8
:102500005003002054030020580300205C030020E7
:10251000A0B5000880080020640300208408002083
:10252000D4B50008FCB50008600300201CB6000804
:1025300080B590B000AF07F118032822002118469B
:1025400005F0BFFE3B1D00221A605A609A60DA60F7
:102550001A610A23BB610123BB621023FB620123C2
:102560003B6300237B6307F11803184602F0A6FCC7
:102570000346002B01D000F089FA0F237B60002373
:10258000BB600023FB6000233B6100237B613B1D9C
:102590000021184602F014FF0346002B01D000F082
:1025A00075FA00BF4037BD4680BD000080B500AF62
:1025B000124B134A1A60114B124A5A600F4B0022F9
:1025C0009A600E4B0022DA600C4B4FF480421A6185
:1025D0000A4B00225A61094B00229A61074B0022E4
:1025E000DA61064B00221A62044801F07FFB0346C1
:1025F000002B01D000F04AFA00BF80BDF40100209A
:1026000000540040A086010080B500AF094B0A4A83
:102610001A60084B06225A60064B40F6FF729A6019
:10262000044802F0F8FB0346002B01D000F02EFA1C
:1026300000BF80BD480200200030004080B586B059
:1026400000AF07F1080300221A605A609A60DA604E
:102650003B4600221A605A601D4B4FF080421A60C0
:102660001B4B41F63F725A60194B00229A60184B7F
:102670000922DA60164B00221A61154B00229A617A
:10268000134803F02BF80346002B01D000F0FEF9AD
:102690004FF48053BB6007F1080319460C4803F060
:1026A000AFF90346002B01D000F0F0F900233B60A6
:1026B00000237B603B461946054803F091FB034627
:1026C000002B01D000F0E2F900BF1837BD4680BDF5
:1026D0005402002080B500AF114B124A1A60104B13
:1026E0004FF4E1325A600E4B00229A600C4B0022EC
:1026F000DA600B4B00221A61094B0C225A61084B1D
:1027000000229A61064B0022DA61054803F0D8FBEB
:102710000346002B01D000F0B9F900BF80BD00BF17
:102720009C0200200038014080B500AF114B124AD6
:102730001A60104B4FF4E1325A600E4B00229A603F
:102740000C4B0022DA600B4B00221A61094B0C2261
:102750005A61084B00229A61064B0022DA61054853
:1027600003F0AEFB0346002B01D000F08FF900BF51
:1027700080BD00BFE40200200048004080B586B064
:1027800000AF07F1080300221A605A609A60DA600D
:10279000264B9B69254A43F004039361234B9B69B5
:1027A00003F004037B607B68204B9B691F4A43F066
:1027B000080393611D4B9B6903F008033B603B6872
:1027C000002230211A4801F078FA0022012119482C
:1027D00001F073FA3023BB600123FB6000233B61EF
:1027E00002237B6107F108031946114801F00EF836
:1027F0000123BB600123FB6000233B6102237B615B
:1028000007F1080319460B4801F000F80223BB60EA
:102810000023FB6001233B6107F1080319460548CB
:1028200000F0F4FF00BF1837BD4680BD0010024025
:1028300000080140000C014080B582B000AF786014
:102840007B681B68104A93421AD1104B1B889BB2BD
:102850001A460F4B19780F4B99540C4B1B889BB29F
:1028600001335A42C3F30903C2F3090258BF53426A
:102870009AB2064B1A8001220549074803F0FBFB78
:1028800000BF0837BD4680BD0048004068070020F3
:102890006C07002068030020E402002080B586B0A9
:1028A00000AF78607B681B681B4A934230D10023DD
:1028B0007B617B681B681B687B617B681B685B684E
:1028C0007B617B6900233B617B681B681B683B6104
:1028D0007B681B685B683B613B690023FB607B682E
:1028E0001B681B68FB607B681B685B68FB60FB68A0
:1028F0000023BB607B681B681B68BB607B681B6830
:102900005B68BB60BB6801220449054803F0B3FB68
:1029100000BF1837BD4680BD004800406C0700204E
:10292000E40200200000000080B584B000AF7860B1
:102930007B681B68B3F1804F40F08C804C4B1B6868
:10294000FB604C4B1B78DBB2022B42D0022B00F316
:102950008180002B02D0012B1CD07BE04FF00001C6
:10296000F868FEF72FFB0346002B00D172E0F868F1
:10297000FDF70EFE3AA3D3E90023FEF7D3F8034692
:10298000002B00D166E03B4B01221A703A4B00222B
:102990001A805FE0384B1B8801339AB2364B1A809D
:1029A0003649F868FEF70EFB0346002B09D0314B81
:1029B00002221A70304B00221A80314B00221A80FA
:1029C00045E02D4B1B88642B41D92A4B00221A70FD
:1029D0003DE0294B1B8801339AB2274B1A80264BC6
:1029E0001B88632B22D9244B1B88B3F5967F1DD2FD
:1029F000F868FDF7CDFD1CA3D3E90023FEF7B0F87E
:102A00000346002B22D0F868FDF7C2FD4FF03332A9
:102A10001C4BFEF787F80346002B00D116E0184B3D
:102A20001B8801339AB2164B1A800FE0124B1B8899
:102A3000B3F5967F0DD3124B1B88A02B02D9124BF6
:102A400001221A700B4B00221A7002E001E000BF55
:102A500000E000BF00BF1037BD4680BDAFF300806F
:102A6000333333333333E33F9A9999999999E93F53
:102A70005C03002063030020880800200000204041
:102A80008A0800203333F33F6003002080B400AF96
:102A900072B600BF00BFFDE780B485B000AF154B34
:102AA0009B69144A43F001039361124B9B6903F045
:102AB0000103BB60BB680F4BDB690E4A43F08053D8
:102AC000D3610C4BDB6903F080537B607B680A4B5E
:102AD0005B68FB60FB6823F0E063FB60FB6843F02E
:102AE0000073FB60044AFB68536000BF1437BD46A7
:102AF00080BC7047001002400000014080B588B0E3
:102B000000AF786007F1100300221A605A609A60E3
:102B1000DA607B681B68154A934223D1144B9B698A
:102B2000134A43F008039361114B9B6903F00803B8
:102B3000FB60FB68C0233B6112237B610323FB61C5
:102B400007F1100319460B4800F060FE084BDB69E3
:102B5000074A43F40013D361054BDB6903F4001308
:102B6000BB60BB6800BF2037BD4680BD005400403D
:102B700000100240000C014080B582B000AF7860C8
:102B80007B681B680A4A93420DD10A4BDB69094AEC
:102B900023F40013D3614021074800F0BBFF8021DC
:102BA000054800F0B7FF00BF0837BD4680BD00BF35
:102BB0000054004000100240000C014080B584B079
:102BC00000AF78607B681B68B3F1804F13D10C4B6A
:102BD000DB690B4A43F00103D361094BDB6903F066
:102BE0000103FB60FB68002201211C2000F025FB93
:102BF0001C2000F03EFB00BF1037BD4680BD00BF6B
:102C00000010024080B58AB000AF786007F1180369
:102C100000221A605A609A60DA607B681B683C4A3E
:102C2000934232D13B4B9B693A4A43F480439361D0
:102C3000384B9B6903F480437B617B69354B9B690F
:102C4000344A43F004039361324B9B6903F004035D
:102C50003B613B694FF40073BB610223FB610323BB
:102C60007B6207F1180319462B4800F0CFFD4FF4A3
:102C70008063BB610023FB6100233B6207F1180303
:102C80001946254800F0C2FD3EE07B681B68234AD8
:102C9000934239D11F4BDB691E4A43F48023D36131
:102CA0001C4BDB6903F48023FB60FB68194B9B69B9
:102CB000184A43F008039361164B9B6903F008031D
:102CC000BB60BB684FF48063BB610223FB610323DD
:102CD0007B6207F118031946114800F097FD4FF485
:102CE0000063BB610023FB6100233B6207F1180313
:102CF00019460B4800F08AFD00220021272000F031
:102D00009CFA272000F0B5FA00BF2837BD4680BDE9
:102D10000038014000100240000801400048004017
:102D2000000C014080B400AF00BFFDE780B400AFED
:102D300000BFFDE780B400AF00BFFDE780B400AF87
:102D400000BFFDE780B400AF00BFFDE780B400AF77
:102D500000BFBD4680BC704780B400AF00BFBD4619
:102D600080BC704780B400AF00BFBD4680BC7047D8
:102D700080B500AF00F04AF900BF80BD80B500AF5C
:102D8000024802F04DFD00BF80BD00BF540200208C
:102D900080B500AF024803F093F900BF80BD00BFCB
:102DA000E402002080B400AF01231846BD4680BC79
:102DB000704780B582B000AF7860396005F00EFBD7
:102DC000034616221A604FF0FF3318460837BD46F7
:102DD00080BD80B582B000AF78604FF0FF31786879
:102DE000FFF7E7FF00BFFDE780B586B000AFF860F2
:102DF000B9607A6000237B610AE0AFF3008001468E
:102E0000BB685A1CBA60CAB21A707B6901337B6115
:102E10007A697B689A42F0DB7B6818461837BD46B2
:102E200080BD80B586B000AFF860B9607A600023DD
:102E30007B6109E0BB685A1CBA601B781846AFF387
:102E400000807B6901337B617A697B689A42F1DBA0
:102E50007B6818461837BD4680BD80B483B000AF8C
:102E600078604FF0FF3318460C37BD4680BC704782
:102E700080B483B000AF786039603B684FF4005293
:102E80005A60002318460C37BD4680BC704780B49A
:102E900083B000AF7860012318460C37BD4680BC74
:102EA000704780B485B000AFF860B9607A600023E5
:102EB00018461437BD4680BC7047000080B586B008
:102EC00000AF7860144A154BD31A7B617B693B6174
:102ED000134B1B68002B02D1114B124A1A60104B86
:102EE0001A687B6813443A699A4207D205F076FA69
:102EF00003460C221A604FF0FF3309E0084B1B68B1
:102F0000FB60074B1A687B681344054A1360FB6833
:102F100018461837BD4680BD005000200004000050
:102F20008C080020080A002080B400AF00BFBD4616
:102F300080BC7047FFF7F8FF0B480C490C4A002390
:102F400002E0D458C4500433C4188C42F9D3094A5F
:102F5000094C002301E013600432A242FBD305F0C8
:102F600043FAFFF761F9704700000020D801002004
:102F7000C0BA0008D8010020040A0020FEE70000C3
:102F800080B500AF084B1B68074A43F0100313607D
:102F9000032000F047F9002000F008F8FFF77CFD5F
:102FA0000023184680BD00BF0020024080B582B0DB
:102FB00000AF7860124B1A68124B1B7819464FF419
:102FC0007A73B3FBF1F3B2FBF3F3184600F05FF949
:102FD0000346002B01D001230EE07B680F2B0AD89B
:102FE000002279684FF0FF3000F027F9064A7B682D
:102FF0001360002300E0012318460837BD4680BD5A
:10300000040000200C0000200800002080B400AF65
:10301000054B1B781A46054B1B681344034A136083
:1030200000BFBD4680BC70470C0000209008002007
:1030300080B400AF024B1B681846BD4680BC704789
:103040009008002080B584B000AF7860FFF7F0FFF3
:10305000B8607B68FB60FB68B3F1FF3F05D00A4BAB
:103060001B781A46FB681344FB6000BFFFF7E0FFC4
:103070000246BB68D31AFA689A42F7D800BF00BF6D
:103080001037BD4680BD00BF0C00002080B485B065
:1030900000AF78607B6803F00703FB600C4BDB68D4
:1030A000BB60BA684FF6FF031340BB60FB681A02AF
:1030B000BB68134343F0BF6343F40033BB60044A6F
:1030C000BB68D36000BF1437BD4680BC704700BFEB
:1030D00000ED00E080B400AF044BDB681B0A03F096
:1030E00007031846BD4680BC704700BF00ED00E0F6
:1030F00080B483B000AF0346FB7197F90730002B13
:103100000BDBFB7903F01F02064997F907305B09D7
:10311000012000FA02F241F8232000BF0C37BD461F
:1031200080BC704700E100E080B483B000AF03468C
:103130003960FB7197F90730002B0ADB3B68DAB284
:103140000C4997F907301201D2B20B4483F80023DF
:103150000AE03B68DAB20849FB7903F00F03043B4D
:103160001201D2B20B441A7600BF0C37BD4680BCA8
:10317000704700BF00E100E000ED00E080B489B0DE
:1031800000AFF860B9607A60FB6803F00703FB6189
:10319000FB69C3F10703042B28BF0423BB61FB6950
:1031A0000433062B02D9FB69033B00E000237B615B
:1031B0004FF0FF32BB6902FA03F3DA43BB681A40EF
:1031C0007B699A404FF0FF317B6901FA03F3D943E1
:1031D0007B680B40134318462437BD4680BC7047BC
:1031E00080B582B000AF78607B68013BB3F1807F2F
:1031F00001D301230FE00A4A7B68013B53600F2192
:103200004FF0FF30FFF790FF054B00229A60044B10
:1032100007221A60002318460837BD4680BD00BF4C
:1032200010E000E080B582B000AF78607868FFF70A
:103230002DFF00BF0837BD4680BD80B586B000AF0A
:103240000346B9607A60FB7300237B61FFF742FF9E
:1032500078617A68B9687869FFF790FF024697F954
:103260000F3011461846FFF75FFF00BF1837BD4605
:1032700080BD80B582B000AF0346FB7197F907307F
:103280001846FFF735FF00BF0837BD4680BD80B543
:1032900082B000AF78607868FFF7A2FF0346184657
:1032A0000837BD4680BD80B485B000AF786000238C
:1032B000FB737B6893F82130DBB2022B08D07B686C
:1032C00004229A637B68002283F82020012320E0F7
:1032D0007B681B681A687B681B6822F00E021A6004
:1032E0007B681B681A687B681B6822F001021A6001
:1032F0007B681A6C7B68DB6B012101FA02F25A6071
:103300007B68012283F821207B68002283F820203B
:10331000FB7B18461437BD4680BC704780B584B02F
:1033200000AF78600023FB737B6893F82130DBB239
:10333000022B05D07B6804229A630123FB7351E0C2
:103340007B681B681A687B681B6822F00E021A6093
:103350007B681B681A687B681B6822F001021A6090
:103360007B681B68224A934229D07B681B68214AEC
:10337000934222D07B681B681F4A93421AD07B6815
:103380001B681E4A934212D07B681B681C4A9342FA
:103390000AD07B681B681B4A934202D14FF480130A
:1033A0000EE04FF080730BE04FF4803308E04FF4F1
:1033B000805305E04FF4807302E0102300E0012306
:1033C000114A53607B68012283F821207B68002228
:1033D00083F820207B685B6B002B03D07B685B6BE2
:1033E00078689847FB7B18461037BD4680BD00BF04
:1033F000080002401C00024030000240440002402D
:10340000580002406C00024000000240F0B587B056
:1034100000AFF860B960C7E900230123FB75002302
:10342000BB7500237B752F4B1B7E012B01D1022323
:1034300054E02C4B01221A764CF2503000F0A8F8E0
:103440000346FB75FB7D002B44D1FB68012B02D1A9
:1034500001237B7507E0FB68022B02D102237B75F9
:1034600001E004237B750023BB752DE0BB7D5A0072
:10347000BB6802EB030CBB7D1901D7E90023C1F146
:103480002006A1F1200022FA01F403FA06F63443E3
:1034900023FA00F0044323FA01F5A3B2194660466B
:1034A00000F05AF84CF2503000F072F80346FB7509
:1034B0000D4B1B690C4A23F001031361FB7D002BAC
:1034C00007D1BB7D0133BB75BA7D7B7D9A42CDD3DD
:1034D00000E000BF034B00221A76FB7D18461C3724
:1034E000BD46F0BD980800200020024080B483B0A3
:1034F00000AF0023FB710D4B1B6903F08003002B11
:103500000DD00A4B0A4A5A60084B0A4A5A60074BC8
:103510001B6903F08003002B01D00123FB71FB79B1
:1035200018460C37BD4680BC704700BF00200240E3
:1035300023016745AB89EFCD80B400AF054B1B6914
:10354000044A43F08003136100231846BD4680BC43
:10355000704700BF0020024080B483B000AF7860A5
:103560000B467B80084B0022DA61084B1B69074A37
:1035700043F0010313617B687A881A8000BF0C371F
:10358000BD4680BC704700BF980800200020024064
:1035900080B584B000AF7860FFF74AFDF86010E0B6
:1035A0007B68B3F1FF3F0CD07B68002B07D0FFF79F
:1035B0003FFD0246FB68D31A7A689A4201D2032380
:1035C00025E0154BDB6803F00103002BE8D1124B1B
:1035D000DB6803F02003002B02D00F4B2022DA60BF
:1035E0000D4BDB6803F01003002B0BD10A4BDB699A
:1035F00003F00103002B05D1074BDB6803F0040344
:10360000002B03D000F00AF8012300E00023184645
:103610001037BD4680BD00BF0020024080B483B09B
:1036200000AF00237B60234BDB6803F01003002B0B
:1036300009D0214BDB6943F002031F4AD3617B6849
:1036400043F010037B601B4BDB6803F00403002B8B
:1036500009D0194BDB6943F00103174AD3617B683A
:1036600043F004037B60134BDB6903F00103002B81
:103670000BD0114BDB6943F004030F4AD3610D4BB0
:10368000DB690C4A23F00103D3617B6840F201122D
:10369000934206D1074BDB69064A23F00103D3614D
:1036A00002E0044A7B68D36000BF0C37BD4680BC93
:1036B000704700BF002002409808002080B584B009
:1036C00000AF786039600123FB730023BB602F4B90
:1036D0001B7E012B01D1022353E02C4B01221A76D1
:1036E0007B681B68022B16D14CF25030FFF750FF5D
:1036F0000346002B41D1012000F04CF84CF2503031
:10370000FFF746FF0346FB73214B1B69204A23F05A
:103710000403136131E04CF25030FFF739FF0346E8
:10372000002B2AD13B684FF0FF321A607B689B6800
:10373000BB6019E0B86800F049F84CF25030FFF770
:1037400027FF0346FB73124B1B69114A23F0020348
:103750001361FB7B002B03D03B68BA681A600CE056
:10376000BB6803F58063BB607B68DB689A027B689B
:103770009B681344BA689A42DCD3044B00221A7641
:10378000FB7B18461037BD4680BD00BF980800205F
:103790000020024080B483B000AF7860094B002263
:1037A000DA61094B1B69084A43F004031361064BB5
:1037B0001B69054A43F04003136100BF0C37BD4647
:1037C00080BC7047980800200020024080B483B07D
:1037D00000AF78600B4B0022DA610B4B1B690A4A81
:1037E00043F002031361084A7B685361064B1B696F
:1037F000054A43F04003136100BF0C37BD4680BC4F
:10380000704700BF980800200020024080B48BB0B1
:1038100000AF7860396000237B6200233B6269E17E
:1038200001227B6A02FA03F3FB613B681B68FA69B9
:103830001340BB61BA69FB699A4240F058813B680A
:103840005B689A4A93425ED0984A934275D8984AE8
:10385000934258D0964A93426FD8964A934252D098
:10386000944A934269D8944A93424CD0924A9342E4
:1038700063D8924A934246D0904A93425DD8122B25
:103880002AD8122B59D801A252F823F00739000880
:10389000E1380008F3380008353900083B390008E2
:1038A0003B3900083B3900083B3900083B39000828
:1038B0003B3900083B3900083B3900083B39000818
:1038C0003B3900083B3900083B3900083B39000808
:1038D000E9380008FD380008794A934213D02CE0FB
:1038E0003B68DB683B6229E03B68DB6804333B6292
:1038F00024E03B68DB6808333B621FE03B68DB6821
:103900000C333B621AE03B689B68002B02D1042316
:103910003B6213E03B689B68012B05D108233B62A7
:103920007B68FA691A6109E008233B627B68FA69DF
:103930005A6103E000233B6200E000BFBB69FF2B3C
:1039400001D87B6801E07B6804337B61BB69FF2B96
:1039500002D87B6A9B0002E07B6A083B9B003B61CC
:103960007B691A680F213B6901FA03F3DB431A40B4
:10397000396A3B6901FA03F31A437B691A603B68B1
:103980005B6803F08053002B00F0B1804D4B9B69C6
:103990004C4A43F0010393614A4B9B6903F00103D6
:1039A000BB60BB68484A7B6A9B08023352F82330ED
:1039B000FB607B6A03F003039B000F2202FA03F310
:1039C000DB43FA681340FB607B68404A934213D0A4
:1039D0007B683F4A93420DD07B683E4A934207D0B2
:1039E0007B683D4A934201D1032306E0042304E0AF
:1039F000022302E0012300E000237A6A02F00302BE
:103A000092009340FA681343FB602F497B6A9B083E
:103A10000233FA6841F823203B685B6803F48013A3
:103A2000002B06D02D4B9A682C49BB6913438B6041
:103A300006E02A4B9A68BB69DB43284913408B6038
:103A40003B685B6803F40013002B06D0234BDA6855
:103A50002249BB691343CB6006E0204BDA68BB699F
:103A6000DB431E491340CB603B685B6803F40033C3
:103A7000002B06D0194B5A681849BB6913434B6099
:103A800006E0164B5A68BB69DB43144913404B6090
:103A90003B685B6803F48033002B21D00F4B1A681E
:103AA0000E49BB6913430B6021E000BF00003210D8
:103AB0000000311000002210000021100000121040
:103AC00000001110001002400000014000080140F9
:103AD000000C0140001001400014014000040140AE
:103AE0000B4B1A68BB69DB43094913400B607B6AC7
:103AF00001337B623B681A687B6A22FA03F3002B6E
:103B00007FF48EAE00BF00BF2C37BD4680BC70472F
:103B10000004014080B489B000AF786039600023B0
:103B2000FB619AE00122FB6902FA03F33A68134051
:103B3000BB61BB69002B00F08D804E4AFB699B087E
:103B4000023352F823307B61FB6903F003039B00CF
:103B50000F2202FA03F37A6913407B617B68464ABD
:103B6000934213D07B68454A93420DD07B68444A08
:103B7000934207D07B68434A934201D1032306E076
:103B8000042304E0022302E0012300E00023FA6999
:103B900002F00302920093407A699A4232D13A4B82
:103BA0001A68BB69DB43384913400B60364B5A68CF
:103BB000BB69DB43344913404B60334BDA68BB6964
:103BC000DB4331491340CB602F4B9A68BB69DB4321
:103BD0002D4913408B60FB6903F003039B000F2208
:103BE00002FA03F37B61234AFB699B08023352F814
:103BF00023107B69DA431F48FB699B080A400233A4
:103C000040F82320BB69FF2B01D87B6801E07B686B
:103C100004333B61BB69FF2B02D8FB699B0002E0C8
:103C2000FB69083B9B00FB603B691A680F21FB683E
:103C300001FA03F3DB431A400421FB6801FA03F3A2
:103C40001A433B691A607B68DA68BB69DB431A4038
:103C50007B68DA60FB690133FB613A68FB6922FA31
:103C600003F3002B7FF45EAF00BF00BF2437BD46D7
:103C700080BC70470000014000080140000C01407A
:103C800000100140001401400004014080B485B0E0
:103C900000AF78600B467B807B689A687B88134016
:103CA000002B02D00123FB7301E00023FB73FB7B9D
:103CB00018461437BD4680BC704780B483B000AF4F
:103CC00078600B467B8013467B707B78002B03D09B
:103CD0007A887B681A6103E07B881A047B681A6122
:103CE00000BF0C37BD4680BC7047000080B584B073
:103CF00000AF78607B68002B01D101232BE17B684A
:103D000093F83D30DBB2002B06D17B68002283F8AC
:103D10003C207868FEF7F2FE7B68242283F83D2081
:103D20007B681B681A687B681B6822F001021A60B6
:103D30007B681B681A687B681B6842F400421A6043
:103D40007B681B681A687B681B6822F400421A6053
:103D500001F07EFCF8607B685B68814A934207D87B
:103D6000FB68804A934294BF01230023DBB206E044
:103D7000FB687D4A934294BF01230023DBB2002BF2
:103D800001D00123E7E0FB68784AA2FB03239B0CE8
:103D9000BB607B681B685B6823F03F017B681B6826
:103DA000BA680A435A607B681B681B6A23F03F01AC
:103DB0007B685B686A4A934202D8BB68013309E0BA
:103DC000BB684FF4967202FB03F3694AA2FB03231C
:103DD0009B0901337A6812680B4313627B681B6886
:103DE000DB6923F44F4222F0FF027B685B685C4989
:103DF0008B4219D8FB68591E7B685B685B00B1FB7E
:103E0000F3F3591C40F6FC730B40002B0AD0FB68FF
:103E1000591E7B685B685B00B1FBF3F30133C3F3AE
:103E20000B0351E004234FE07B689B68002B11D10A
:103E3000FB68581E7B6859680B465B000B44B0FB5F
:103E4000F3F30133C3F30B03002B0CBF0123002357
:103E5000DBB212E0FB68581E7B6859680B469B007A
:103E60000B4499000B44B0FBF3F30133C3F30B0392
:103E7000002B0CBF01230023DBB2002B01D0012358
:103E800022E07B689B68002B0ED1FB68581E7B6884
:103E900059680B465B000B44B0FBF3F30133C3F3EB
:103EA0000B0343F400430FE0FB68581E7B6859681E
:103EB0000B469B000B4499000B44B0FBF3F301331A
:103EC000C3F30B0343F44043796809681343CB61A0
:103ED0007B681B681B6823F0C0017B68DA697B681C
:103EE0001B6A1A437B681B680A431A607B681B685D
:103EF0009B6823F4034323F0FF037A6811697A680F
:103F0000D26811437A6812680B4393607B681B6820
:103F1000DB6823F0FF017B685A697B689B691A4361
:103F20007B681B680A43DA607B681B681A687B68D9
:103F30001B6842F001021A607B6800221A647B68E9
:103F4000202283F83D207B6800221A637B680022D0
:103F500083F83E20002318461037BD4680BD00BFC1
:103F6000A08601007F841E00FF083D0083DE1B4306
:103F7000D34D621080B582B000AF78607B68002BB3
:103F800001D1012321E07B68242283F83D207B6856
:103F90001B681A687B681B6822F001021A60786847
:103FA000FEF7EAFD7B6800221A647B68002283F832
:103FB0003D207B6800221A637B68002283F83E2044
:103FC0007B68002283F83C20002318460837BD4652
:103FD00080BD000080B588B002AFF8600846114689
:103FE0001A4603467B810B463B811346FB80FFF755
:103FF0001FF87861FB6893F83D30DBB2202B40F06E
:10400000D9807B690093192301226D49F86800F07B
:10401000CDFC0346002B01D00223CCE0FB6893F8D3
:104020003C30012B01D10223C5E0FB68012283F85B
:104030003C20FB681B681B6803F00103012B07D0C1
:10404000FB681B681A68FB681B6842F001021A6073
:10405000FB681B681A68FB681B6822F400621A6020
:10406000FB68212283F83D20FB68402283F83E2034
:10407000FB6800221A64FB683A6A5A62FB68BA8CD1
:104080005A85FB685B8D9AB2FB681A85FB684D4ABE
:10409000DA62F8883A8979897B690193BB6A00936F
:1040A0000346F86800F004FB0346002B52D00123BE
:1040B00081E07A69B96AF86800F092FD0346002B46
:1040C0000DD0FB681B6C042B07D1FB681B681A68BA
:1040D000FB681B6842F400721A6001236BE0FB6806
:1040E0005B6A1A78FB681B681A61FB685B6A5A1C7A
:1040F000FB685A62FB681B8D013B9AB2FB681A850C
:10410000FB685B8D9BB2013B9AB2FB685A85FB68EA
:104110001B685B6903F00403042B1BD1FB681B8D38
:10412000002B17D0FB685B6A1A78FB681B681A6162
:10413000FB685B6A5A1CFB685A62FB681B8D013B7B
:104140009AB2FB681A85FB685B8D9BB2013B9AB201
:10415000FB685A85FB681B8D002BAAD17A69B96A66
:10416000F86800F085FD0346002B0DD0FB681B6C42
:10417000042B07D1FB681B681A68FB681B6842F4B4
:1041800000721A60012316E0FB681B681A68FB685E
:104190001B6842F400721A60FB68202283F83D20FD
:1041A000FB68002283F83E20FB68002283F83C2055
:1041B000002300E0022318461837BD4680BD00BF2B
:1041C000020010000000FFFF80B58CB002AFF86065
:1041D000084611461A4603467B810B463B8113462F
:1041E000FB8000233B62FEF723FF7862FB6893F8B5
:1041F0003D30DBB2202B40F050827B6A00931923C4
:1042000001228249F86800F0D1FB0346002B01D05F
:10421000022343E2FB6893F83C30012B01D10223D7
:104220003CE2FB68012283F83C20FB681B681B68AA
:1042300003F00103012B07D0FB681B681A68FB68B9
:104240001B6842F001021A60FB681B681A68FB6871
:104250001B6822F400621A60FB68222283F83D206A
:10426000FB68402283F83E20FB6800221A64FB684A
:104270003A6B5A62FB68BA8E5A85FB685B8D9AB2BC
:10428000FB681A85FB68624ADA62F8883A8979899C
:104290007B6A0193BB6B00930346F86800F09EFABB
:1042A0000346002B01D00123F8E1FB681B8D002B96
:1042B00013D10023FB61FB681B685B69FB61FB6832
:1042C0001B689B69FB61FB69FB681B681A68FB68DC
:1042D0001B6842F400721A60CCE1FB681B8D012B55
:1042E0001ED1FB681B681A68FB681B6822F4806299
:1042F0001A6072B600BF0023BB61FB681B685B6974
:10430000BB61FB681B689B69BB61BB69FB681B6881
:104310001A68FB681B6842F400721A6062B635E0E6
:10432000FB681B8D022B1ED1FB681B681A68FB689B
:104330001B6842F400621A6072B600BF00237B6102
:10434000FB681B685B697B61FB681B689B697B6121
:104350007B69FB681B681A68FB681B6822F4806233
:104360001A6062B612E0FB681B681A68FB681B687B
:1043700042F480621A6000233B61FB681B685B6942
:104380003B61FB681B689B693B613B6972E1FB68B1
:104390001B8D032B00F21F81FB681B8D012B23D18A
:1043A0007A6AB96BF86800F0ABFC0346002B01D0C9
:1043B000012373E1FB681B681A69FB685B6AD2B270
:1043C0001A70FB685B6A5A1CFB685A62FB681B8D9B
:1043D000013B9AB2FB681A85FB685B8D9BB2013B7F
:1043E0009AB2FB685A8545E1FB681B8D022B52D1BE
:1043F0007B6A0093BB6B00220649F86800F0D6FA8E
:104400000346002B08D0012348E100BF0200100042
:104410000000FFFF0400010072B600BFFB681B68CC
:104420001A68FB681B6842F400721A60FB681B681C
:104430001A69FB685B6AD2B21A70FB685B6A5A1C25
:10444000FB685A62FB681B8D013B9AB2FB681A85B8
:10445000FB685B8D9BB2013B9AB2FB685A8562B6E2
:1044600000BFFB681B681A69FB685B6AD2B21A70EE
:10447000FB685B6A5A1CFB685A62FB681B8D013B38
:104480009AB2FB681A85FB685B8D9BB2013B9AB2BE
:10449000FB685A85EEE07B6A0093BB6B0022814982
:1044A000F86800F083FA0346002B01D00123F5E001
:1044B000FB681B681A68FB681B6822F480621A603C
:1044C00072B600BFFB681B681A69FB685B6AD2B2F0
:1044D0001A70FB685B6A5A1CFB685A62FB681B8D8A
:1044E000013B9AB2FB681A85FB685B8D9BB2013B6E
:1044F0009AB2FB685A856C4B1B68DB086B4AA2FBBF
:1045000003231A0A13469B001344DA00D31A3B62B2
:104510003B6A013B3B623B6A002B18D1FB680022DF
:104520001A63FB68202283F83D20FB68002283F891
:104530003E20FB681B6C43F02002FB681A6462B6E5
:1045400000BFFB68002283F83C200123A6E0FB6843
:104550001B685B6903F00403042BD9D1FB681B685B
:104560001A68FB681B6842F400721A60FB681B68DB
:104570001A69FB685B6AD2B21A70FB685B6A5A1CE4
:10458000FB685A62FB681B8D013B9AB2FB681A8577
:10459000FB685B8D9BB2013B9AB2FB685A8562B6A1
:1045A00000BFFB681B681A69FB685B6AD2B21A70AD
:1045B000FB685B6A5A1CFB685A62FB681B8D013BF7
:1045C0009AB2FB681A85FB685B8D9BB2013B9AB27D
:1045D000FB685A854EE07A6AB96BF86800F090FB88
:1045E0000346002B01D0012358E0FB681B681A69C1
:1045F000FB685B6AD2B21A70FB685B6A5A1CFB6884
:104600005A62FB681B8D013B9AB2FB681A85FB68F6
:104610005B8D9BB2013B9AB2FB685A85FB681B68B5
:104620005B6903F00403042B24D1FB681B8D032B6F
:1046300007D1FB681B681A68FB681B6822F480625C
:104640001A60FB681B681A69FB685B6AD2B21A7051
:10465000FB685B6A5A1CFB685A62FB681B8D013B56
:104660009AB2FB681A85FB685B8D9BB2013B9AB2DC
:10467000FB685A85FB681B8D002B7FF488AEFB68B6
:10468000202283F83D20FB68002283F83E20FB684F
:10469000002283F83C20002300E00223184628373C
:1046A000BD4680BD040001000400002089B5F81457
:1046B00080B588B002AFF860084611461A46034636
:1046C0007B810B463B811346FB80FB681B681A68A5
:1046D000FB681B6842F480721A607B6A00933B6A35
:1046E00000224FF00111F86800F060F90346002B3A
:1046F0000DD0FB681B681B6803F48073B3F5807FE3
:1047000003D1FB684FF400721A6403235FE07B89D6
:10471000DBB21A46FB681B6802F0FE021A617B6A74
:104720003A6A2D49F86800F0BBF90346002B01D026
:1047300001234CE000237B61FB681B685B697B61A4
:10474000FB681B689B697B617B697A6A396AF868D8
:1047500000F046FA0346002B0DD0FB681B6C042BBF
:1047600007D1FB681B681A68FB681B6842F400727B
:104770001A6001232BE0FB88012B05D13B89DAB2BB
:10478000FB681B681A6121E03B891B0A9BB2DAB205
:10479000FB681B681A617A6A396AF86800F020FAC7
:1047A0000346002B0DD0FB681B6C042B07D1FB6864
:1047B0001B681A68FB681B6842F400721A600123C8
:1047C00005E03B89DAB2FB681B681A6100231846D2
:1047D0001837BD4680BD00BF0200010080B588B01B
:1047E00002AFF860084611461A4603467B810B4625
:1047F0003B811346FB80FB681B681A68FB681B68DB
:1048000042F480621A60FB681B681A68FB681B68C8
:1048100042F480721A607B6A00933B6A00224FF078
:104820000111F86800F0C2F80346002B0DD0FB68B8
:104830001B681B6803F48073B3F5807F03D1FB68AA
:104840004FF400721A640323AAE07B89DBB21A4694
:10485000FB681B6802F0FE021A617B6A3A6A5249E1
:10486000F86800F01DF90346002B01D0012397E002
:1048700000237B61FB681B685B697B61FB681B68CD
:104880009B697B617B697A6A396AF86800F0A8F9EC
:104890000346002B0DD0FB681B6C042B07D1FB6873
:1048A0001B681A68FB681B6842F400721A600123D7
:1048B00076E0FB88012B05D13B89DAB2FB681B68E7
:1048C0001A6121E03B891B0A9BB2DAB2FB681B68C4
:1048D0001A617A6A396AF86800F082F90346002B97
:1048E0000DD0FB681B6C042B07D1FB681B681A6892
:1048F000FB681B6842F400721A60012350E03B8998
:10490000DAB2FB681B681A617A6A396AF86800F0E3
:1049100067F90346002B0DD0FB681B6C042B07D1F5
:10492000FB681B681A68FB681B6842F400721A6017
:10493000012335E0FB681B681A68FB681B6842F4BA
:1049400080721A607B6A00933B6A00224FF001116B
:10495000F86800F02BF80346002B0DD0FB681B68AD
:104960001B6803F48073B3F5807F03D1FB684FF4B9
:1049700000721A64032313E07B89DBB243F0010366
:10498000DAB2FB681B681A617B6A3A6A0649F86802
:1049900000F086F80346002B01D0012300E000233D
:1049A00018461837BD4680BD0200010080B584B0AE
:1049B00000AFF860B9603B601346FB7148E03B68AC
:1049C000B3F1FF3F44D0FEF733FB0246BB69D31A75
:1049D0003A689A4202D33B68002B39D1BB681B0C62
:1049E000DBB2012B0DD1FB681B685B69DA43BB6846
:1049F00013409BB2002B0CBF01230023DBB21A46ED
:104A00000CE0FB681B689B69DA43BB6813409BB2F0
:104A1000002B0CBF01230023DBB21A46FB799A421C
:104A200016D1FB6800221A63FB68202283F83D2020
:104A3000FB68002283F83E20FB681B6C43F02002D9
:104A4000FB681A64FB68002283F83C20012323E002
:104A5000BB681B0CDBB2012B0DD1FB681B685B69CB
:104A6000DA43BB6813409BB2002B0CBF0123002329
:104A7000DBB21A460CE0FB681B689B69DA43BB6833
:104A800013409BB2002B0CBF01230023DBB21A465C
:104A9000FB799A4293D0002318461037BD4680BD5B
:104AA00080B584B000AFF860B9607A603B6071E0B7
:104AB000FB681B685B6903F48063B3F5806F23D1E7
:104AC000FB681B681A68FB681B6842F400721A6076
:104AD000FB681B686FF480625A61FB6800221A63EE
:104AE000FB68202283F83D20FB68002283F83E20EB
:104AF000FB681B6C43F00402FB681A64FB6800222D
:104B000083F83C20012367E07B68B3F1FF3F41D08D
:104B1000FEF78EFA02463B68D31A7A689A4202D3AD
:104B20007B68002B36D1BB681B0CDBB2012B0CD190
:104B3000FB681B685B69DA43BB6813409BB2002BC0
:104B400014BF01230023DBB20BE0FB681B689B69E9
:104B5000DA43BB6813409BB2002B14BF0123002330
:104B6000DBB2002B16D0FB6800221A63FB68202200
:104B700083F83D20FB68002283F83E20FB681B6C15
:104B800043F02002FB681A64FB68002283F83C2093
:104B9000012321E0BB681B0CDBB2012B0CD1FB68AD
:104BA0001B685B69DA43BB6813409BB2002B14BFE0
:104BB00001230023DBB20BE0FB681B689B69DA432F
:104BC000BB6813409BB2002B14BF01230023DBB250
:104BD000002B7FF46DAF002318461037BD4680BD13
:104BE00080B584B000AFF860B9607A6034E0F868EE
:104BF00000F0E3F80346002B01D0012334E0BB684A
:104C0000B3F1FF3F28D0FEF713FA02467B68D31AB0
:104C1000BA689A4202D3BB68002B1DD1FB681B689F
:104C20005B6903F08003802B16D0FB6800221A63B7
:104C3000FB68202283F83D20FB68002283F83E2099
:104C4000FB681B6C43F02002FB681A64FB680022BF
:104C500083F83C20012307E0FB681B685B6903F0D5
:104C60008003802BC3D1002318461037BD4680BD7A
:104C700080B584B000AFF860B9607A6034E0F8685D
:104C800000F09BF80346002B01D0012334E0BB6801
:104C9000B3F1FF3F28D0FEF7CBF902467B68D31A69
:104CA000BA689A4202D3BB68002B1DD1FB681B680F
:104CB0005B6903F00403042B16D0FB6800221A631F
:104CC000FB68202283F83D20FB68002283F83E2009
:104CD000FB681B6C43F02002FB681A64FB6800222F
:104CE00083F83C20012307E0FB681B685B6903F045
:104CF0000403042BC3D1002318461037BD4680BDE2
:104D000080B584B000AFF860B9607A6049E0FB68B4
:104D10001B685B6903F01003102B19D1FB681B683B
:104D20006FF010025A61FB6800221A63FB682022B0
:104D300083F83D20FB68002283F83E20FB681A6C54
:104D4000FB681A64FB68002283F83C20012330E0F2
:104D5000FEF76EF902467B68D31ABA689A4202D30C
:104D6000BB68002B1DD1FB681B685B6903F0400327
:104D7000402B16D0FB6800221A63FB68202283F8C0
:104D80003D20FB68002283F83E20FB681B6C43F04B
:104D90002002FB681A64FB68002283F83C20012390
:104DA00007E0FB681B685B6903F04003402BAED152
:104DB000002318461037BD4680BD80B483B000AFD5
:104DC00078607B681B685B6903F48063B3F5806F70
:104DD0001BD17B681B686FF480625A617B6800227C
:104DE0001A637B68202283F83D207B68002283F8C9
:104DF0003E207B681B6C43F004027B681A647B686E
:104E0000002283F83C20012300E0002318460C37E1
:104E1000BD4680BC704780B584B000AF78607B68C9
:104E2000002B01D1012336E07B681B684CF6CC4295
:104E30001A607B681B6845F255521A607B681B68D4
:104E40007A6852685A607B681B687A6892689A60D0
:104E5000FEF7EEF8F86011E0FEF7EAF80246FB68AC
:104E6000D31A41F23C32934208D97B681B68DB6855
:104E700003F00303002B01D003230CE07B681B68C5
:104E8000DB6803F00303002BE6D17B681B684AF65E
:104E9000AA221A60002318461037BD4680BD80B490
:104EA00083B000AF78607B681B684AF6AA221A605C
:104EB000002318460C37BD4680BC704780B586B0CD
:104EC00000AF78607B68002B01D1012372E27B6820
:104ED0001B6803F00103002B00F08780924B5B6896
:104EE00003F00C03042B0CD08F4B5B6803F00C0316
:104EF000082B12D18C4B5B6803F48033B3F5803FF1
:104F00000BD1894B1B6803F40033002B6CD07B68FA
:104F10005B68002B68D101234CE27B685B68B3F5CA
:104F2000803F06D1804B1B687F4A43F48033136077
:104F30002EE07B685B68002B0CD17B4B1B687A4AA8
:104F400023F480331360784B1B68774A23F4802363
:104F500013601DE07B685B68B3F5A02F0CD1724B2A
:104F60001B68714A43F4802313606F4B1B686E4AC1
:104F700043F4803313600BE06B4B1B686A4A23F4E5
:104F800080331360684B1B68674A23F480231360E7
:104F90007B685B68002B13D0FEF74AF8386108E0A5
:104FA000FEF746F802463B69D31A642B01D9032366
:104FB00000E25D4B1B6803F40033002BF0D014E0DB
:104FC000FEF736F8386108E0FEF732F802463B6932
:104FD000D31A642B01D90323ECE1534B1B6803F470
:104FE0000033002BF0D100E000BF7B681B6803F0AA
:104FF0000203002B63D04C4B5B6803F00C03002BC7
:105000000BD0494B5B6803F00C03082B1CD1464BBB
:105010005B6803F48033002B16D1434B1B6803F00D
:105020000203002B05D07B681B69012B01D00123F3
:10503000C0E13D4B1B6823F0F8027B685B69DB0035
:10504000394913430B603AE07B681B69002B20D081
:10505000364B01221A60FDF7EBFF386108E0FDF7DF
:10506000E7FF02463B69D31A022B01D90323A1E1D2
:105070002D4B1B6803F00203002BF0D02A4B1B685A
:1050800023F0F8027B685B69DB00274913430B6060
:1050900015E0264B00221A60FDF7CAFF386108E0D0
:1050A000FDF7C6FF02463B69D31A022B01D9032341
:1050B00080E11D4B1B6803F00203002BF0D17B68DD
:1050C0001B6803F00803002B3AD07B689B69002B18
:1050D00019D0174B01221A60FDF7AAFF386108E0CA
:1050E000FDF7A6FF02463B69D31A022B01D9032321
:1050F00060E10D4B5B6A03F00203002BF0D001204E
:1051000000F0CEFA1CE00A4B00221A60FDF790FF77
:1051100038610FE0FDF78CFF02463B69D31A022B82
:1051200008D9032346E100BF0010024000004242BC
:1051300080044242924B5B6A03F00203002BE9D1E8
:105140007B681B6803F00403002B00F0A68000239B
:10515000FB758B4BDB6903F08053002B0DD1884B23
:10516000DB69874A43F08053D361854BDB6903F0E9
:105170008053BB60BB680123FB75824B1B6803F443
:105180008073002B18D17F4B1B687E4A43F48073D9
:105190001360FDF74DFF386108E0FDF749FF024657
:1051A0003B69D31A642B01D9032303E1754B1B68B8
:1051B00003F48073002BF0D07B68DB68012B06D1F1
:1051C0006F4B1B6A6E4A43F0010313622DE07B684C
:1051D000DB68002B0CD16A4B1B6A694A23F0010380
:1051E0001362674B1B6A664A23F0040313621CE0D8
:1051F0007B68DB68052B0CD1614B1B6A604A43F06E
:10520000040313625E4B1B6A5D4A43F001031362A1
:105210000BE05B4B1B6A5A4A23F001031362584BA5
:105220001B6A574A23F0040313627B68DB68002B78
:1052300015D0FDF7FDFE38610AE0FDF7F9FE0246E4
:105240003B69D31A41F28832934201D90323B1E07A
:105250004B4B1B6A03F00203002BEED014E0FDF76A
:10526000E7FE38610AE0FDF7E3FE02463B69D31A28
:1052700041F28832934201D903239BE0404B1B6AE1
:1052800003F00203002BEED1FB7D012B05D13C4B3B
:10529000DB693B4A23F08053D3617B68DB69002BD9
:1052A00000F08780364B5B6803F00C03082B61D05D
:1052B0007B68DB69022B46D1334B00221A60FDF775
:1052C000B7FE386108E0FDF7B3FE02463B69D31A2A
:1052D000022B01D903236DE0294B1B6803F00073F7
:1052E000002BF0D17B681B6AB3F5803F08D1244BBB
:1052F0005B6823F400327B689B68214913434B6051
:105300001F4B5B6823F474127B68196A7B685B6AC5
:105310000B431B4913434B601B4B01221A60FDF7E3
:1053200087FE386108E0FDF783FE02463B69D31A29
:10533000022B01D903233DE0114B1B6803F00073DE
:10534000002BF0D035E0104B00221A60FDF770FE04
:10535000386108E0FDF76CFE02463B69D31A022B68
:1053600001D9032326E0064B1B6803F00073002BD2
:10537000F0D11EE07B68DB69012B07D1012319E026
:105380000010024000700040600042420B4B5B681E
:10539000FB60FB6803F480327B681B6A9A4206D18B
:1053A000FB6803F470127B685B6A9A4201D00123A8
:1053B00000E0002318461837BD4680BD00100240AB
:1053C00080B584B000AF786039607B68002B01D174
:1053D0000123D0E06A4B1B6803F007033A689A4246
:1053E00010D9674B1B6823F0070265493B681343DC
:1053F0000B60634B1B6803F007033A689A4201D0C5
:105400000123B8E07B681B6803F00203002B20D067
:105410007B681B6803F00403002B05D0594B5B68C5
:10542000584A43F4E06353607B681B6803F0080349
:10543000002B05D0534B5B68524A43F460535360D2
:10544000504B5B6823F0F0027B689B684D49134327
:105450004B607B681B6803F00103002B40D07B6826
:105460005B68012B07D1474B1B6803F40033002B0B
:1054700015D101237FE07B685B68022B07D1414B8C
:105480001B6803F00073002B09D1012373E03D4B2F
:105490001B6803F00203002B01D101236BE0394BA1
:1054A0005B6823F003027B685B68364913434B60FB
:1054B000FDF7BEFDF8600AE0FDF7BAFD0246FB68A5
:1054C000D31A41F28832934201D9032353E02D4B82
:1054D0005B6803F00C027B685B689B009A42EBD12F
:1054E000274B1B6803F007033A689A4210D2244BFB
:1054F0001B6823F0070222493B6813430B60204BD3
:105500001B6803F007033A689A4201D0012332E096
:105510007B681B6803F00403002B08D0194B5B6801
:1055200023F4E0627B68DB68164913434B607B68B9
:105530001B6803F00803002B09D0124B5B6823F4AF
:1055400060527B681B69DB000E4913434B6000F01F
:1055500021F802460B4B5B681B0903F00F030A4955
:10556000CB5C22FA03F3094A1360094B1B68184607
:10557000FDF71CFD002318461037BD4680BD00BF57
:1055800000200240001002404CB600080400002039
:105590000800002080B487B000AF0023FB60002328
:1055A000BB6000237B6100237B6000233B611E4BBB
:1055B0005B68FB60FB6803F00C03042B02D0082B34
:1055C00003D027E0194B3B6127E0FB689B0C03F0FD
:1055D0000F03174AD35C7B60FB6803F48033002B16
:1055E00010D0114B5B685B0C03F00103114AD35CD4
:1055F000BB607B680D4A03FB02F2BB68B2FBF3F3AE
:105600007B6104E07B680C4A02FB03F37B617B69EE
:105610003B6102E0054B3B6100BF3B6918461C370C
:10562000BD4680BC704700BF0010024000127A00E7
:1056300064B6000874B6000800093D0080B400AFED
:10564000024B1B681846BD4680BC70470400002012
:1056500080B500AFFFF7F2FF0246054B5B681B0AFF
:1056600003F007030349CB5C22FA03F3184680BD1D
:10567000001002405CB6000880B500AFFFF7DEFF07
:105680000246054B5B68DB0A03F007030349CB5C6A
:1056900022FA03F3184680BD001002405CB60008F1
:1056A00080B485B000AF78600A4B1B680A4AA2FB41
:1056B00003235B0A7A6802FB03F3FB6000BFFB680D
:1056C0005A1EFA60002BF9D100BF00BF1437BD4647
:1056D00080BC704704000020D34D621080B582B0BA
:1056E00000AF78607B68002B01D1012341E07B682B
:1056F00093F83D30DBB2002B06D17B68002283F8A3
:105700003C207868FDF75AFA7B68022283F83D2036
:105710007B681A687B6804331946104600F05CFA0F
:105720007B68012283F846207B68012283F83E20B3
:105730007B68012283F83F207B68012283F84020A8
:105740007B68012283F841207B68012283F8422094
:105750007B68012283F843207B68012283F8442080
:105760007B68012283F845207B68012283F83D2075
:10577000002318460837BD4680BD000080B485B0C0
:1057800000AF78607B6893F83D30DBB2012B01D02D
:1057900001233AE07B68022283F83D207B681B6886
:1057A000DA687B681B6842F00102DA607B681B687C
:1057B000184A93420ED07B681B68B3F1804F09D022
:1057C0007B681B68144A934204D07B681B68134AA9
:1057D000934211D17B681B689B6803F00703FB6051
:1057E000FB68062B10D07B681B681A687B681B68F7
:1057F00042F001021A6007E07B681B681A687B6848
:105800001B6842F001021A60002318461437BD4697
:1058100080BC7047002C014000040040000800409C
:1058200080B584B000AF78607B681B68DB68FB6084
:105830007B681B681B69BB60BB6803F00203002B1D
:1058400020D0FB6803F00203002B1BD07B681B6891
:105850006FF002021A617B6801221A777B681B686D
:105860009B6903F00303002B03D0786800F098F9DC
:1058700005E0786800F08BF9786800F09AF97B68A9
:1058800000221A77BB6803F00403002B20D0FB68CA
:1058900003F00403002B1BD07B681B686FF004022D
:1058A0001A617B6802221A777B681B689B6903F484
:1058B0004073002B03D0786800F072F905E0786837
:1058C00000F065F9786800F074F97B6800221A77B7
:1058D000BB6803F00803002B20D0FB6803F008032B
:1058E000002B1BD07B681B686FF008021A617B6875
:1058F00004221A777B681B68DB6903F00303002B23
:1059000003D0786800F04CF905E0786800F03FF9C2
:10591000786800F04EF97B6800221A77BB6803F0C4
:105920001003002B20D0FB6803F01003002B1BD0CA
:105930007B681B686FF010021A617B6808221A7777
:105940007B681B68DB6903F44073002B03D0786825
:1059500000F026F905E0786800F019F9786800F0A1
:1059600028F97B6800221A77BB6803F00103002B3B
:105970000CD0FB6803F00103002B07D07B681B6889
:105980006FF001021A617868FCF7CEFFBB6803F084
:105990008003002B0CD0FB6803F08003002B07D0A2
:1059A0007B681B686FF080021A61786800F07FFAEC
:1059B000BB6803F04003002B0CD0FB6803F04003EE
:1059C000002B07D07B681B686FF040021A61786873
:1059D00000F0F8F8BB6803F02003002B0CD0FB6844
:1059E00003F02003002B07D07B681B686FF02002B8
:1059F0001A61786800F052FA00BF1037BD4680BDCA
:105A000080B584B000AF786039600023FB737B6899
:105A100093F83C30012B01D10223B4E07B680122D2
:105A200083F83C207B68022283F83D207B681B685A
:105A30009B68BB60BB6823F07703BB60BB6823F443
:105A40007F43BB607B681B68BA689A603B681B68D1
:105A5000B3F5005F3ED0B3F5005F00F28780B3F589
:105A6000805F00F08680B3F5805F7FD8702B1AD0FE
:105A7000702B7BD8602B50D0602B77D8502B3CD02C
:105A8000502B73D8402B58D0402B6FD8302B64D07C
:105A9000302B6BD8202B60D0202B67D8002B5CD00C
:105AA000102B5AD062E07B6818683B6899683B68A5
:105AB0005A683B68DB6800F074F97B681B689B6878
:105AC000BB60BB6843F07703BB607B681B68BA6848
:105AD0009A604FE07B6818683B6899683B685A6831
